:100000000C9410020C9438020C9438020C943802B0
:100010000C9438020C9438020C9438020C94380278
:100020000C9438020C9438020C9438020C94480A50
:100030000C9438020C9438020C9438020C94380258
:100040000C94C2090C9438020C9438020C943802B7
:100050000C9438020C9438020C9438020C94380238
:100060000C9438020C9438020101FF030101F703DC
:100070006C00680000000000240027002A00000037
:100080000000250028002B000500893008023802F6
:1000900049786814000044692D6E6F2D636F6E6E91
:1000A000656374696F6E006F7563682100081018CE
:1000B0001818199BDBDBDBDBFE78181818181844BE
:1000C000692D6E6F2D636F6E6E656374696F6E0060
:1000D00005003801680100001815001FE00037F026
:1000E000003FF0003FF0003FF0003E00003FC080C6
:1000F0003C0080FC00C3FF00E7FD00FFFC00FFFCAC
:10010000007FFC003FF8001FF0000FE000076000D8
:100110000620000420000630001753440016137810
:1001200000161314001510200015201000540A03A7
:10013000E181867F3E186D830F0F0E018386603349
:10014000186DC3198F1803C38E6033186DE330CF59
:100150001803C39E603630CDE360CF3006C79E7E65
:100160003E30CDB360CF300CC6F6603330D9B660C8
:10017000CF33CFCCF66061B0DB1E60CF30D86CE6F9
:10018000C061B0DB1E618F19986CC6C063B19B0E55
:10019000330F0FB078C6FF7E1F1B061E0FF6E8DB7D
:1001A000CFC3B8AEA49B928A827B746E68625C57A0
:1001B000524E4945413E3A3734312E2C29272523CA
:1001C000210A0A153A49676E6F7265006D560A0A70
:1001D000504C45415345205455524E204F464620E1
:1001E000004C4F572042415454455259212000039E
:1001F000053F213F1208120A100A0E1C0E0C1E0C9D
:10020000141A14161F161E131E1E1B1E1E1F1E3F21
:10021000213F3A2F3A173D173F213F181F02040A8A
:10022000041F0E04040E1F0A1F0A0E0E1F04110ED7
:100230002E252E2F2A2E262929021F02081F0815D7
:100240000E04040E150E15151B151B040604040CD4
:10025000040000000017000300031F0A1F16371ACE
:100260001904130A153A000300000E11110E000ABA
:10027000040A040E040030000404040010001804F2
:10028000031F111F121F101D151711151F07041F23
:1002900017151D1F151D01011F1F151F17151F0005
:1002A0000A00003200040A110A0A0A110A040115A0
:1002B000020E11171E051E1F150A0E110A1F110E20
:1002C0001F15111F05010E111D1F041F111F1108FD
:1002D000100F1F041B1F10101F061F1E040F0E11EE
:1002E0000E1F09060E112E1F051A121509011F01F6
:1002F0001F101F0F180F1F0C1F1B041B031C0319BB
:100300001513001F11030418111F00020102202001
:10031000200001020C121E1F120C0C12120C121FD4
:100320000C1A14041E05242A1E1F021C141D102062
:10033000201D1F0814111F101E041E1E021C0C126B
:100340000C3E0A040C123E1E040214160A020F127E
:100350000E101E0E100E1E081E120C1226281E3223
:100360002A26041E21001F00211E040102013F2134
:100370003F172B152010204C4F4144455200172B9E
:1003800016201314004500680100000A4E6F205328
:10039000442063617264206F720A6E6F204C4F417B
:1003A0004445522E4845580A0A153A457869740062
:1003B0001D20466C617368696E670A20206C6F614E
:1003C0006465722E2E2E0A0A444F4E27542054552F
:1003D000524E204F46462100000000002300260018
:1003E00029000404040404040404020202020202B8
:1003F00003030303030301020408102040800102E9
:100400000408102001020408102000000008000267
:100410000100000304070000000000000000E714D2
:1004200011241FBECFEFD8E0DEBFCDBF11E0A0E0AA
:10043000B1E0E4EDFEE202C005900D92AA32B107F0
:10044000D9F723E0AAE2B1E001C01D92A93CB207AE
:10045000E1F712E0C0E1D2E004C02197FE010E9462
:100460005D17CF30D107C9F70E9402100C946817AE
:100470000C940000CF92DF92EF92FF920F931F93A4
:10048000CF93DF93EC0181E0809398031092970360
:100490001092960310925A038093B0038093B10395
:1004A0001CE00E948C038823E1F3FE0184918823E1
:1004B00019F00091950301C000E02DE231E040E029
:1004C00060E080E993E00E94920A4CE0400F28ED42
:1004D00030E060E080E993E00E94920A1092990374
:1004E00010939A03BE0180E993E00E941F08809157
:1004F0009403982F990F890F81958D5A80939903B2
:1005000080919503982F990F890F8195835D809332
:100510009A038091B30384FF03C089E291E002C093
:1005200085E291E00E94E20D80919403982F990F4B
:10053000890F81958D5A8093990380919A038F5FDB
:1005400080939A0380916C03882319F081E291E0F3
:1005500002C08DE191E00E94E20D90919403892FF9
:10056000880F980F91959D5A9093990380919A03C3
:100570008F5F80939A0389E191E00E94E20D809160
:1005800058038130C1F420916C032F5F90916D036B
:1005900027FD0BC0022E000C330B692F70E06F5F3C
:1005A0007F4FC9010E943517982F90936C0387E6FF
:1005B00093E00E94170A809157038130B1F0809137
:1005C000B203482F50E060E070E0C090B303D090D9
:1005D000B403E090B503F090B603C416D506E60662
:1005E000F70608F43FC08F3FE9F18FEF8093B20325
:1005F00060E087E693E00E94370A10926803109249
:100600007E0310927C0310928B0310928A03109247
:100610007F031092340110923501109233010E9431
:100620000C0A80ED90E09093750380937403109210
:100630007A031092790381E08093680399E09093A4
:100640007D031092800310928203109284038093A2
:100650005A03DF91CF911F910F91FF90EF90DF90A0
:10066000CF90089580915903813009F01ACF0E94EC
:10067000F50D17CF0E9463174F925F926F927F9292
:10068000EF92FF920F931F93CF93DF93CDB7DEB717
:10069000A1970FB6F894DEBF0FBECDBF7C01FA0163
:1006A000CB0119A2223008F42AE08E010F5D1F4F02
:1006B000422E512C612C712CBF01A30192010E948A
:1006C0001C15F901CA01015011096A3014F4605D6A
:1006D00001C0695CD8016C93232B242B252B61F777
:1006E000B801C7010E944308A1960FB6F894DEBF77
:1006F0000FBECDBFDF91CF911F910F91FF90EF9073
:100700007F906F905F904F900895DC01ED91FC9188
:100710000190F081E02D09944F925F926F927F9249
:100720008F929F92AF92BF92CF92DF92EF92FF9201
:100730000F931F93CF93DF9300D000D01F92CDB7BC
:10074000DEB74091C2035091C3036091C40370911E
:10075000C5032FB7F8948091380190913901A09189
:100760003A01B0913B012FBF481B590B6A0B7B0B21
:100770008091C10390E0A0E0B0E00091BD03109132
:10078000BE032091BF033091C00384179507A607CD
:10079000B70730F4011511052105310509F03EC3F5
:1007A000012B022B032B09F037C380915903815091
:1007B0008E3F18F580915803813021F580916C03AC
:1007C0008F5F60916D0387FD09C0082E000C990BA7
:1007D00070E06F5F7F4F0E943517682F60936C0346
:1007E0008EE793E09093C7038093C60388E48093D9
:1007F000C80387E693E00E94170A8091590381504D
:100800008E3F70F480915703813009F0B3C381E7C4
:1008100093E09093C7038093C60388E48093C80352
:1008200080E00E942C0E80916803882309F4ADC0FB
:1008300080917C038111A9C080917403909175030C
:10084000E0917903F0917A03EE0FFF1FE80FF91F93
:10085000459154914115510501F5209178032223CA
:1008600031F010927A0310927903FC0114C01092B7
:10087000680380916703882341F080E00E942C0E7A
:10088000E0917903F0917A032FC060E087E693E06E
:100890000E94370A7AC0459154919A01369527955E
:1008A0003695279540FF51C0CA0116E09695879569
:1008B0001A95E1F78F71952F96959695969590518B
:1008C0002F70223071F1F8F4211117C08B3008F02D
:1008D0008AE080937D03E0917903F0917A03319669
:1008E000F0937A03E0937903EE0FFF1F8091740376
:1008F00090917503E80FF91FCECF213061F760E0CA
:100900000E94990EE8CF2330B1F0243021F72091D6
:100910006B03829F802D1124809384039093850321
:10092000DACF20916B03829F802D11248093800366
:1009300090938103D0CF20916B03829F802D11244F
:100940008093820390938303C6CF2F7320937B03FE
:1009500080916B03859F802D112480937C031092DE
:100960008C0310928B0310928A0381E080937E03A4
:100970008093330110927F038091790390917A03E1
:10098000019690937A038093790380917E03882364
:1009900009F4F3C080917C03811106C060E087E612
:1009A00093E00E94370AE9C0815080937C038091D4
:1009B0008C03811148C020918A0330918B032F5FF3
:1009C0003F4FC901880F991FE0918603F09187037B
:1009D000E80FF91F65917491862F877080938D03BE
:1009E000AB01E3E056954795EA95E1F7CA01969584
:1009F0008795972F9695969590938E038F739091E8
:100A00006B03899F802D112480938C034170409348
:100A1000370130938B0320938A038091880390E001
:100A20002817390780F020918903222339F0821B8F
:100A3000910990938B0380938A0305C060E087E659
:100A400093E00E94370A80918C03815080938C033D
:100A500080917F0321E0280F20937F0340917B0347
:100A600030918E03340F80917303380F30936903F4
:100A700060918203662371F070E0822F022E000CD9
:100A8000990B0E94351780918303869F300D1124A6
:100A9000309369038091690390E0849664E270E08A
:100AA0000E9435178093690330917D0330936A0368
:100AB00060918003662381F0062E000C770B822F55
:100AC000022E000C990B0E94351780918103869F9E
:100AD000300D112430936A03609184036623A1F0E2
:100AE000822F220F990B70E00E943517CB0162E034
:100AF00070E00E9435172091850390916A03289F2A
:100B0000900D112490936A0380916A034F3341F052
:100B10008A300CF089E087FD80E080936A0302C090
:100B200010926A03F894E0916903F0E0E356FE4FF7
:100B3000E491E093360130916A0320918F033203F0
:100B40009001112440918D034203C001439F900DF9
:100B5000112400906C0302C0880F991F0A94E2F7D9
:100B600097FF02C081589F4F880F892F881F990BCC
:100B7000809335018093340178948091C803882351
:100B800009F48FC08C3020F49CE0E92EE81A01C0F3
:100B9000E12CFF24F394F09298031092B00310928A
:100BA000B103309195034DE2D42E1D2D131B1E0D64
:100BB00003E0030F2EE4412F63E080E993E03D83DF
:100BC0000E942C0C3D810CEF030F1D5F202F41E094
:100BD000612F80E50E946A0F202F42E0612F83E0A1
:100BE0000E946A0FF092B003F092B1030091950356
:100BF00013E0100FD01ADE0C23E04D2D622F80E998
:100C000093E02D830E94D40B2D812F5F2135A9F70E
:100C10001D0DFF24FA94F10E23E04F2D622F80E981
:100C200093E02D830E94D40B2D812F5F2135A9F7EE
:100C3000035033E0D30E402F6D2D80E00E94520F01
:100C4000402F6D2D83E50E94520F41E06D2D83E012
:100C50000E94D40E42E06D2D80E50E94D40E145007
:100C600044E0612F80E50E94D40E48E0612F83E0CC
:100C70000E94D40E84E08093990380919503E81A32
:100C80008E2D815D80939A036091C6037091C70396
:100C900080E993E00E941F088091C80381508093EF
:100CA000C80380915E0390915F03892B09F48CC087
:100CB00011E01093B0031092B1039091940385E575
:100CC000891B8093990310929A0360915B036130B2
:100CD00009F45BC030F080915A03653008F06DC0B4
:100CE00068C060E087E693E00E94370A10926803CC
:100CF00010939803EFEEF1E0E491EF5FE09394033B
:100D0000E0EFF1E0E491EF5FE093950381EF91E094
:100D10009093AF038093AE0310925F0310925E0333
:100D20001092960318EA0E948C038823E1F361EE87
:100D300071E080E993E00E941F0840915C035091AC
:100D40005D0360E070E02AE080E993E00E943C03EC
:100D50006CEC71E080E993E00E941F08412F4295FE
:100D60004F7050E060E070E02AE080E993E00E947C
:100D70003C0361EC71E080E993E00E941F088091E0
:100D80005703813009F0FCC01FC08091B3039091DC
:100D9000B403A091B503B091B6038F709927AA2729
:100DA000BB270897A105B10510F467E009C068E703
:100DB00007C0882349F06B5F03C0882329F06FE2E6
:100DC00080E993E00E9485030E94A20D8091960322
:100DD00081110EC088EF91E0E2E4F1E0DF019C01B7
:100DE0001D9221503040E1F71092990310929A031E
:100DF0000E9463096093BD037093BE038093BF0399
:100E00009093C0032091B9033091BA03621B730B16
:100E10007093B8036093B70380E0CCC02FB7F89409
:100E20008091380190913901A0913A01B0913B0134
:100E30002FBF2091C103820F911DA11DB11D809371
:100E4000C2039093C303A093C403B093C5038091DE
:100E5000B3039091B403A091B503B091B60301968A
:100E6000A11DB11D8093B3039093B403A093B50368
:100E7000B093B6031092BD031092BE031092BF034D
:100E80001092C0030E9463096093B9037093BA0380
:100E90008093BB039093BC038091430390914403E0
:100EA0002FE0289F8001299F100D112485E10E94C9
:100EB0004C09800F911F24E0969587952A95E1F7BC
:100EC000909344038093430320914203222309F427
:100ED0004BC060914603262F30E040E050E029836C
:100EE0003A834B835C83C0904703D12CE12CF12CD7
:100EF00040914A0350914B034A01A12CB12C2091FF
:100F00004803309149032901612C712C8217930702
:100F100028F09C014817590708F49A01C901A0E07C
:100F2000B0E09C01AD0124193509460957096981D2
:100F30007A818B819C816C197D098E099F090E94A1
:100F40001917A501940124193509460957090E946A
:100F5000F214C20ED31EE41EF51EC09245036C2D82
:100F600070E085E00E94ED080E942F0D0E94C50FE1
:100F700081E020C0893209F053CC0E94F50D50CC9D
:100F8000115009F0D0CE60E070E085E00E94ED08DD
:100F900083B7817F846083BF83B7816083BF83B75A
:100FA000816083BF889583B78E7F83BF83B78E7F31
:100FB00083BFB9CE0F900F900F900F900F90DF91DD
:100FC000CF911F910F91FF90EF90DF90CF90BF9046
:100FD000AF909F908F907F906F905F904F9008950B
:100FE000CF92DF92EF92FF920F931F93CF93DF93F5
:100FF0006C017A018B01C0E0D0E0CE15DF0589F0ED
:10100000D8016D918D01D601ED91FC910190F08197
:10101000E02DC6010995892B11F47E0102C02196AD
:10102000ECCFC701DF91CF911F910F91FF90EF900F
:10103000DF90CF900895089580E090E00895EF92BA
:10104000FF920F931F93CF93DF938C017B01C0E03E
:10105000D0E0F701EC0FFD1F6491662361F0D80129
:10106000ED91FC910190F081E02DC8010995892B4B
:1010700011F02196EECFCE01DF91CF911F910F910C
:10108000FF90EF9008956115710579F0FB010190D3
:101090000020E9F73197AF01461B570BDC01ED91BA
:1010A000FC910280F381E02D099480E090E00895A6
:1010B000833081F028F4813099F08230A1F00895D6
:1010C0008730A9F08830B9F08430D1F48091800065
:1010D0008F7D03C0809180008F778093800008957A
:1010E00084B58F7702C084B58F7D84BD08958091CB
:1010F000B0008F7703C08091B0008F7D8093B000E7
:1011000008951F93CF93DF93282F30E0F901E65F16
:10111000FB4F8491F901EA50FC4FD491F901EE5153
:10112000FC4FC491CC23C9F0162F81110E9458089E
:10113000EC2FF0E0EE0FFF1FE258FF4FA591B491A6
:101140008FB7F894111105C09C91ED2FE095E9231C
:1011500002C0EC91ED2BEC938FBFDF91CF911F91EB
:101160000895CF93DF9390E0FC01EA50FC4F249167
:10117000FC01EE51FC4F8491882361F190E0880FCF
:10118000991FFC01EC58FF4FC591D491FC01E25826
:10119000FF4FA591B491611109C09FB7F894888160
:1011A000209582238883EC912E230BC0623061F45A
:1011B0009FB7F8943881822F809583238883EC91A0
:1011C0002E2B2C939FBF06C08FB7F894E8812E2B4F
:1011D00028838FBFDF91CF9108951F93CF93DF9323
:1011E000182FEB0161E00E94B108209711F460E034
:1011F00004C0CF3FD10539F461E0812FDF91CF9159
:101200001F910C948108E12FF0E0E65FFB4FE49121
:10121000E330F9F048F4E130B9F0E230A1F584B5FB
:10122000806284BDC8BD34C0E730E9F0E83019F110
:10123000E43049F580918000806280938000D093F3
:101240008B00C0938A0024C084B5806884BDC7BD6C
:101250001FC080918000806880938000D0938900B7
:10126000C093880015C08091B00080688093B00062
:10127000C093B3000DC08091B00080628093B00035
:10128000C093B40005C0C038D1050CF0B5CFAFCFC6
:10129000DF91CF911F9108958E3008F08E508770A6
:1012A000806480937C0080917A00806480937A00CF
:1012B00080917A0086FDFCCF8091780020917900A2
:1012C00090E0922B08953FB7F89480913E01909161
:1012D0003F01A0914001B091410126B5A89B05C0F6
:1012E0002F3F19F00196A11DB11D3FBFBA2FA92FA5
:1012F000982F8827820F911DA11DB11DBC01CD0122
:1013000042E0660F771F881F991F4A95D1F708950D
:101310008F929F92AF92BF92CF92DF92EF92FF9205
:101320006B017C010E9463094B015C01C114D10473
:10133000E104F104F1F00E946309DC01CB0188199A
:101340009909AA09BB09883E9340A105B10570F32C
:1013500021E0C21AD108E108F10888EE880E83E086
:10136000981EA11CB11CC114D104E104F10419F7A9
:10137000DDCFFF90EF90DF90CF90BF90AF909F9028
:101380008F9008951F920F920FB60F9211242F93F2
:101390003F938F939F93AF93BF9380913801909128
:1013A0003901A0913A01B0913B0130913D0123E018
:1013B000230F2D3720F40196A11DB11D05C026E88D
:1013C000230F0296A11DB11D20933D01809338018A
:1013D00090933901A0933A01B0933B0180913E0173
:1013E00090913F01A0914001B09141010196A11D52
:1013F000B11D80933E0190933F01A0934001B093B3
:101400004101BF91AF919F918F913F912F910F908B
:101410000FBE0F901F90189580913301882319F00B
:101420008091340101C080E08093B4000895CF938F
:10143000DF93EC011F8A1D8A1CA21BA2188E10923A
:10144000340110923501109233010E940C0A85E894
:1014500093E09E878D871B8A1A8A81E0898389E0C1
:101460008E8B198E1B8E1D8EDF91CF910895FC01FE
:1014700061110DC0178A158A14A213A2108E109242
:10148000340110923501109233010C940C0A089526
:101490001F920F920FB60F9211242F933F934F93E9
:1014A0005F936F937F938F939F93AF93BF93EF93CC
:1014B000FF9360913501662321F180913C018F5F9C
:1014C00080933C01909136018917D8F090913301B7
:1014D00081E089278093330110923C01809137018C
:1014E000882369F08091120193E4899F802D112453
:1014F000895B809312010E942917909334010E9406
:101500000C0AFF91EF91BF91AF919F918F917F91C5
:101510006F915F914F913F912F910F900FBE0F9060
:101520001F9018954F925F926F927F928F929F9229
:10153000AF92BF92CF92DF92EF92FF920F931F93E1
:10154000CF93DF93F901C49031965491EC0108A137
:1015500064350CF018C10C2C000CDD08A62F062EEB
:10156000000CBB0B7D01EC0CFD1C1E141F040CF0C9
:101570000AC140330CF007C1A52E842E042E000CA6
:101580009908F401E50FF11D57FDFA951E161F0687
:101590000CF0F9C02E5F3F4FE6012796D7FD279646
:1015A00073E0D595C7957A95E1F747FF0AC0A52E58
:1015B000A40EC89DA001C99D500D1124241B350BFC
:1015C00040E0EA2D0A2C000CFF0BE40FF11D47FD53
:1015D000FA95F1971CF050E3A52EA41A67FD60E080
:1015E000F701E535F10514F0E4E5F0E07E2FFC01AC
:1015F000D484D426862F062E000C990BFC01EA1BFE
:10160000FB0BDF017F01F7E0EF22FF24E0E8F0E0D1
:1016100002C0F595E795EA94E2F71E2FB7FD1796FD
:1016200053E0B595A7955A95E1F72A0F3B1FE42F94
:10163000E77051E001C0550FEA95EAF745954595E9
:101640004595B4E54B02800D911D11248E5B9E4F94
:10165000C12C0A2C000CBB08992493942E0155240C
:10166000EC2DF0E0EA15FB050CF08DC0F90144917A
:101670000130E1F47C01A12F862E881AB82DBE0D11
:10168000B71708F077C0B42FBA2321F0E701B8816B
:10169000B52BB883B0E0B595A795109719F431969E
:1016A0004491A0E8DFEFED1AFD0AE8CF01111FC059
:1016B000752E70947C01A12FF901862E881AB82D01
:1016C000BE0DB71708F056C0B42FBA2321F0E701BA
:1016D000B881B721B883B0E0B595A795109719F4F4
:1016E00031964491A0E8DFEFED1AFD0AE8CF033010
:1016F00031F07C01A12FF901862E881A37C0752E92
:101700007094862E7C01A12FF9018716D8F4B42F8E
:10171000BA2359F0E701B881682C6D2460FE02C03D
:10172000B52B02C0B721E701B883B0E0B595A79506
:10173000109719F431964491A0E88394DFEFED1AE5
:10174000FD0AE3CFD92416C0B42FBA2321F0E70154
:10175000B881B527B883B0E0B595A795109719F46F
:1017600031964491A0E8DFEFED1AFD0AB82DBE0DC9
:10177000B71750F3550F19F48C5A9F4F51E0C3948B
:10178000240D351D6DCFDF91CF911F910F91FF90EB
:10179000EF90DF90CF90BF90AF909F908F907F9011
:1017A0006F905F904F900895FC01643508F053C02E
:1017B000403308F050C090A1742F759575957595BC
:1017C000262F062E000C330B542F57709230A1F4A5
:1017D000F901EE5BFE4F84E57802E00DF11D112466
:1017E000808190E0052E02C0959587950A94E2F7D6
:1017F0008095982F91700AC0933041F48485817050
:10180000462740954170841303C014C0911112C043
:1018100084E57802200D311D1124F901EE5BFE4FA5
:1018200081E090E001C0880F5A95EAF78095908199
:10183000892310C084E57802200D311D1124F9019F
:10184000EE5BFE4F81E090E001C0880F5A95EAF709
:101850009081892B80830895BF92CF92DF92EF927F
:10186000FF920F931F93CF93DF931F92CDB7DEB7F5
:101870007C01D62EC42E002E000C110B040F111D5E
:1018800047FD1A954C2D0C2C000C550B4017510799
:101890007CF4B12CB21654F46B2D6D0D4C2DC70198
:1018A00029830E94D40BB3942981F4CFC394EACF47
:1018B0000F90DF91CF911F910F91FF90EF90DF90EC
:1018C000CF90BF9008956F927F928F929F92AF9228
:1018D000BF92CF92DF92EF92FF920F931F93CF931D
:1018E000DF93EC016A3019F42D819885A1C06D3029
:1018F00009F4A4C01885BA84D98488A083E58D151D
:101900000CF47FC08FE28B150CF47BC08C8190E0CF
:101910000197189F9001199F300D1124C9018D0D59
:10192000911DD7FC9A95181619060CF06AC08D8186
:10193000819FC00111248B0D911DB7FC9A9518163B
:1019400019060CF05EC09D2CCD2CE62EF12CEC2D52
:10195000ED190E2E000CFF0B8C8190E0E817F907B3
:101960000CF04EC00197E817F90779F0E89E900156
:10197000E99E300DF89E300D1124E20FF31F8E8D7D
:101980009F8DE80FF91F749001C0712C6B2CAB2C4C
:101990002A2D2B19022E000C330B8D8190E0281775
:1019A00039075CF570FE10C0113031F44A2D6C2DF2
:1019B000CE010E94D40B1DC0012F212F462D692D71
:1019C000CE010E942C0C15C089A198A1891789F01D
:1019D00088A3113031F44A2D6C2DCE010E94D40B16
:1019E00007C0012F212F462D692DCE010E942C0CFE
:1019F00088A27694A394610ECBCFC394910EA7CF07
:101A000088A228853C818985329F800D1124898791
:101A10009F81992399F0082E000C990B44E550E022
:101A2000239F401951091124481759073CF49D81FF
:101A30008A85299F800D11248A87198681E090E08C
:101A4000DF91CF911F910F91FF90EF90DF90CF909A
:101A5000BF90AF909F908F907F906F900895CF929E
:101A6000DF92EF92FF920F931F93CF93DF93CCE41B
:101A7000D3E003E513E0FF24FA9497E0E92EE00EAB
:101A800062E088810E94B108288130E0F901E65FB8
:101A9000FB4F8491F901EA50FC4FC490F901EE51DB
:101AA000FC4FD490DD2071F081110E945808ED2D7B
:101AB000F0E0EE0FFF1FE852FC4FA591B491EC91BE
:101AC000EC21B1F4F80180818F5F808360E0888130
:101AD0000E94B10821960F5F1F4FE012D1CFDF9116
:101AE000CF911F910F91FF90EF90DF90CF900895CD
:101AF000F8018081882371F3F8018F3F11F410827F
:101B0000E5CFF082E3CFCF93C82FF89460E08091C7
:101B10009F030E9481088091A00318161CF460E0C6
:101B20000E948108CEBD00000DB407FEFDCF8EB52A
:101B30008091A00318161CF461E00E94810878943B
:101B4000CF9108950F931F93CF9380919C038F5F44
:101B500080939C0302E411E0C0E08C2F80640E941B
:101B6000830D80E80E94830D61E080919F030E94B5
:101B700081088091A00318161CF460E00E9481087F
:101B800080E090E0F801E80FF91F20812EBD0000F1
:101B90000DB407FEFDCF2EB501968435910591F762
:101BA0008091A00318161CF461E00E948108CF5FA9
:101BB0000C5A1F4FC63089F680E4CF911F910F91C8
:101BC0000C94830DCF93DF93BC0180E993E00E94D6
:101BD0001F08EC016FE171E080E993E00E94430887
:101BE0008C0F9D1FDF91CF91089588EF91E0E2E483
:101BF000F1E0DF019C011D9221503040E1F710928D
:101C0000990310929A0360EB73E080E993E00E94DD
:101C10001F080E94A20D8CB583608CBD8DB58E7F90
:101C20008DBD82E291E0EEEFFFE3099510929603FD
:101C30008BE893E00E94E20D0E94A20D0E942F0DFE
:101C400080915703813039F062E370E080E090E0EA
:101C50000E948809F3CF0895AF92BF92CF92DF928E
:101C6000EF92FF920F931F93CF93DF93C82ED12C47
:101C7000E601CE5BDC4F9DA1992309F44FC07E01A4
:101C80009FEFE91AF90AF70195A1911147C09EA5A6
:101C90008601000F111F0E5B1C4FF80134A525A50E
:101CA000E32FF22FE90FF11DE90FF11D259134917A
:101CB0002F3FFFEF3F0711F41DA230C039ABF601F3
:101CC000EE0FFF1FE45BFC4F3327220F331F05A0ED
:101CD000F6A1E02DE20FF31FA590B49081111AC078
:101CE00060E087E693E00E94370AF801B3AAA2AA4F
:101CF000F601EE0FFF1FEC5AFC4F16A215A281E071
:101D0000F70185A389E08BAF1EAEFE017B9615A27D
:101D1000329615A229968DA18F5F8DA3DF91CF9169
:101D20001F910F91FF90EF90DF90CF90BF90AF90F9
:101D3000089570E0DB01AA0FBB1FAE5BBC4FD496C9
:101D40002C91D497D5969C91D597E22FF92FE80F37
:101D5000F11DE80FF11D259134915F9696963C9305
:101D60002E939597F9018591949190916B03989F8B
:101D7000802D11246E5B7C4FFB01B19685A3F90188
:101D8000A591B4914B2F50E0E82FF0E04E175F077C
:101D900020F4F90125913491832FFB01B296899F9C
:101DA000802D112485A30895AF92BF92CF92DF9228
:101DB000EF92FF920F931F93CF93DF93182F062F6D
:101DC000C1E0D3E08AEFD82E9EEFE92E842F8470F5
:101DD000C82E842F8270B82E842F8870A82E417050
:101DE000F42E8C2F880F8F5FE80ECC2081F04D2FC2
:101DF000400F6C2F610F80E993E00E94D40B4C2FB1
:101E0000400F6D2F610F80E993E00E94D40BBB203F
:101E100081F0402F4D1B6C2F610F80E993E00E94F1
:101E2000D40B402F4C1B6D2F610F80E993E00E9473
:101E3000D40BAA2081F04C2F400F612F6D1B80E93D
:101E400093E00E94D40B4D2F400F612F6C1B80E953
:101E500093E00E94D40BFF2081F0402F4C1B612F98
:101E60006D1B80E993E00E94D40B402F4D1B612F26
:101E70006C1B80E993E00E94D40BCD1744F4E7FC7F
:101E800004C0D150D394D394ED0CCF5FAACFDF918F
:101E9000CF911F910F91FF90EF90DF90CF90BF9067
:101EA000AF9008950F931F93CF93DF93182F062FB2
:101EB000D42FC0E0CD174CF44C2F400F612F80E998
:101EC00093E00E94D40BCF5FF5CFDF91CF911F91AC
:101ED0000F9108959F92AF92BF92CF92DF92EF92AF
:101EE000FF920F931F93CF93DF93F82EE62EB22E1F
:101EF00003E0020FD0E0C3E08AEFC82E1EEF842F6C
:101F00008170982EAA24A394A20E4270D42EDF5F73
:101F1000802F8B19180F992081F04C2F440F4A0DF8
:101F20006E2D6C1B8D2F8F0D0E94520F402F6E2D2A
:101F30006D1B8C2F8F0D0E94520FDD2081F04C2FD6
:101F4000440F4A0D6E2D6C1B8F2D8D1B0E94520F5E
:101F5000402F6E2D6D1B8F2D8C1B0E94520FDC1796
:101F600044F417FD04C0C150C394C3941C0D0E5F0C
:101F7000CECFDF91CF911F910F91FF90EF90DF9027
:101F8000CF90BF90AF909F90089580915E03909105
:101F90005F03892BB1F1809166038F7169F584E14C
:101FA0000E944C09BC01990F880B990B0E94F715F0
:101FB00026EE3FE34EEC50E40E94AC160E94C6159C
:101FC0009B0170935D0360935C03672B91F084E049
:101FD00080935B03EEE5F3E080E04191519124179B
:101FE000350718F480935B0308958F5F8430A9F759
:101FF00003C08FEF80935B03809166038F5F8093B4
:1020000066030895789484B5826084BD84B5816048
:1020100084BD85B5826085BD85B5816085BD8091B3
:102020006E00816080936E0010928100809181002B
:102030008260809381008091810081608093810023
:10204000809180008160809380008091B1008460E5
:102050008093B1008091B00081608093B000809146
:102060007A00846080937A0080917A008260809305
:102070007A0080917A00816080937A0080917A0062
:10208000806880937A001092C10082E38093C1033C
:1020900081E090E0A0E0B0E08093BD039093BE03A8
:1020A000A093BF03B093C0038FEF8093B203E0E827
:1020B000F7E7259134912130304C09F049C0E6E929
:1020C000F7E7E491E0939B03E7E9F7E7E491E09316
:1020D0004603E8E9F7E7E491E0934703E9E9F7E726
:1020E000859194919093490380934803EBE9F7E736
:1020F0008591949190934B0380934A0387E080935A
:102100006D03EEE9F7E7E491E0936C03EFE9F7E79D
:10211000E491E093B203E0EAF7E78591949190931C
:102120005F0380935E03E2EAF7E7859194919093D1
:10213000610380936003E4EAF7E7859194919093BB
:10214000630380936203E6EAF7E7859194912CC0DC
:102150009CE390939B03109246038093470380E295
:1021600093E0909349038093480384ED93E0909328
:102170004B0380934A0387E080936D0380936C0345
:102180008CEA9DE090935F0380935E038EED9DE06B
:10219000909361038093600384E79EE090936303D0
:1021A000809362038CE39FE09093650380936403C4
:1021B000C1E0C09342036FEF70E085E00E94ED083C
:1021C00088E080934C0389E080934D0387E08093FF
:1021D0004E0386E080934F03D4E0D093500382E017
:1021E0008093510381E1809352030E942F0D8CE371
:1021F0009FE090935D0380935C03D0935B03C09357
:1022000066038BE080939E038DE080939D0380E1C5
:1022100080939F038EE08093A1038FE08093A003BF
:10222000C0939803C093B0031092B103C093970377
:10223000EFEEF1E0E491EF5FE0939403E0EFF1E083
:10224000E491EF5FE093950381EF91E09093AF030A
:102250008093AE03CFB7F89480912A01811127C0F3
:10226000ECEEF3E08491E0E0F4E09491E82FF0E00C
:10227000EE0FFF1FEC58FF4FA591B491EC91E923AD
:1022800021F461E08AE00E94810861E08AE00E9416
:10229000B1088CB580618CBD8CB580648CBD61E06B
:1022A0008DE00E94B10861E08BE00E94B10880914E
:1022B0002A018F5F80932A01CFBF8CB58F7D8CBDA3
:1022C0008CB58C7F81608CBD8DB581608DBD8CB5EA
:1022D0008C608CBD61E080919E030E94B10861E03A
:1022E00080919D030E94B10861E080919F030E944C
:1022F000B1088091A10318161CF461E00E94B10896
:102300008091A00318161CF461E00E94B10880912E
:10231000A103181674F460E00E9481086AE070E07E
:1023200080E090E00E94880961E08091A1030E9412
:10233000810880919D03082E000C990BFC01EE5141
:10234000FC4FE491F0E0EE0FFF1FE258FF4F2591A4
:1023500034913093A5032093A403FC01EA50FC4F71
:10236000E491E093AB0380919E03082E000C990B3F
:10237000FC01EE51FC4FE491F0E0EE0FFF1FE2583C
:10238000FF4F259134913093A3032093A203FC01C6
:10239000EA50FC4FE491E093AA038091A003082E39
:1023A000000C990BFC01EE51FC4FE491F0E0EE0FB4
:1023B000FF1FE258FF4F259134913093A7032093DC
:1023C000A603FC01EA50FC4FE491E093AC0380913A
:1023D0009F03082E000C990BFC01EE51FC4FE49179
:1023E000F0E0EE0FFF1FE258FF4F2591349130933C
:1023F000A9032093A803FC01EA50FC4FE491E09369
:10240000AD0381E20E94830D84E10E94830D8091DF
:102410009B0387FF03C08FE780939B0380919B03FF
:1024200080680E94830D80E20E94830D8CE00E94F0
:10243000830D0E94A20DC1E0C0936B0384E08093E2
:102440008F0380E790E0909377038093760360E0BA
:1024500080E00E94990E61E070E083E00E94ED0848
:102460008091B100887F81608093B100F8941092D0
:10247000800010928100109285001092840088E103
:1024800091E090938900809388008091810088601A
:102490008093810080918100816080938100809190
:1024A0006F00826080936F0078940E94C50F8091C6
:1024B0005803813019F410926C031EC080915B03A5
:1024C0008823C9F360E087E693E00E94370A88E832
:1024D00090E0909375038093740310927A031092A6
:1024E0007903C093680389E080937D031092800391
:1024F00010928203109284038091B203882321F00A
:1025000086E990E00E943A0266246394712C0E944E
:102510008C03882309F449C2C0913101D091320162
:10252000209709F093C020910E0130910F01409146
:1025300010015091110160912D0170912E01809137
:102540002F01909130010E944E1560932D017093E0
:102550002E0180932F019093300120910A01309138
:102560000B0140910C0150910D010E944E154B0141
:102570005C0160930A0170930B0180930C019093AE
:102580000D0120910201309103014091040150910D
:1025900005016091060170910701809108019091F9
:1025A00009010E944D156B017C0160930601709337
:1025B0000701809308019093090120E030E040E199
:1025C00051EC0E94BA1587FD0AC020E030E048EACD
:1025D00052E4C701B6010E94A7161816ACF4809108
:1025E0002B0190912C01019690932C0180932B014B
:1025F00060E070E088EA92E460930601709307015E
:10260000809308019093090120E030E040E352E418
:10261000C501B4010E94A7161816C4F480E090E02A
:10262000A0E3B2E480930A0190930B01A0930C0104
:10263000B0930D0110922D0110922E0110922F01D6
:102640001092300170920101609200018091580354
:102650008D7F813009F069C0C130D10509F045C0D6
:1026600060E070E088EA92E46093060170930701ED
:10267000809308019093090180E090E0A0E3B2E428
:1026800080930A0190930B01A0930C01B0930D016C
:1026900060E070E080E090E46093020170930301D9
:1026A000809304019093050110922D0110922E0148
:1026B00010922F0110923001D0930101C0930001BC
:1026C0008AE999E9A9E9BFE380930E0190930F018C
:1026D000A0931001B09311011092320110923101B8
:1026E00010922C0110922B0120C08091000190913A
:1026F00001010197D1F4109201011092000120E034
:1027000030E040E351E460912D0170912E01809101
:102710002F01909130010E944D1560932D0170930F
:102720002E0180932F0190933001809159038130C5
:1027300041F48091B203882321F08FEB90E00E9456
:102740003A02609106017091070180910801909111
:1027500009010E94BF156B017C012B0160910A01E8
:1027600070910B0180910C0190910D01E8EDF0E06A
:102770002490312CE9EDF0E0A490EDEAF0E0C49172
:10278000EEEAF0E0B49081010C5F1F4FC016D10655
:102790000CF0B9C0D0E0CC0DDD1DC530D1050CF476
:1027A000B2C020E030E048EA51E40E944D150E949A
:1027B000BF15AB018A2C912CF401E60FF71FED3108
:1027C000F1050CF4A0C02B2D30E0245E3F4F6217C2
:1027D00073070CF098C0A5E0CA16D1040CF4F4C03D
:1027E000A4E0CA1AD1084C3151050CF0E6C0ACE1A6
:1027F000B0E0A61BB70B0C171D0724F01E0114E058
:10280000211A3108E217F3071CF04901861A970ACA
:102810008A2F54E054194C51082F10E0081519055F
:102820000CF071C09C2DC42FC80FD0E0292F30E0D0
:10283000221533050CF0C6C0E8EDF0E0A491F901D3
:1028400063E0F595E7956A95E1F7B0E0179673E0D8
:10285000B595A7957A95E1F70A9F90010B9F300DEA
:102860001A9F300D1124E20FF31FE652FF4FE4913F
:10287000F0E0292F277060E870E002C07595679539
:102880002A95E2F7E623F723EF2B09F499C0EDEA46
:10289000F0E0A491652F690FE62FF0E023E0F595B5
:1028A000E7952A95E1F7B0E0179633E0B595A7953F
:1028B0003A95E1F7CA9F9001CB9F300DDA9F300D1A
:1028C0001124E20FF31FE155FF4FE491F0E0262FB2
:1028D000277060E870E002C0759567952A95E2F769
:1028E000E623F723EF2B09F46BC087E693E00E9401
:1028F000170A67EA70E080E993E00E941F0870926F
:1029000032016092310120E030E048EA51E4609108
:102910000A0170910B0180910C0190910D010E94B0
:102920004D150E94BF15462F28ED30E064E080E988
:1029300093E00E94920A60910601709107018091D4
:102940000801909109010E94BF152DEA30E04CE189
:1029500080E993E00E94920AC0E048E26C2F80E98F
:1029600093E00E94D40BCF5FC535B9F7C0902B011F
:10297000D0902C010D2C000CEE08FF08F7FE0EC0C5
:102980006DE280E993E00E94850344275527BA0150
:102990004C195D096E097F092AE003C02AE0B701DE
:1029A000A60180E993E00E943C0380E090E0892B3F
:1029B00009F4ADCD0E940000A7CDA0E0B0E01BCF90
:1029C0009F5F34CF8F5F28CFC12CD12C0CCF1092BA
:1029D00093031092920387E191E090939103809387
:1029E00090030895052E97FB1EF400940E9409158C
:1029F00057FD07D00E941C1507FC03D04EF40C9421
:102A0000091550954095309521953F4F4F4F5F4F99
:102A1000089590958095709561957F4F8F4F9F4F4A
:102A200008950E943E15A59F900DB49F900DA49F00
:102A3000800D911D11240895A1E21A2EAA1BBB1B23
:102A4000FD010DC0AA1FBB1FEE1FFF1FA217B3077A
:102A5000E407F50720F0A21BB30BE40BF50B661F90
:102A6000771F881F991F1A9469F760957095809554
:102A700090959B01AC01BD01CF010895A29FB001CB
:102A8000B39FC001A39F700D811D1124911DB29FA2
:102A9000700D811D1124911D08955058BB27AA2740
:102AA0000E9465150C946D160E945F1638F00E9406
:102AB000661620F039F49F3F19F426F40C945C1646
:102AC0000EF4E095E7FB0C945616E92F0E947E1653
:102AD00058F3BA17620773078407950720F079F453
:102AE000A6F50C94A0160EF4E0950B2EBA2FA02D8F
:102AF0000B01B90190010C01CA01A0011124FF27AB
:102B0000591B99F0593F50F4503E68F11A16F040A5
:102B1000A22F232F342F4427585FF3CF46953795A4
:102B20002795A795F0405395C9F77EF41F16BA0B69
:102B3000620B730B840BBAF09150A1F0FF0FBB1F17
:102B4000661F771F881FC2F70EC0BA0F621F731F60
:102B5000841F48F4879577956795B795F7959E3FBD
:102B600008F0B0CF9395880F08F09927EE0F97954E
:102B7000879508950E94321608F481E008950E9416
:102B8000C6156894B1110C94A11608950E9486167A
:102B900088F09F5798F0B92F9927B751B0F0E1F01E
:102BA000660F771F881F991F1AF0BA95C9F714C0CE
:102BB000B13091F00E94A016B1E008950C94A016D7
:102BC000672F782F8827B85F39F0B93FCCF3869507
:102BD00077956795B395D9F73EF490958095709564
:102BE00061957F4F8F4F9F4F0895E89409C097FBE1
:102BF0003EF490958095709561957F4F8F4F9F4FD4
:102C00009923A9F0F92F96E9BB279395F695879517
:102C100077956795B795F111F8CFFAF4BB0F11F4DA
:102C200060FF1BC06F5F7F4F8F4F9F4F16C0882381
:102C300011F096E911C0772321F09EE8872F762FB7
:102C400005C0662371F096E8862F70E060E02AF0F8
:102C50009A95660F771F881FDAF7880F96958795E4
:102C600097F90895990F0008550FAA0BE0E8FEEFB9
:102C700016161706E807F907C0F012161306E40740
:102C8000F50798F0621B730B840B950B39F40A2639
:102C900061F0232B242B252B21F408950A2609F417
:102CA000A140A6958FEF811D811D089597F99F671B
:102CB00080E870E060E008959FEF80EC08950024C4
:102CC0000A941616170618060906089500240A9491
:102CD00012161306140605060895092E0394000C17
:102CE00011F4882352F0BB0F40F4BF2B11F460FFA6
:102CF00004C06F5F7F4F8F4F9F4F089557FD9058CF
:102D0000440F551F59F05F3F71F04795880F97FBAF
:102D1000991F61F09F3F79F0879508951216130669
:102D20001406551FF2CF4695F1DF08C01616170698
:102D30001806991FF1CF86957105610508940895CD
:102D4000E894BB2766277727CB0197F908950E945F
:102D5000321608F48FEF08950E94BF160C946D167A
:102D60000E945F1638F00E94661620F0952311F03D
:102D70000C9456160C945C1611240C94A1160E9407
:102D80007E1670F3959FC1F3950F50E0551F629F1B
:102D9000F001729FBB27F00DB11D639FAA27F00DB4
:102DA000B11DAA1F649F6627B00DA11D661F829FDB
:102DB0002227B00DA11D621F739FB00DA11D621FC0
:102DC000839FA00D611D221F749F3327A00D611DDD
:102DD000231F849F600D211D822F762F6A2F1124BF
:102DE0009F5750409AF0F1F088234AF0EE0FFF1FF2
:102DF000BB1F661F771F881F91505040A9F79E3F49
:102E0000510580F00C9456160C94A1165F3FE4F324
:102E1000983ED4F3869577956795B795F795E7959E
:102E20009F5FC1F7FE2B880F911D9695879597F9A7
:102E30000895DB018F939F930E941115BF91AF916D
:102E4000A29F800D911DA39F900DB29F900D112404
:102E50000895991B79E004C0991F961708F0961BF6
:102E6000881F7A95C9F78095089597FB072E16F469
:102E7000009407D077FD09D00E94491707FC05D0C0
:102E80003EF4909581959F4F0895709561957F4F81
:102E90000895AA1BBB1B51E107C0AA1FBB1FA617A1
:102EA000B70710F0A61BB70B881F991F5A95A9F7F3
:102EB00080959095BC01CD010895EE0FFF1F059000
:102EC000F491E02D099481E090E0F8940C94681757
:042ED000F894FFCFA4
:102ED4000100000000400000A842000030429A991E
:102EE400993F0100000000630CF0071C081B080D4B
:0A2EF4000A004C4F41444552000013
:00000001FF
