:100000000C942E020C9456020C9456020C94560238
:100010000C9456020C9456020C9456020C94560200
:100020000C9456020C9456020C9456020C946307DE
:100030000C9456020C9456020C9456020C945602E0
:100040000C94FD050C9456020C9456020C94560226
:100050000C9456020C9456020C9456020C945602C0
:100060000C9456020C9456020101FF030101F703A0
:100070004500680100006C006800000000002400DA
:1000800027002A0000000000250028002B000500A2
:1000900089300802380249786814000044692D6EDE
:1000A0006F2D636F6E6E656374696F6E0044692DAA
:1000B0006E6F2D636F6E6E656374696F6E00594F5E
:1000C00055204C4F53542100080B606060F0F0F055
:1000D000F0E0606060100F00F801FC01FC01FC0121
:1000E000F881C08FE0CFC0FFC07FC07F801F000FAE
:1000F0000019001900594F55204C4F535421000846
:1001000010181818199BDBDBDBDBFE7818181818A1
:100110001805003801680100001815001FE00037BD
:10012000F0003FF0003FF0003FF0003E00003FC015
:10013000803C0080FC00C3FF00E7FD00FFFC00FFE7
:10014000FC007FFC003FF8001FF0000FE00007609C
:100150000006200004200006300017534400161348
:100160007800161314001510200015201000540AF2
:1001700003E181867F3E186D830F0F0E0183866039
:1001800033186DC3198F1803C38E6033186DE330B5
:10019000CF1803C39E603630CDE360CF3006C79ED4
:1001A0007E3E30CDB360CF300CC6F6603330D9B66A
:1001B00060CF33CFCCF66061B0DB1E60CF30D86C3F
:1001C000E6C061B0DB1E618F19986CC6C063B19B3D
:1001D0000E330F0FB078C6FF7E1F1B061E0FF6E80A
:1001E000DBCFC3B8AEA49B928A827B746E68625CDC
:1001F00057524E4945413E3A3734312E2C29272556
:1002000023210A0A153A49676E6F7265006D560A16
:100210000A504C45415345205455524E204F4646B6
:1002200020004C4F57204241545445525921200040
:1002300003053F213F1208120A100A0E1C0E0C1E65
:100240000C141A14161F161E131E1E1B1E1E1F1E14
:100250003F213F3A2F3A173D173F213F181F020415
:100260000A041F0E04040E1F0A1F0A0E0E1F04119B
:100270000E2E252E2F2A2E262929021F02081F089E
:10028000150E04040E150E15151B151B040604048B
:100290000C040000000017000300031F0A1F16379C
:1002A0001A1904130A153A000300000E11110E006A
:1002B0000A040A040E0400300004040400100018AC
:1002C00004031F111F121F101D151711151F0704FE
:1002D0001F17151D1F151D01011F1F151F17151FA6
:1002E000000A00003200040A110A0A0A110A040175
:1002F00015020E11171E051E1F150A0E110A1F11D9
:100300000E1F15111F05010E111D1F041F111F11B6
:1003100008100F1F041B1F10101F061F1E040F0EB6
:10032000110E1F09060E112E1F051A121509011FA5
:10033000011F101F0F180F1F0C1F1B041B031C0392
:10034000191513001F11030418111F0002010220C8
:1003500020200001020C121E1F120C0C12120C1293
:100360001F0C1A14041E05242A1E1F021C141D1023
:1003700020201D1F0814111F101E041E1E021C0C1D
:10038000120C3E0A040C123E1E040214160A020F3E
:10039000120E101E0E100E1E081E120C1226281E03
:1003A000322A26041E21001F00211E040102013FE3
:1003B000213F172B152010204C4F41444552001768
:1003C0002B16201314000A4E6F20534420636172D1
:1003D00064206F720A6E6F204C4F414445522E4884
:1003E00045580A0A153A45786974001D20466C6123
:1003F0007368696E670A20206C6F616465722E2EC7
:100400002E0A0A444F4E2754205455524E204F4630
:1004100046210000000000230026002900040404F7
:10042000040404040402020202020203030303039D
:10043000030102040810204080010204081020017A
:10044000020408102000000008000201000003045C
:1004500007000000000000000000A51511241FBEC9
:10046000CFEFD8E0DEBFCDBF11E0A0E0B1E0E0E526
:10047000F0E302C005900D92A831B107D9F723E04F
:10048000A8E1B1E001C01D92AB3CB207E1F712E078
:10049000CEE2D2E004C02197FE010E941B18CD32AB
:1004A000D107C9F70E942C110C9426180C94000057
:1004B000CF92DF92EF92FF920F931F93CF93DF9330
:1004C0006C017A018B01C0E0D0E0CE15DF0589F028
:1004D000D8016D918D01D601ED91FC910190F081D3
:1004E000E02DC6010995892B11F47E0102C02196E9
:1004F000ECCFC701DF91CF911F910F91FF90EF904B
:10050000DF90CF90089580913B01882319F080916E
:100510003C0101C080E08093B40008954F925F9247
:100520006F927F928F929F92AF92BF92CF92DF9203
:10053000EF92FF920F931F93CF93DF93F901C49033
:1005400031965491EC0108A164350CF018C10C2CC3
:10055000000CDD08A62F062E000CBB0B7D01EC0C59
:10056000FD1C1E141F040CF00AC140330CF007C11F
:10057000A52E842E042E000C9908F401E50FF11D20
:1005800057FDFA951E161F060CF0F9C02E5F3F4F5F
:10059000E6012796D7FD279673E0D595C7957A95FE
:1005A000E1F747FF0AC0A52EA40EC89DA001C99D72
:1005B000500D1124241B350B40E0EA2D0A2C000CB1
:1005C000FF0BE40FF11D47FDFA95F1971CF050E386
:1005D000A52EA41A67FD60E0F701E535F10514F0DA
:1005E000E4E5F0E07E2FFC01D484D426862F062E8D
:1005F000000C990BFC01EA1BFB0BDF017F01F7E00C
:10060000EF22FF24E0E8F0E002C0F595E795EA94D8
:10061000E2F71E2FB7FD179653E0B595A7955A95AB
:10062000E1F72A0F3B1FE42FE77051E001C0550F9F
:10063000EA95EAF7459545954595B4E54B02800D59
:10064000911D11248C5B9E4FC12C0A2C000CBB0801
:10065000992493942E015524EC2DF0E0EA15FB0526
:100660000CF08DC0F90144910130E1F47C01A12F1F
:10067000862E881AB82DBE0DB71708F077C0B42F94
:10068000BA2321F0E701B881B52BB883B0E0B59566
:10069000A795109719F431964491A0E8DFEFED1A71
:1006A000FD0AE8CF01111FC0752E70947C01A12FA7
:1006B000F901862E881AB82DBE0DB71708F056C05E
:1006C000B42FBA2321F0E701B881B721B883B0E095
:1006D000B595A795109719F431964491A0E8DFEFEE
:1006E000ED1AFD0AE8CF033031F07C01A12FF901AA
:1006F000862E881A37C0752E7094862E7C01A12F05
:10070000F9018716D8F4B42FBA2359F0E701B8815C
:10071000682C6D2460FE02C0B52B02C0B721E70132
:10072000B883B0E0B595A795109719F43196449128
:10073000A0E88394DFEFED1AFD0AE3CFD92416C0B9
:10074000B42FBA2321F0E701B881B527B883B0E010
:10075000B595A795109719F431964491A0E8DFEF6D
:10076000ED1AFD0AB82DBE0DB71750F3550F19F449
:100770008C5A9F4F51E0C394240D351D6DCFDF91EE
:10078000CF911F910F91FF90EF90DF90CF90BF908E
:10079000AF909F908F907F906F905F904F90089553
:1007A00080E090E0A8EAB2E48093290190932A01C6
:1007B000A0932B01B0932C0180E090E0A0E3B2E481
:1007C00080932D0190932E01A0932F01B0933001BF
:1007D00080E090E0A0E0B0E48093250190932601B2
:1007E000A0932701B0932801109235011092360191
:1007F000109237011092380181E090E0909322012D
:10080000809321018AE999E9A9E9BFE38093310145
:1008100090933201A0933301B093340110923A01C6
:100820001092390110922401109223010895089525
:1008300080E090E008950E942118FC0161110DC034
:10084000178A158A14A213A2108E10923C011092DE
:100850003D0110923B010C9483020895DC01ED915F
:10086000FC910190F081E02D09946115710579F0FA
:10087000FB0101900020E9F73197AF01461B570BB0
:10088000DC01ED91FC910280F381E02D099480E080
:1008900090E008954F925F926F927F92EF92FF9255
:1008A0000F931F93CF93DF93CDB7DEB7A1970FB60A
:1008B000F894DEBF0FBECDBF7C01FA01CB0119A2B7
:1008C000223008F42AE08E010F5D1F4F422E512C7A
:1008D000612C712CBF01A30192010E94DA15F9016C
:1008E000CA01015011096A3014F4605D01C0695CED
:1008F000D8016C93232B242B252B61F7B801C7015A
:100900000E943504A1960FB6F894DEBF0FBECDBF8E
:10091000DF91CF911F910F91FF90EF907F906F909B
:100920005F904F900895833081F028F4813099F0E2
:100930008230A1F008958730A9F08830B9F0843072
:10094000D1F4809180008F7D03C0809180008F77EB
:1009500080938000089584B58F7702C084B58F7D21
:1009600084BD08958091B0008F7703C08091B0005E
:100970008F7D8093B00008951F93CF93DF93282F2E
:1009800030E0F901EB5BFB4F8491F901EF5CFB4F29
:10099000D491F901E35EFB4FC491CC23C9F0162F2B
:1009A00081110E949304EC2FF0E0EE0FFF1FEC5733
:1009B000FF4FA591B4918FB7F894111105C09C9188
:1009C000ED2FE095E92302C0EC91ED2BEC938FBF66
:1009D000DF91CF911F910895CF93DF9390E0FC01B9
:1009E000EF5CFB4F2491FC01E35EFB4F8491882375
:1009F00061F190E0880F991FFC01E658FF4FC59107
:100A0000D491FC01EC57FF4FA591B491611109C03D
:100A10009FB7F8948881209582238883EC912E23B8
:100A20000BC0623061F49FB7F8943881822F8095B3
:100A300083238883EC912E2B2C939FBF06C08FB706
:100A4000F894E8812E2B28838FBFDF91CF910895F2
:100A50001F93CF93DF93182FEB0161E00E94EC040A
:100A6000209711F460E004C0CF3FD10539F461E074
:100A7000812FDF91CF911F910C94BC04E12FF0E006
:100A8000EB5BFB4FE491E330F9F048F4E130B9F06F
:100A9000E230A1F584B5806284BDC8BD34C0E730C2
:100AA000E9F0E83019F1E43049F580918000806286
:100AB00080938000D0938B00C0938A0024C084B5BB
:100AC000806884BDC7BD1FC080918000806880930E
:100AD0008000D0938900C093880015C08091B00039
:100AE00080688093B000C093B3000DC08091B000C7
:100AF00080628093B000C093B40005C0C038D105B7
:100B00000CF0B5CFAFCFDF91CF911F9108958E300C
:100B100008F08E508770806480937C0080917A000A
:100B2000806480937A0080917A0086FDFCCF80916A
:100B300078002091790090E0922B08953FB7F894C7
:100B400080911A0190911B01A0911C01B0911D018F
:100B500026B5A89B05C02F3F19F00196A11DB11D18
:100B60003FBFBA2FA92F982F8827820F911DA11D53
:100B7000B11DBC01CD0142E0660F771F881F991F90
:100B80004A95D1F708958F929F92AF92BF92CF92DC
:100B9000DF92EF92FF926B017C010E949E054B0158
:100BA0005C01C114D104E104F104F1F00E949E053E
:100BB000DC01CB0188199909AA09BB09883E934039
:100BC000A105B10570F321E0C21AD108E108F108CE
:100BD00088EE880E83E0981EA11CB11CC114D104BC
:100BE000E104F10419F7DDCFFF90EF90DF90CF9093
:100BF000BF90AF909F908F9008951F920F920FB665
:100C00000F9211242F933F938F939F93AF93BF9392
:100C10008091400190914101A0914201B091430126
:100C20003091190123E0230F2D3720F40196A11DE7
:100C3000B11D05C026E8230F0296A11DB11D20930A
:100C400019018093400190934101A0934201B09318
:100C5000430180911A0190911B01A0911C01B09158
:100C60001D010196A11DB11D80931A0190931B01D6
:100C7000A0931C01B0931D01BF91AF919F918F91E3
:100C80003F912F910F900FBE0F901F901895CF930B
:100C9000DF93EC011F8A1D8A1CA21BA2188E1092E2
:100CA0003C0110923D0110923B010E94830280E7BB
:100CB00090E09E878D871B8A1A8A81E0898389E06C
:100CC0008E8B198E1B8E1D8EDF91CF910895CF9242
:100CD000DF92EF92FF920F931F93CF93DF93EC017C
:100CE00081E080939A0310929903109298031092D6
:100CF0005C038093B2038093B3031CE00E94080955
:100D00008823E1F3FE018491882319F00091970371
:100D100001C000E02EE631E040E060E082E993E0CF
:100D20000E948E024CE0400F29E131E060E082E950
:100D300093E00E948E0210929B0310939C03CE01BD
:100D40000E94F00E80919603982F990F890F81953C
:100D50008D5A80939B0380919703982F990F890F49
:100D60008195835D80939C038091B50384FF03C0CC
:100D70008AE691E002C086E691E00E94110F809120
:100D80009603982F990F890F81958D5A80939B0315
:100D900080919C038F5F80939C0380916E038823D6
:100DA00019F082E691E002C08EE591E00E94110FF9
:100DB00090919603892F880F980F91959D5A909343
:100DC0009B0380919C038F5F80939C038AE591E055
:100DD0000E94110F80915A038130B1F480916E030B
:100DE0008F5F60916F0387FD09C0082E000C990B7F
:100DF00070E06F5F7F4F0E94F317682F60936E0360
:100E000089E693E00E944706809159038130B1F052
:100E10008091B403482F50E060E070E0C090B503CB
:100E2000D090B603E090B703F090B803C416D5068F
:100E3000E606F70608F43FC08F3FE9F18FEF809395
:100E4000B40360E089E693E00E941D0410926A03F7
:100E50001092800310927E0310928D0310928C03E7
:100E60001092810310923C0110923D0110923B01BF
:100E70000E94830281E191E090937703809376034F
:100E800010927C0310927B0381E080936A0399E0C7
:100E900090937F0310928203109284031092860332
:100EA00080935C03DF91CF911F910F91FF90EF90A2
:100EB000DF90CF90089580915B03813009F01ECFC1
:100EC0000E94210F1BCF1F920F920FB60F92112479
:100ED0002F933F934F935F936F937F938F939F9342
:100EE000AF93BF93EF93FF9360913D01662321F190
:100EF000809118018F5F8093180190913E018917AE
:100F0000D8F090913B0181E0892780933B011092BA
:100F1000180180913F01882369F08091000193E4DA
:100F2000899F802D1124895B809300010E94E7171F
:100F300090933C010E948302FF91EF91BF91AF918A
:100F40009F918F917F916F915F914F913F912F91E1
:100F50000F900FBE0F901F901895FC01643508F09C
:100F600053C0403308F050C090A1742F759575950B
:100F70007595262F062E000C330B542F5770923088
:100F8000A1F4F901EC5BFE4F84E57802E00DF11D60
:100F90001124808190E0052E02C0959587950A94D2
:100FA000E2F78095982F91700AC0933041F48485C0
:100FB0008170462740954170841303C014C091117D
:100FC00012C084E57802200D311D1124F901EC5B7B
:100FD000FE4F81E090E001C0880F5A95EAF78095B6
:100FE0009081892310C084E57802200D311D1124E1
:100FF000F901EC5BFE4F81E090E001C0880F5A954B
:10100000EAF79081892B80830895BF92CF92DF9277
:10101000EF92FF920F931F93CF93DF931F92CDB761
:10102000DEB77C01D62EC42E002E000C110B040F4F
:10103000111D47FD1A954C2D0C2C000C550B40171B
:1010400051077CF4B12CB21654F46B2D6D0D4C2D60
:10105000C70129830E94AD07B3942981F4CFC394BB
:10106000EACF0F90DF91CF911F910F91FF90EF90FA
:10107000DF90CF90BF9008956F927F928F929F9252
:10108000AF92BF92CF92DF92EF92FF920F931F9396
:10109000CF93DF93EC016A3019F42D819885A1C0BC
:1010A0006D3009F4A4C01885BA84D98488A083E57A
:1010B0008D150CF47FC08FE28B150CF47BC08C81F6
:1010C00090E00197189F9001199F300D1124C901DC
:1010D0008D0D911DD7FC9A95181619060CF06AC053
:1010E0008D81819FC00111248B0D911DB7FC9A95B4
:1010F000181619060CF05EC09D2CCD2CE62EF12C96
:10110000EC2DED190E2E000CFF0B8C8190E0E817F2
:10111000F9070CF04EC00197E817F90779F0E89E3F
:101120009001E99E300DF89E300D1124E20FF31F5F
:101130008E8D9F8DE80FF91F749001C0712C6B2C60
:10114000AB2C2A2D2B19022E000C330B8D8190E035
:10115000281739075CF570FE10C0113031F44A2DA4
:101160006C2DCE010E94AD071DC0012F212F462DF1
:10117000692DCE010E94050815C089A198A1891783
:1011800089F088A3113031F44A2D6C2DCE010E94D4
:10119000AD0707C0012F212F462D692DCE010E94DA
:1011A000050888A27694A394610ECBCFC394910EC8
:1011B000A7CF88A228853C818985329F800D112484
:1011C00089879F81992399F0082E000C990B44E59B
:1011D00050E0239F401951091124481759073CF446
:1011E0009D818A85299F800D11248A87198681E037
:1011F00090E0DF91CF911F910F91FF90EF90DF90E2
:10120000CF90BF90AF909F908F907F906F900895F8
:101210004F925F926F927F928F929F92AF92BF9206
:10122000CF92DF92EF92FF920F931F93CF93DF93B2
:1012300000D000D01F92CDB7DEB74091C4035091CB
:10124000C5036091C6037091C7032FB7F8948091CE
:10125000400190914101A0914201B09143012FBF03
:10126000481B590B6A0B7B0B8091C30390E0A0E0F5
:10127000B0E00091BF031091C0032091C1033091F1
:10128000C20384179507A607B70730F401151105A7
:101290002105310509F036C3012B022B032B09F080
:1012A0002FC380915B0381508E3F18F580915A03C4
:1012B000813021F580916E038F5F60916F0387FD10
:1012C00009C0082E000C990B70E06F5F7F4F0E94E1
:1012D000F317682F60936E038FEB93E09093C9032D
:1012E0008093C80388E48093CA0389E693E00E9450
:1012F000470680915B0381508E3F70F480915903C3
:10130000813009F0ABC382EB93E09093C9038093E3
:10131000C80388E48093CA0380E00E94560F80913E
:101320006A03882309F4ADC080917E038111A9C0AE
:101330008091760390917703E0917B03F0917C0399
:10134000EE0FFF1FE80FF91F45915491411551050C
:1013500001F520917A03222331F010927C03109240
:101360007B03FC0114C010926A03809169038823F7
:1013700041F080E00E94560FE0917B03F0917C03E6
:101380002FC060E089E693E00E941D047AC0459179
:1013900054919A01369527953695279540FF51C06F
:1013A000CA0116E0969587951A95E1F78F71952FEA
:1013B00096959695969590512F70223071F1F8F48C
:1013C000211117C08B3008F08AE080937F03E091F1
:1013D0007B03F0917C033196F0937C03E0937B03D5
:1013E000EE0FFF1F8091760390917703E80FF91FAE
:1013F000CECF213061F760E00E94C30FE8CF2330E9
:10140000B1F0243021F720916D03829F802D1124AB
:101410008093860390938703DACF20916D03829F98
:10142000802D11248093820390938303D0CF209149
:101430006D03829F802D11248093840390938503F4
:10144000C6CF2F7320937D0380916D03859F802DE0
:10145000112480937E0310928E0310928D031092BC
:101460008C0381E08093800380933B011092810381
:1014700080917B0390917C03019690937C038093F1
:101480007B0380918003882309F4F3C080917E035D
:10149000811106C060E089E693E00E941D04E9C066
:1014A000815080937E0380918E03811148C02091EA
:1014B0008C0330918D032F5F3F4FC901880F991F17
:1014C000E0918803F0918903E80FF91F6591749109
:1014D000862F877080938F03AB01E3E05695479585
:1014E000EA95E1F7CA0196958795972F9695969577
:1014F000909390038F7390916D03899F802D112499
:1015000080938E03417040933F0130938D0320936D
:101510008C0380918A0390E02817390780F020918E
:101520008B03222339F0821B910990938D038093C2
:101530008C0305C060E089E693E00E941D04809161
:101540008E03815080938E038091810321E0280FC8
:101550002093810340917D0330919003340F80915B
:101560007503380F30936B0360918403662371F029
:1015700070E0822F022E000C990B0E94F3178091CD
:101580008503869F300D112430936B0380916B038C
:1015900090E0849664E270E00E94F31780936B03FE
:1015A00030917F0330936C0360918203662381F056
:1015B000062E000C770B822F022E000C990B0E9436
:1015C000F31780918303869F300D112430936C03B1
:1015D000609186036623A1F0822F220F990B70E0A1
:1015E0000E94F317CB0162E070E00E94F317209194
:1015F000870390916C03289F900D112490936C03A6
:1016000080916C034F3341F08A300CF089E087FD04
:1016100080E080936C0302C010926C03F894E09118
:101620006B03F0E0E252FE4FE491E0933E01309113
:101630006C032091910332039001112440918F0398
:101640004203C001439F900D112400906E0302C01D
:10165000880F991F0A94E2F797FF02C081589F4FA5
:10166000880F892F881F990B80933D0180933C013F
:1016700078948091CA03882309F48DC08C3020F4BB
:101680009CE0E92EE81A01C0E12CFF24F394F092CB
:101690009A031092B2031092B303309197034DE274
:1016A000D42E1D2D131B1E0D03E0030F2EE4412F1E
:1016B00063E082E993E03D830E9405083D810CEFE1
:1016C000030F1D5F202F41E0612F80E50E949410E1
:1016D000202F42E0612F83E00E949410F092B20329
:1016E000F092B3030091970313E0100FD01ADE0CB1
:1016F00023E04D2D622F82E993E02D830E94AD07F8
:101700002D812F5F2135A9F71D0DFF24FA94F10ECD
:1017100023E04F2D622F82E993E02D830E94AD07D5
:101720002D812F5F2135A9F7035033E0D30E402FD1
:101730006D2D80E00E947C10402F6D2D83E50E946E
:101740007C1041E06D2D83E00E94FE0F42E06D2D84
:1017500080E50E94FE0F145044E0612F80E50E9456
:10176000FE0F48E0612F83E00E94FE0F84E080932B
:101770009B0380919703E81A8E2D815D80939C03D3
:101780008091C8039091C9030E94F00E8091CA0312
:1017900081508093CA038091600390916103892BEB
:1017A00009F486C011E01093B2031092B303909134
:1017B000960385E5891B80939B0310929C0360919F
:1017C0005D03613009F455C030F080915C036530F1
:1017D00008F067C062C060E089E693E00E941D04E3
:1017E00010926A0310939A03E0E3F2E0E491EF5F52
:1017F000E0939603E1E3F2E0E491EF5FE093970377
:1018000082E392E09093B1038093B003109261035E
:10181000109260031092980318EA0E940809882326
:10182000E1F382E292E00E94F00E40915E0350915B
:101830005F0360E070E02AE082E993E00E944A04DE
:101840008DE092E00E94F00E412F42954F7050E0E3
:1018500060E070E02AE082E993E00E944A0482E0BE
:1018600092E00E94F00E80915903813009F0FCC093
:101870001FC08091B5039091B603A091B703B091BA
:10188000B8038F709927AA27BB270897A105B10530
:1018900010F467E009C068E707C0882349F06B5F70
:1018A00003C0882329F06FE282E993E00E942E04AE
:1018B0000E94B00E8091980381110EC088EF91E0D4
:1018C000E4E4F1E0DF019C011D9221503040E1F79A
:1018D00010929B0310929C030E949E056093BF038D
:1018E0007093C0038093C1039093C2032091BB0304
:1018F0003091BC03621B730B7093BA036093B903FE
:1019000080E0CCC02FB7F8948091400190914101C4
:10191000A0914201B09143012FBF2091C303820FD8
:10192000911DA11DB11D8093C4039093C503A09385
:10193000C603B093C7038091B5039091B603A091FD
:10194000B703B091B8030196A11DB11D8093B503F3
:101950009093B603A093B703B093B8031092BF035C
:101960001092C0031092C1031092C2030E949E0500
:101970006093BB037093BC038093BD039093BE033D
:1019800080914503909146032FE0289F8001299F75
:10199000100D112485E10E948705800F911F24E01E
:1019A000969587952A95E1F7909346038093450392
:1019B00020914403222309F44BC060914803262F51
:1019C00030E040E050E029833A834B835C83C09051
:1019D0004903D12CE12CF12C40914C0350914D0343
:1019E0004A01A12CB12C20914A0330914B032901CB
:1019F000612C712C8217930728F09C014817590716
:101A000008F49A01C901A0E0B0E09C01AD012419DD
:101A100035094609570969817A818B819C816C1946
:101A20007D098E099F090E94D717A50194012419E9
:101A30003509460957090E94B015C20ED31EE41E8F
:101A4000F51EC09247036C2D70E085E00E942805CA
:101A50000E943D0E0E94EF1081E020C0893209F003
:101A60005BCC0E94210F58CC115009F0D6CE60E01B
:101A700070E085E00E94280583B7817F846083BF82
:101A800083B7816083BF83B7816083BF889583B745
:101A90008E7F83BF83B78E7F83BFBFCE0F900F90A3
:101AA0000F900F900F90DF91CF911F910F91FF90AA
:101AB000EF90DF90CF90BF90AF909F908F907F90EE
:101AC0006F905F904F9008956F927F928F929F9248
:101AD000AF92BF92CF92DF92EF92FF920F931F933C
:101AE000CF93DF93FB01E490F12C31960491F9013F
:101AF000B4913196A4914701F4E08F0E911C4815E2
:101B00005905A4F46A01CB0ED11CE5E0CE16D10430
:101B10006CF010E05C01A00EB11EFDE1AF16B10447
:101B20002CF0B0E05C968A179B0714F080E096C01A
:101B3000453051050CF48FC03A01E4E06E1A71088B
:101B40008C3191052CF4CCE1D0E0C81BD90B02C03C
:101B5000C0E0D0E08C149D0424F07601F4E0EF1A8C
:101B6000F108AA16BB061CF08D01081B190BA0E892
:101B7000B0E094E0792E741A94EE892E880ECC2E63
:101B8000D12CC016D10694F6D62DA82CAC0EB12CB3
:101B90008D2F90E08E159F050CF059C0FB014491EC
:101BA000FC0153E0F595E7955A95E1F7329650E040
:101BB000495F5F4F83E0559547958A95E1F7C49E4D
:101BC000C001C59E900DD49E900D1124E80FF91F01
:101BD000E60FF71FE491F0E08D2F8770AD0102C092
:101BE000559547958A95E2F7E423F523EF2B69F1A4
:101BF000F9014491972C9D0EE92DF0E083E0F595D5
:101C0000E7958A95E1F7329650E0495F5F4F93E0A0
:101C1000559547959A95E1F7A49EC001A59E900D14
:101C2000B49E900D1124E80FF91FE20FF31FE49109
:101C3000F0E0892D8770AD0102C0559547958A95D2
:101C4000E2F7E423F523EF2B21F4DF5FA1CFCF5F91
:101C500096CF81E003C0612C712C72CFDF91CF91C0
:101C60001F910F91FF90EF90DF90CF90BF90AF90BA
:101C70009F908F907F906F900895CF92DF92EF9218
:101C8000FF920F931F93CF93DF93CEE4D3E005E54C
:101C900013E0FF24FA9497E0E92EE00E62E08881D9
:101CA0000E94EC04288130E0F901EB5BFB4F84914A
:101CB000F901EF5CFB4FC490F901E35EFB4FD49058
:101CC000DD2071F081110E949304ED2DF0E0EE0F04
:101CD000FF1FED5EFB4FA591B491EC91EC21B1F4A7
:101CE000F80180818F5F808360E088810E94EC042E
:101CF00021960F5F1F4FE012D1CFDF91CF911F913F
:101D00000F91FF90EF90DF90CF900895F8018081C0
:101D1000882371F3F8018F3F11F41082E5CFF08230
:101D2000E3CFCF93C82FF89460E08091A1030E9485
:101D3000BC048091A20318161CF460E00E94BC044D
:101D4000CEBD00000DB407FEFDCF8EB58091A2037D
:101D500018161CF461E00E94BC047894CF91089599
:101D60000F931F93CF9380919E038F5F80939E0369
:101D700004E411E0C0E08C2F80640E94910E80E8A2
:101D80000E94910E61E08091A1030E94BC048091A9
:101D9000A20318161CF460E00E94BC0480E090E0EE
:101DA000F801E80FF91F20812EBD00000DB407FED9
:101DB000FDCF2EB501968435910591F78091A20350
:101DC00018161CF461E00E94BC04CF5F0C5A1F4F30
:101DD000C63089F680E4CF911F910F910C94910E3B
:101DE0000F931F93CF93DF938C01C0E0D0E0F801F5
:101DF000EC0FFD1F6491662371F0E0919203F09166
:101E000093030190F081E02D82E993E00995892BFD
:101E100011F02196ECCFCE01DF91CF911F910F9160
:101E20000895CF93DF930E94F00EEC016DE071E016
:101E300082E993E00E9435048C0F9D1FDF91CF91C2
:101E4000089588EF91E0E4E4F1E0DF019C011D9248
:101E500021503040E1F710929B0310929C038BEECF
:101E600093E00E94F00E0E94B00E8CB583608CBD92
:101E70008DB58E7F8DBD80E191E0EEEFFFE309959A
:101E80001092980386EC93E00E94110F0E94B00E0E
:101E90000E943D0E80915903813039F062E370E079
:101EA00080E090E00E94C305F3CF0895AF92BF9207
:101EB000CF92DF92EF92FF920F931F93CF93DF9316
:101EC000C82ED12CE601CC5BDC4F9DA1992309F4EF
:101ED0004FC07E019FEFE91AF90AF70195A1911110
:101EE00047C09EA58601000F111F0C5B1C4FF80117
:101EF00034A525A5E32FF22FE90FF11DE90FF11D00
:101F0000259134912F3FFFEF3F0711F41DA230C000
:101F100039ABF601EE0FFF1FE25BFC4F3327220FB8
:101F2000331F05A0F6A1E02DE20FF31FA590B4909A
:101F300081111AC060E089E693E00E941D04F80157
:101F4000B3AAA2AAF601EE0FFF1FEA5AFC4F16A28F
:101F500015A281E0F70185A389E08BAF1EAEFE01DB
:101F60007B9615A2329615A229968DA18F5F8DA31F
:101F7000DF91CF911F910F91FF90EF90DF90CF9065
:101F8000BF90AF90089570E0DB01AA0FBB1FAC5B60
:101F9000BC4FD4962C91D497D5969C91D597E22F8F
:101FA000F92FE80FF11DE80FF11D259134915F968F
:101FB00096963C932E939597F901859194919091E3
:101FC0006D03989F802D11246C5B7C4FFB01B196B3
:101FD00085A3F901A591B4914B2F50E0E82FF0E0D3
:101FE0004E175F0720F4F90125913491832FFB01EF
:101FF000B296899F802D112485A30895AF92BF9238
:10200000CF92DF92EF92FF920F931F93CF93DF93C4
:10201000182F062FC1E0D3E08AEFD82E9EEFE92ECD
:10202000842F8470C82E842F8270B82E842F8870DD
:10203000A82E4170F42E8C2F880F8F5FE80ECC20D5
:1020400081F04D2F400F6C2F610F82E993E00E94C9
:10205000AD074C2F400F6D2F610F82E993E00E9476
:10206000AD07BB2081F0402F4D1B6C2F610F82E923
:1020700093E00E94AD07402F4C1B6D2F610F82E94A
:1020800093E00E94AD07AA2081F04C2F400F612FF2
:102090006D1B82E993E00E94AD074D2F400F612F29
:1020A0006C1B82E993E00E94AD07FF2081F0402F76
:1020B0004C1B612F6D1B82E993E00E94AD07402FFE
:1020C0004D1B612F6C1B82E993E00E94AD07CD1779
:1020D00044F4E7FC04C0D150D394D394ED0CCF5F0B
:1020E000AACFDF91CF911F910F91FF90EF90DF90DA
:1020F000CF90BF90AF9008950F931F93CF93DF932E
:10210000182F062FD42FC0E0CD174CF44C2F400FC2
:10211000612F82E993E00E94AD07CF5FF5CFDF9199
:10212000CF911F910F9108959F92AF92BF92CF923E
:10213000DF92EF92FF920F931F93CF93DF93F82ECE
:10214000E62EB22E03E0020FD0E0C3E08AEFC82EE5
:102150001EEF842F8170982EAA24A394A20E4270A1
:10216000D42EDF5F802F8B19180F992081F04C2F10
:10217000440F4A0D6E2D6C1B8D2F8F0D0E947C100D
:10218000402F6E2D6D1B8C2F8F0D0E947C10DD203B
:1021900081F04C2F440F4A0D6E2D6C1B8F2D8D1B23
:1021A0000E947C10402F6E2D6D1B8F2D8C1B0E946A
:1021B0007C10DC1744F417FD04C0C150C394C394D1
:1021C0001C0D0E5FCECFDF91CF911F910F91FF902D
:1021D000EF90DF90CF90BF90AF909F900895809147
:1021E000600390916103892BB1F1809168038F7135
:1021F00069F584E10E948705BC01990F880B990B52
:102200000E94B51626EE3FE34EEC50E40E946A179A
:102210000E9484169B0170935F0360935E03672B9B
:1022200091F084E080935D03E0E6F3E080E041918B
:1022300051912417350718F480935D0308958F5F3B
:102240008430A9F703C08FEF80935D03809168030A
:102250008F5F809368030895789484B5826084BD0D
:1022600084B5816084BD85B5826085BD85B581609A
:1022700085BD80916E00816080936E001092810018
:1022800080918100826080938100809181008160D3
:102290008093810080918000816080938000809194
:1022A000B10084608093B1008091B0008160809320
:1022B000B00080917A00846080937A0080917A00E7
:1022C000826080937A0080917A00816080937A00A6
:1022D00080917A00806880937A001092C1000E94F9
:1022E000D00382E38093C30381E090E0A0E0B0E0FC
:1022F0008093BF039093C003A093C103B093C20324
:102300008FEF8093B403E0E8F7E725913491213013
:10231000304C09F049C0E6E9F7E7E491E0939D030A
:10232000E7E9F7E7E491E0934803E8E9F7E7E491A8
:10233000E0934903E9E9F7E78591949190934B0382
:1023400080934A03EBE9F7E78591949190934D03CD
:1023500080934C0387E080936F03EEE9F7E7E49105
:10236000E0936E03EFE9F7E7E491E093B403E0EA6A
:10237000F7E7859194919093610380936003E2EA7B
:10238000F7E7859194919093630380936203E4EA65
:10239000F7E7859194919093650380936403E6EA4F
:1023A000F7E7859194912CC09CE390939D03109244
:1023B00048038093490380E293E090934B0380931A
:1023C0004A0384ED93E090934D0380934C0387E0A0
:1023D00080936F0380936E038CEA9DE0909361037A
:1023E000809360038EED9DE090936303809362037E
:1023F00084E79EE090936503809364038CE39FE001
:102400009093670380936603C1E0C09344036FEF2A
:1024100070E085E00E94280588E080934E0389E003
:1024200080934F0387E08093500386E080935103AD
:10243000D4E0D093520382E08093530381E18093F0
:1024400054030E943D0E8CE39FE090935F038093C2
:102450005E03D0935D03C09368038BE08093A00379
:102460008DE080939F0380E18093A1038EE08093B1
:10247000A3038FE08093A203C0939A03C093B20397
:102480001092B303C0939903E0E3F2E0E491EF5FAD
:10249000E0939603E1E3F2E0E491EF5FE0939703CA
:1024A00082E392E09093B1038093B003CFB7F894A6
:1024B00080911E01811127C0E7E2F4E08491EBE3F3
:1024C000F4E09491E82FF0E0EE0FFF1FE658FF4F85
:1024D000A591B491EC91E92321F461E08AE00E9496
:1024E000BC0461E08AE00E94EC048CB580618CBD84
:1024F0008CB580648CBD61E08DE00E94EC0461E0ED
:102500008BE00E94EC0480911E018F5F80931E017E
:10251000CFBF8CB58F7D8CBD8CB58C7F81608CBD21
:102520008DB581608DBD8CB58C608CBD61E0809176
:10253000A0030E94EC0461E080919F030E94EC04E0
:1025400061E08091A1030E94EC048091A30318161E
:102550001CF461E00E94EC048091A20318161CF4A4
:1025600061E00E94EC048091A303181674F460E00B
:102570000E94BC046AE070E080E090E00E94C30525
:1025800061E08091A3030E94BC0480919F03082E08
:10259000000C990BFC01E35EFB4FE491F0E0EE0FC1
:1025A000FF1FEC57FF4F259134913093A7032093E1
:1025B000A603FC01EF5CFB4FE491E093AD03809137
:1025C000A003082E000C990BFC01E35EFB4FE49185
:1025D000F0E0EE0FFF1FEC57FF4F25913491309341
:1025E000A5032093A403FC01EF5CFB4FE491E0936F
:1025F000AC038091A203082E000C990BFC01E35E52
:10260000FB4FE491F0E0EE0FFF1FEC57FF4F2591D9
:1026100034913093A9032093A803FC01EF5CFB4F96
:10262000E491E093AE038091A103082E000C990B76
:10263000FC01E35EFB4FE491F0E0EE0FFF1FEC576F
:10264000FF4F259134913093AB032093AA03FC01F3
:10265000EF5CFB4FE491E093AF0381E20E94910EA7
:1026600084E10E94910E80919D0387FF03C08FE754
:1026700080939D0380919D0380680E94910E80E26B
:102680000E94910E8CE00E94910E0E94B00EC1E05B
:10269000C0936D0384E08093910386E790E090936C
:1026A00079038093780360E080E00E94C30F61E0CB
:1026B00070E083E00E9428058091B100887F8160EE
:1026C0008093B100F89410928000109281001092D3
:1026D00085001092840088E191E0909389008093B6
:1026E00088008091810088608093810080918100C2
:1026F00081608093810080916F00826080936F0081
:1027000078940E94EF1080915A03813019F410924E
:102710006E031EC080915D038823C9F360E089E6E3
:1027200093E00E941D048EE890E0909377038093DD
:10273000760310927C0310927B03C0936A0389E0B6
:1027400080937F0310928203109284031092860379
:102750008091B403882321F08CE990E00E94670601
:10276000C1E0D0E08EEB282E80E0382E05EF10E09F
:10277000412C512C98EA692E92E4792E0E94080986
:10278000882309F4D0C18091390190913A01892BB5
:1027900009F005C12091310130913201409133019E
:1027A000509134016091350170913601809137016B
:1027B000909138010E940C16609335017093360198
:1027C000809337019093380120912D0130912E0193
:1027D00040912F01509130010E940C164B015C0179
:1027E00060932D0170932E0180932F0190933001FF
:1027F0002091250130912601409127015091280117
:102800006091290170912A0180912B0190912C01F6
:102810000E940B166B017C016093290170932A01C1
:1028200080932B0190932C0120E030E040E151ECAB
:102830000E94781687FD0AC020E030E048EA52E4A2
:10284000C701B6010E94651718168CF48091230108
:10285000909124010196909324018093230140924A
:10286000290150922A0160922B0170922C0120E0E4
:1028700030E040E352E4C501B4010E946517181628
:10288000C4F480E090E0A0E3B2E480932D01909343
:102890002E01A0932F01B0933001109235011092B8
:1028A00036011092370110923801D0932201C09363
:1028B0002101E0901F01F0902001E114F104A9F53D
:1028C0006091290170912A0180912B0190912C0136
:1028D0000E947D166B017C0120E030E048EA51E463
:1028E00060912D0170912E0180912F019091300106
:1028F0000E940B160E947D16DC01CB012FEF30E009
:10290000A60169E171E00E94640D882309F447C0C3
:1029100089E693E00E944706D0933A01C0933901BB
:102920001093C9030093C80337C091E0E916F1047E
:10293000B1F56091290170912A0180912B0190914C
:102940002C010E947D164B015C0120E030E048EA3A
:1029500051E460912D0170912E0180912F01909191
:1029600030010E940B160E947D16DC01CB0128EC81
:1029700030E0A40165ED70E00E94640D882379F0D9
:1029800089E693E00E944706F0923A01E09239010D
:102990003092C9032092C80384ED8093CA038091CA
:1029A0005A038D7F813049F58091390190913A0128
:1029B000019719F40E94D00320C0809121019091C9
:1029C00022010197D1F4109222011092210120E0FE
:1029D00030E040E351E4609135017091360180911F
:1029E0003701909138010E940B1660933501709366
:1029F00036018093370190933801809156038130DE
:102A000009F499C080915803813009F499C08091EC
:102A10005B03813041F48091B403882321F08DEA77
:102A200090E00E94670680911F019091200100971D
:102A300029F520E030E048EA51E460912D017091E1
:102A40002E0180912F01909130010E940B160E945F
:102A50007D16462F29E131E064E082E993E00E948F
:102A60008E026091290170912A0180912B01909131
:102A70002C010E947D162FEF30E026C0019749F50A
:102A800020E030E048EA51E460912D0170912E0180
:102A900080912F01909130010E940B160E947D16AB
:102AA000462F25ED30E064E082E993E00E948E023B
:102AB0006091290170912A0180912B0190912C0144
:102AC0000E947D1628EC30E04CE182E993E00E9400
:102AD0008E02F12C48E26F2D82E993E00E94AD074F
:102AE000F39495E5F912F6CFC0902301D09024011C
:102AF0000D2C000CEE08FF08F7FE0EC06DE282E917
:102B000093E00E942E0444275527BA014C195D0911
:102B10006E097F092AE003C02AE0B701A60182E915
:102B200093E00E944A0480E090E0892B09F426CECD
:102B30000E94000023CED0932001C0931F0162CFDA
:102B40001092200110921F0162CF109295031092F3
:102B5000940385E091E0909393038093920308950A
:102B6000052E97FB1EF400940E94C71557FD07D051
:102B70000E94DA1507FC03D04EF40C94C71550954B
:102B80004095309521953F4F4F4F5F4F0895909559
:102B90008095709561957F4F8F4F9F4F08950E944C
:102BA000FC15A59F900DB49F900DA49F800D911DC5
:102BB00011240895A1E21A2EAA1BBB1BFD010DC012
:102BC000AA1FBB1FEE1FFF1FA217B307E407F507DD
:102BD00020F0A21BB30BE40BF50B661F771F881FB9
:102BE000991F1A9469F760957095809590959B014F
:102BF000AC01BD01CF010895A29FB001B39FC001F8
:102C0000A39F700D811D1124911DB29F700D811D18
:102C10001124911D08955058BB27AA270E942316FE
:102C20000C942B170E941D1738F00E94241720F0D7
:102C300039F49F3F19F426F40C941A170EF4E0951A
:102C4000E7FB0C941417E92F0E943C1758F3BA17AE
:102C5000620773078407950720F079F4A6F50C94B2
:102C60005E170EF4E0950B2EBA2FA02D0B01B901C3
:102C700090010C01CA01A0011124FF27591B99F0F2
:102C8000593F50F4503E68F11A16F040A22F232FFE
:102C9000342F4427585FF3CF469537952795A7954E
:102CA000F0405395C9F77EF41F16BA0B620B730BF5
:102CB000840BBAF09150A1F0FF0FBB1F661F771F66
:102CC000881FC2F70EC0BA0F621F731F841F48F41B
:102CD000879577956795B795F7959E3F08F0B0CFA4
:102CE0009395880F08F09927EE0F9795879508958B
:102CF0000E94F01608F481E008950E9484166894FA
:102D0000B1110C945F1708950E94441788F09F57E3
:102D100098F0B92F9927B751B0F0E1F0660F771FFF
:102D2000881F991F1AF0BA95C9F714C0B13091F0F5
:102D30000E945E17B1E008950C945E17672F782FFC
:102D40008827B85F39F0B93FCCF3869577956795BA
:102D5000B395D9F73EF490958095709561957F4F26
:102D60008F4F9F4F0895E89409C097FB3EF49095CC
:102D70008095709561957F4F8F4F9F4F9923A9F054
:102D8000F92F96E9BB279395F695879577956795E3
:102D9000B795F111F8CFFAF4BB0F11F460FF1BC027
:102DA0006F5F7F4F8F4F9F4F16C0882311F096E9BA
:102DB00011C0772321F09EE8872F762F05C0662368
:102DC00071F096E8862F70E060E02AF09A95660F21
:102DD000771F881FDAF7880F9695879597F90895DA
:102DE000990F0008550FAA0BE0E8FEEF161617061C
:102DF000E807F907C0F012161306E407F50798F084
:102E0000621B730B840B950B39F40A2661F0232B9C
:102E1000242B252B21F408950A2609F4A140A69518
:102E20008FEF811D811D089597F99F6780E870E0FD
:102E300060E008959FEF80EC089500240A94161630
:102E4000170618060906089500240A941216130698
:102E5000140605060895092E0394000C11F4882326
:102E600052F0BB0F40F4BF2B11F460FF04C06F5F42
:102E70007F4F8F4F9F4F089557FD9058440F551F18
:102E800059F05F3F71F04795880F97FB991F61F0EC
:102E90009F3F79F087950895121613061406551F63
:102EA000F2CF4695F1DF08C0161617061806991FCF
:102EB000F1CF86957105610508940895E894BB27C4
:102EC00066277727CB0197F908950E94F01608F43A
:102ED0008FEF08950E947D170C942B170E941D17E9
:102EE00038F00E94241720F0952311F00C94141749
:102EF0000C941A1711240C945F170E943C1770F35E
:102F0000959FC1F3950F50E0551F629FF001729F8E
:102F1000BB27F00DB11D639FAA27F00DB11DAA1F9D
:102F2000649F6627B00DA11D661F829F2227B00DEA
:102F3000A11D621F739FB00DA11D621F839FA00D75
:102F4000611D221F749F3327A00D611D231F849FC5
:102F5000600D211D822F762F6A2F11249F5750401C
:102F60009AF0F1F088234AF0EE0FFF1FBB1F661F97
:102F7000771F881F91505040A9F79E3F510580F060
:102F80000C9414170C945F175F3FE4F3983ED4F34E
:102F9000869577956795B795F795E7959F5FC1F704
:102FA000FE2B880F911D9695879597F90895DB0163
:102FB0008F939F930E94CF15BF91AF91A29F800DD9
:102FC000911DA39F900DB29F900D11240895991B00
:102FD00079E004C0991F961708F0961B881F7A9510
:102FE000C9F78095089597FB072E16F4009407D033
:102FF00077FD09D00E94071807FC05D03EF4909594
:1030000081959F4F0895709561957F4F0895AA1BF4
:10301000BB1B51E107C0AA1FBB1FA617B70710F0C3
:10302000A61BB70B881F991F5A95A9F780959095F5
:10303000BC01CD010895EE0FFF1F0590F491E02D26
:10304000099481E090E0F8940C942618F894FFCF4E
:1030500001000000003C085802180417040D0A0083
:083060004C4F414445520000B1
:00000001FF
