:100000000C940D020C9435020C9435020C943502BC
:100010000C9435020C9435020C9435020C94350284
:100020000C9435020C9435020C9435020C94270480
:100030000C9435020C9435020C9435020C94350264
:100040000C94D2030C9435020C9435020C943502B6
:100050000C9435020C9435020C9435020C94350244
:100060000C9435020C9435020101FF030101F703E2
:100070006C00680000000000240027002A00000037
:100080000000250028002B000500893008023802F6
:1000900049786814000044692D6E6F2D636F6E6E91
:1000A000656374696F6E0044692D6E6F2D636F6EAA
:1000B0006E656374696F6E000810181818199BDB61
:1000C000DBDBDBFE7818181818180500380168010A
:1000D00000001815001FE00037F0003FF0003FF06F
:1000E000003FF0003E00003FC0803C0080FC00C3A9
:1000F000FF00E7FD00FFFC00FFFC007FFC003FF875
:10010000001FF0000FE00007600006200004200040
:100110000630001753440016137800161314001508
:1001200010200015201000540A03E181867F3E183C
:100130006D830F0F0E0183866033186DC3198F18FE
:1001400003C38E6033186DE330CF1803C39E60364F
:1001500030CDE360CF3006C79E7E3E30CDB360CF5A
:10016000300CC6F6603330D9B660CF33CFCCF660F2
:1001700061B0DB1E60CF30D86CE6C061B0DB1E61C1
:100180008F19986CC6C063B19B0E330F0FB078C641
:10019000FF7E1F1B061E0F450068010000F6E8DB0E
:1001A000CFC3B8AEA49B928A827B746E68625C57A0
:1001B000524E4945413E3A3734312E2C29272523CA
:1001C000210A0A153A49676E6F7265006D560A0A70
:1001D000504C45415345205455524E204F464620E1
:1001E000004C4F572042415454455259212000039E
:1001F000053F213F1208120A100A0E1C0E0C1E0C9D
:10020000141A14161F161E131E1E1B1E1E1F1E3F21
:10021000213F3A2F3A173D173F213F181F02040A8A
:10022000041F0E04040E1F0A1F0A0E0E1F04110ED7
:100230002E252E2F2A2E262929021F02081F0815D7
:100240000E04040E150E15151B151B040604040CD4
:10025000040000000017000300031F0A1F16371ACE
:100260001904130A153A000300000E11110E000ABA
:10027000040A040E040030000404040010001804F2
:10028000031F111F121F101D151711151F07041F23
:1002900017151D1F151D01011F1F151F17151F0005
:1002A0000A00003200040A110A0A0A110A040115A0
:1002B000020E11171E051E1F150A0E110A1F110E20
:1002C0001F15111F05010E111D1F041F111F1108FD
:1002D000100F1F041B1F10101F061F1E040F0E11EE
:1002E0000E1F09060E112E1F051A121509011F01F6
:1002F0001F101F0F180F1F0C1F1B041B031C0319BB
:100300001513001F11030418111F00020102202001
:10031000200001020C121E1F120C0C12120C121FD4
:100320000C1A14041E05242A1E1F021C141D102062
:10033000201D1F0814111F101E041E1E021C0C126B
:100340000C3E0A040C123E1E040214160A020F127E
:100350000E101E0E100E1E081E120C1226281E3223
:100360002A26041E21001F00211E040102013F2134
:100370003F172B152010204C4F4144455200172B9E
:1003800016201314000A4E6F2053442063617264D8
:10039000206F720A6E6F204C4F414445522E4845E3
:1003A000580A0A153A45786974001D20466C617335
:1003B00068696E670A20206C6F616465722E2E2E4C
:1003C0000A0A444F4E2754205455524E204F464659
:1003D000210000000000230026002900040404047A
:1003E00004040404020202020202030303030303DF
:1003F00001020408102040800102040810200102BC
:100400000408102000000008000201000003040797
:100410000000000000000000F61211241FBECFEF04
:10042000D8E0DEBFCDBF11E0A0E0B1E0EEEAF9E236
:1004300002C005900D92AA31B107D9F723E0AAE1D5
:10044000B1E001C01D92A53BB207E1F712E0CDE09B
:10045000D2E004C02197FE010E94CA14CC30D1071B
:10046000C9F70E94F00F0C94D5140C940000CF92A1
:10047000DF92EF92FF920F931F93CF93DF936C0164
:100480007A018B01C0E0D0E0CE15DF0589F0D801FC
:100490006D918D01D601ED91FC910190F081E02DDF
:1004A000C6010995892B11F47E0102C02196ECCF7B
:1004B000C701DF91CF911F910F91FF90EF90DF90D7
:1004C000CF900895089580E090E008950E94D014A0
:1004D000833081F028F4813099F08230A1F00895C2
:1004E0008730A9F08830B9F08430D1F48091800051
:1004F0008F7D03C0809180008F7780938000089566
:1005000084B58F7702C084B58F7D84BD08958091B6
:10051000B0008F7703C08091B0008F7D8093B000D2
:1005200008951F93CF93DF93282F30E0F901EC5FFC
:10053000FB4F8491F901E051FC4FD491F901E45251
:10054000FC4FC491CC23C9F0162F81110E94680280
:10055000EC2FF0E0EE0FFF1FE258FF4FA591B49192
:100560008FB7F894111105C09C91ED2FE095E92308
:1005700002C0EC91ED2BEC938FBFDF91CF911F91D7
:100580000895CF93DF9390E0FC01E051FC4F24915C
:10059000FC01E452FC4F8491882361F190E0880FC4
:1005A000991FFC01EC58FF4FC591D491FC01E25812
:1005B000FF4FA591B491611109C09FB7F89488814C
:1005C000209582238883EC912E230BC0623061F446
:1005D0009FB7F8943881822F809583238883EC918C
:1005E0002E2B2C939FBF06C08FB7F894E8812E2B3B
:1005F00028838FBFDF91CF9108951F93CF93DF930F
:10060000182FEB0161E00E94C102209711F460E015
:1006100004C0CF3FD10539F461E0812FDF91CF9144
:100620001F910C949102E12FF0E0EC5FFB4FE491FD
:10063000E330F9F048F4E130B9F0E230A1F584B5E7
:10064000806284BDC8BD34C0E730E9F0E83019F1FC
:10065000E43049F580918000806280938000D093DF
:100660008B00C0938A0024C084B5806884BDC7BD58
:100670001FC080918000806880938000D0938900A3
:10068000C093880015C08091B00080688093B0004E
:10069000C093B3000DC08091B00080628093B00021
:1006A000C093B40005C0C038D1050CF0B5CFAFCFB2
:1006B000DF91CF911F9108958E3008F08E50877092
:1006C000806480937C0080917A00806480937A00BB
:1006D00080917A0086FDFCCF80917800209179008E
:1006E00090E0922B08953FB7F89480911C0190916F
:1006F0001D01A0911E01B0911F0126B5A89B05C048
:100700002F3F19F00196A11DB11D3FBFBA2FA92F90
:10071000982F8827820F911DA11DB11DBC01CD010D
:1007200042E0660F771F881F991F4A95D1F70895F9
:100730008F929F92AF92BF92CF92DF92EF92FF92F1
:100740006B017C010E9473034B015C01C114D10455
:10075000E104F104F1F00E947303DC01CB0188197C
:100760009909AA09BB09883E9340A105B10570F318
:1007700021E0C21AD108E108F10888EE880E83E072
:10078000981EA11CB11CC114D104E104F10419F795
:10079000DDCFFF90EF90DF90CF90BF90AF909F9014
:1007A0008F9008951F920F920FB60F9211242F93DE
:1007B0003F938F939F93AF93BF9380912701909125
:1007C0002801A0912901B0912A0130911B0123E059
:1007D000230F2D3720F40196A11DB11D05C026E879
:1007E000230F0296A11DB11D20931B0180932701A9
:1007F00090932801A0932901B0932A0180911C01B4
:1008000090911D01A0911E01B0911F010196A11DA3
:10081000B11D80931C0190931D01A0931E01B09304
:100820001F01BF91AF919F918F913F912F910F9099
:100830000FBE0F901F90189580912B03882319F0FD
:1008400080912D0301C080E08093B40008951F9231
:100850000F920FB60F9211242F933F934F935F93F4
:100860006F937F938F939F93AF93BF93EF93FF9378
:1008700060912C03662321F180911A018F5F809390
:100880001A01909125018917D8F090912B0381E0EE
:10089000892780932B0310921A01809126018823C7
:1008A00069F08091000193E4899F802D1124895B78
:1008B000809300010E94961490932D030E941C04C3
:1008C000FF91EF91BF91AF919F918F917F916F9128
:1008D0005F914F913F912F910F900FBE0F901F90FE
:1008E00018954F925F926F927F928F929F92AF92E4
:1008F000BF92CF92DF92EF92FF920F931F93CF930D
:10090000DF93F901C49031965491EC0108A164354C
:100910000CF018C10C2C000CDD08A62F062E000CC4
:10092000BB0B7D01EC0CFD1C1E141F040CF00AC156
:1009300040330CF007C1A52E842E042E000C99081C
:10094000F401E50FF11D57FDFA951E161F060CF078
:10095000F9C02E5F3F4FE6012796D7FD279673E03B
:10096000D595C7957A95E1F747FF0AC0A52EA40E45
:10097000C89DA001C99D500D1124241B350B40E0DA
:10098000EA2D0A2C000CFF0BE40FF11D47FDFA9530
:10099000F1971CF050E3A52EA41A67FD60E0F70163
:1009A000E535F10514F0E4E5F0E07E2FFC01D48498
:1009B000D426862F062E000C990BFC01EA1BFB0B9C
:1009C000DF017F01F7E0EF22FF24E0E8F0E002C062
:1009D000F595E795EA94E2F71E2FB7FD179653E0D9
:1009E000B595A7955A95E1F72A0F3B1FE42FE770BD
:1009F00051E001C0550FEA95EAF7459545954595B3
:100A0000B4E54B02800D911D1124855D9E4FC12CD4
:100A10000A2C000CBB08992493942E015524EC2D2C
:100A2000F0E0EA15FB050CF08DC0F90144910130AE
:100A3000E1F47C01A12F862E881AB82DBE0DB717C0
:100A400008F077C0B42FBA2321F0E701B881B52BA5
:100A5000B883B0E0B595A795109719F431964491F5
:100A6000A0E8DFEFED1AFD0AE8CF01111FC0752ED7
:100A700070947C01A12FF901862E881AB82DBE0D25
:100A8000B71708F056C0B42FBA2321F0E701B88198
:100A9000B721B883B0E0B595A795109719F43196B2
:100AA0004491A0E8DFEFED1AFD0AE8CF033031F002
:100AB0007C01A12FF901862E881A37C0752E7094FB
:100AC000862E7C01A12FF9018716D8F4B42FBA2302
:100AD00059F0E701B881682C6D2460FE02C0B52B87
:100AE00002C0B721E701B883B0E0B595A79510978C
:100AF00019F431964491A0E88394DFEFED1AFD0AD2
:100B0000E3CFD92416C0B42FBA2321F0E701B8816E
:100B1000B527B883B0E0B595A795109719F431962D
:100B20004491A0E8DFEFED1AFD0AB82DBE0DB7170E
:100B300050F3550F19F48C5A9F4F51E0C394240D74
:100B4000351D6DCFDF91CF911F910F91FF90EF90E9
:100B5000DF90CF90BF90AF909F908F907F906F90DD
:100B60005F904F900895FC01643508F053C0403306
:100B700008F050C090A1742F759575957595262F26
:100B8000062E000C330B542F57709230A1F4F9014C
:100B9000E55DFE4F84E57802E00DF11D11248081B2
:100BA00090E0052E02C0959587950A94E2F780950E
:100BB000982F91700AC0933041F484858170462744
:100BC00040954170841303C014C0911112C084E594
:100BD0007802200D311D1124F901E55DFE4F81E001
:100BE00090E001C0880F5A95EAF78095908189239B
:100BF00010C084E57802200D311D1124F901E55D56
:100C0000FE4F81E090E001C0880F5A95EAF790818D
:100C1000892B80830895BF92CF92DF92EF92FF924B
:100C20000F931F93CF93DF931F92CDB7DEB77C0155
:100C3000D62EC42E002E000C110B040F111D47FDE3
:100C40001A954C2D0C2C000C550B401751077CF4B9
:100C5000B12CB21654F46B2D6D0D4C2DC7012983A8
:100C60000E94B305B3942981F4CFC394EACF0F90C7
:100C7000DF91CF911F910F91FF90EF90DF90CF9078
:100C8000BF9008956F927F928F929F92AF92BF9282
:100C9000CF92DF92EF92FF920F931F93CF93DF9348
:100CA000EC016A3019F42D819885A1C06D3009F4EA
:100CB000A4C01885BA84D98488A083E58D150CF466
:100CC0007FC08FE28B150CF47BC08C8190E0019784
:100CD000189F9001199F300D1124C9018D0D911D90
:100CE000D7FC9A95181619060CF06AC08D81819F61
:100CF000C00111248B0D911DB7FC9A951816190689
:100D00000CF05EC09D2CCD2CE62EF12CEC2DED19B7
:100D10000E2E000CFF0B8C8190E0E817F9070CF009
:100D20004EC00197E817F90779F0E89E9001E99E17
:100D3000300DF89E300D1124E20FF31F8E8D9F8D24
:100D4000E80FF91F749001C0712C6B2CAB2C2A2D6D
:100D50002B19022E000C330B8D8190E028173907D8
:100D60005CF570FE10C0113031F44A2D6C2DCE01AF
:100D70000E94B3051DC0012F212F462D692DCE01E4
:100D80000E940B0615C089A198A1891789F088A334
:100D9000113031F44A2D6C2DCE010E94B30507C0ED
:100DA000012F212F462D692DCE010E940B0688A20E
:100DB0007694A394610ECBCFC394910EA7CF88A253
:100DC00028853C818985329F800D112489879F81E8
:100DD000992399F0082E000C990B44E550E0239FCD
:100DE000401951091124481759073CF49D818A85FF
:100DF000299F800D11248A87198681E090E0DF9178
:100E0000CF911F910F91FF90EF90DF90CF90BF9007
:100E1000AF909F908F907F906F9008954F925F92C8
:100E20006F927F928F929F92AF92BF92CF92DF92FA
:100E3000EF92FF920F931F93CF93DF9300D000D0D8
:100E40001F92CDB7DEB74091AE035091AF036091D2
:100E5000B0037091B1032FB7F8948091270190915E
:100E60002801A0912901B0912A012FBF481B590BDD
:100E70006A0B7B0B8091AD0390E0A0E0B0E00091A5
:100E8000A9031091AA032091AB033091AC038417FE
:100E90009507A607B70730F401151105210531059F
:100EA00009F03AC3012B022B032B09F033C38091C5
:100EB000450381508E3FC0F5809144038130C9F5D0
:100EC000809158038F5F6091590387FD09C0082EF8
:100ED000000C990B70E06F5F7F4F0E94A214682F87
:100EE000609358038EE793E09093B3038093B2032B
:100EF00088E48093B40380E00E94A30C87E991E02A
:100F000090936103809360031092660310926503CF
:100F100081E08093540389E08093690310926C030D
:100F200010926E03109270038091450381508E3FA2
:100F300070F480914303813009F09AC381E793E014
:100F40009093B3038093B20388E48093B40380E06A
:100F50000E94D10D80915403882309F4ABC0809185
:100F600068038111A7C08091600390916103E091B3
:100F70006503F0916603EE0FFF1FE80FF91F45911F
:100F8000549141155105F1F420916403222331F06D
:100F90001092660310926503FC0112C01092540374
:100FA00080915303882341F080E00E94D10DE091AD
:100FB0006503F09166032DC080E00E948E0C7AC01C
:100FC000459154919A01369527953695279540FF7E
:100FD00051C0CA0116E0969587951A95E1F78F7171
:100FE000952F96959695969590512F70223071F188
:100FF000F8F4211117C08B3008F08AE08093690360
:10100000E0916503F09166033196F0936603E093F7
:101010006503EE0FFF1F8091600390916103E80F5D
:10102000F91FCECF213061F760E00E943B0EE8CF80
:101030002330B1F0243021F720915703829F802D77
:1010400011248093700390937103DACF209157039A
:10105000829F802D112480936C0390936D03D0CFD9
:1010600020915703829F802D112480936E039093CB
:101070006F03C6CF2F732093670380915703859F1B
:10108000802D1124809368031092780310927703C7
:101090001092760381E080936A0380932B03109271
:1010A0006B038091650390916603019690936603AC
:1010B0008093650380916A03882309F4EEC08091D0
:1010C0006803811103C00E948E0CE7C08150809399
:1010D000680380917803811146C020917603309196
:1010E00077032F5F3F4FC901880F991FE09172036B
:1010F000F0917303E80FF91F65917491862F877043
:1011000080937903AB01E3E056954795EA95E1F7C3
:10111000CA0196958795972F9695969590937A0301
:101120008F7390915703899F802D112480937803AA
:10113000417040932601309377032093760380918A
:10114000740390E02817390770F02091750322236B
:1011500039F0821B9109909377038093760303C043
:1011600080E00E948E0C80917803815080937803F8
:1011700080916B0321E0280F20936B03409167035C
:1011800030917A03340F80915F03380F3093550309
:1011900060916E03662371F070E0822F022E000CC6
:1011A000990B0E94A21480916F03869F300D112429
:1011B000309355038091550390E0849664E270E08B
:1011C0000E94A21480935503309169033093560313
:1011D00060916C03662381F0062E000C770B822F42
:1011E000022E000C990B0E94A21480916D03869F21
:1011F000300D112430935603609170036623A1F0E3
:10120000822F220F990B70E00E94A214CB0162E0A2
:1012100070E00E94A2142091710390915603289FC0
:10122000900D112490935603809156034F3341F053
:101230008A300CF089E087FD80E08093560302C07D
:1012400010925603F894E0915503F0E0E356FE4FF8
:10125000E491E09325013091560320917B03320302
:1012600090011124409179034203C001439F900DE6
:1012700011240090580302C0880F991F0A94E2F7C6
:1012800097FF02C081589F4F880F892F881F990BA5
:1012900080932C0380932D0378948091B40388234A
:1012A00009F48DC08C3020F49CE0E92EE81A01C0CE
:1012B000E12CFF24F394F092840310929C0310928B
:1012C0009D03309181034DE2D42E1D2D131B1E0D65
:1012D00003E0030F2EE4412F63E08CE793E03D83AE
:1012E0000E940B063D810CEF030F1D5F202F41E094
:1012F000612F80E50E940C0F202F42E0612F83E0D8
:101300000E940C0FF0929C03F0929D0300918103C8
:1013100013E0100FD01ADE0C23E04D2D622F8CE766
:1013200093E02D830E94B3052D812F5F2135A9F70E
:101330001D0DFF24FA94F10E23E04F2D622F8CE750
:1013400093E02D830E94B3052D812F5F2135A9F7EE
:10135000035033E0D30E402F6D2D80E00E94F40E39
:10136000402F6D2D83E50E94F40E41E06D2D83E04A
:101370000E94760E42E06D2D80E50E94760E14509C
:1013800044E0612F80E50E94760E48E0612F83E003
:101390000E94760E84E08093850380918103E81A91
:1013A0008E2D815D809386038091B2039091B3036B
:1013B0000E946D0D8091B40381508093B40380919D
:1013C0004A0390914B03892B09F47CC011E01093E0
:1013D0009C0310929D039091800385E5891B809367
:1013E00085031092860380914703813009F44DC034
:1013F00030F090914603853008F05FC05AC080E01D
:101400000E94A30C10938403EFEEF1E0E491EF5FF0
:10141000E0938003E0EFF1E0E491EF5FE09381037C
:1014200081EF91E090939B0380939A0310924B037A
:1014300010924A031092820318EA0E940E07882332
:10144000E1F381EE91E00E946D0D6091480370918F
:10145000490380E090E04AE00E94670F8CEC91E045
:101460000E946D0D612F62956F7070E080E090E0DA
:101470004AE00E94670F81EC91E00E946D0D80911F
:101480004303813009F0FAC01DC080919F03909101
:10149000A003A091A103B091A2038F709927AA275E
:1014A000BB270897A105B10510F487E009C088E7BC
:1014B00007C0992339F08B5F03C0992319F08FE29D
:1014C0000E94A80F0E942D0D8091820381110EC0F1
:1014D00088EF91E0EBE2F1E0DF019C011D922150E9
:1014E0003040E1F710928503109286030E94730347
:1014F0006093A9037093AA038093AB039093AC030A
:101500002091A5033091A603621B730B7093A40373
:101510006093A30380E0CCC02FB7F894809127019B
:1015200090912801A0912901B0912A012FBF20910B
:10153000AD03820F911DA11DB11D8093AE03909349
:10154000AF03A093B003B093B10380919F03909138
:10155000A003A091A103B091A2030196A11DB11D0A
:1015600080939F039093A003A093A103B093A20341
:101570001092A9031092AA031092AB031092AC032D
:101580000E9473036093A5037093A6038093A7033F
:101590009093A80380912F03909130032FE0289F10
:1015A0008001299F100D112485E10E945C03800FAA
:1015B000911F24E0969587952A95E1F79093300343
:1015C00080932F0320912E03222309F44BC06091B6
:1015D0003203262F30E040E050E029833A834B83EA
:1015E0005C83C0903303D12CE12CF12C4091360365
:1015F000509137034A01A12CB12C20913403309132
:1016000035032901612C712C8217930728F09C0166
:101610004817590708F49A01C901A0E0B0E09C01FD
:10162000AD01241935094609570969817A818B81F1
:101630009C816C197D098E099F090E948614A50161
:10164000940124193509460957090E940113C20E55
:10165000D31EE41EF51EC09231036C2D70E085E0B0
:101660000E94FD020E94BA0C0E94B30F81E020C0CC
:10167000893209F06CCC0E949C0D69CC115009F0A4
:10168000DCCE60E070E085E00E94FD0283B7817FE0
:10169000846083BF83B7816083BF83B7816083BF6A
:1016A000889583B78E7F83BF83B78E7F83BFC5CE78
:1016B0000F900F900F900F900F90DF91CF911F918F
:1016C0000F91FF90EF90DF90CF90BF90AF909F90E1
:1016D0008F907F906F905F904F9008958F929F9220
:1016E000AF92BF92CF92DF92EF92FF920F931F9330
:1016F000CF93DF93EC0181E0809384031092830306
:10170000109282031092460380939C0380939D0362
:101710008CE0F82E07E911E0EE24E39499E0D92E4D
:101720000E940E078823E1F3FE018491882319F0BB
:10173000C090810301C0C12C27E231E040E060E0AD
:101740008CE793E00E9471044CE04C0D22ED30E0F8
:1017500060E08CE793E00E94710410928503F092A0
:101760008603CE010E946D0D80918003982F990F02
:10177000890F81958D5A8093850380918103982FDD
:10178000990F890F8195835D8093860380919F03D4
:1017900084FF03C083E291E002C08FE191E00E94E8
:1017A0008E0D80918003982F990F890F81958D5A06
:1017B00080938503809186038F5F80938603809159
:1017C0005803882319F08BE191E002C087E191E092
:1017D0000E948E0D80918003982F990F890F81951B
:1017E0008D5A80938503809186038F5F8093860353
:1017F00083E191E00E948E0D80914403813039F5A0
:10180000809158038F5F6091590387FD09C0082EAE
:10181000000C990B70E06F5F7F4F0E94A214682F3D
:101820006093580380E00E94A30C1093610300931F
:1018300060031092660310926503E0925403D09205
:10184000690310926C0310926E03109270038091E2
:1018500043038130A9F080919E03482F50E060E05F
:1018600070E080909F039090A003A090A103B0909F
:10187000A20384169506A606B70680F18F3F71F184
:101880008FEF80939E0380E00E94A30C80E00E9473
:10189000A30C8AEC90E09093610380936003109214
:1018A00066031092650381E08093540399E090935E
:1018B000690310926C0310926E0310927003809370
:1018C0004603DF91CF911F910F91FF90EF90DF9032
:1018D000CF90BF90AF909F908F90089580914503D7
:1018E000813009F01DCF0E949C0D1ACFBC010097DA
:1018F00091F0FC0101900020E9F73197AF01481BFE
:10190000590BE0917C03F0917D030280F381E02D7F
:101910008CE793E0099480E090E00895811112C073
:1019200010926A0310926803109277031092760364
:1019300010926B0310922D0310922C0310922B0324
:101940000C941C040895811114C010926A03109223
:101950006803109277031092760310926B03109233
:101960002D0310922C0310922B030E941C04109242
:1019700054030895CF92DF92EF92FF920F931F933B
:10198000CF93DF93C8E3D3E00FE313E0FF24FA948F
:1019900097E0E92EE00E62E088810E94C102288172
:1019A00030E0F901EC5FFB4F8491F901E051FC4F0D
:1019B000C490F901E452FC4FD490DD2071F0811104
:1019C0000E946802ED2DF0E0EE0FFF1FEE52FC4F7B
:1019D000A591B491EC91EC21B1F4F80180818F5F75
:1019E000808360E088810E94C10221960F5F1F4FB3
:1019F000E012D1CFDF91CF911F910F91FF90EF9027
:101A0000DF90CF900895F8018081882371F3F80169
:101A10008F3F11F41082E5CFF082E3CFCF93C82F30
:101A2000F89460E080918B030E94910280918C0376
:101A300018161CF460E00E949102CEBD00000DB4A7
:101A400007FEFDCF8EB580918C0318161CF461E063
:101A50000E9491027894CF9108950F931F93CF9392
:101A6000809188038F5F809388030BE211E0C0E0D0
:101A70008C2F80640E940E0D80E80E940E0D61E0A4
:101A800080918B030E94910280918C0318161CF4A4
:101A900060E00E94910280E090E0F801E80FF91FF9
:101AA00020812EBD00000DB407FEFDCF2EB501969E
:101AB0008435910591F780918C0318161CF461E030
:101AC0000E949102CF5F0C5A1F4FC63089F680E406
:101AD000CF911F910F910C940E0D0F931F93CF93E5
:101AE000DF938C01C0E0D0E0F801EC0FFD1F6491A2
:101AF000662371F0E0917C03F0917D030190F08109
:101B0000E02D8CE793E00995892B11F02196ECCF1D
:101B1000CE01DF91CF911F910F910895CF93DF9365
:101B20000E946D0DEC018FE091E00E94760C8C0F0D
:101B30009D1FDF91CF91089588EF91E0EBE2F1E0F6
:101B4000DF019C011D9221503040E1F71092850386
:101B5000109286038AEA93E00E946D0D0E942D0D7B
:101B60008CB583608CBD8DB58E7F8DBD82E191E09B
:101B7000EEEFFFE309951092820385E893E00E945F
:101B80008E0D0E942D0D0E94BA0C8091430381306E
:101B900039F062E370E080E090E00E949803F3CFB8
:101BA0000895AF92BF92CF92DF92EF92FF920F9380
:101BB0001F93CF93DF93C82ED12CE601C25DDC4F7B
:101BC0009DA1992309F44CC07E019FEFE91AF90AFF
:101BD000F70195A1911144C09EA58601000F111F28
:101BE000025D1C4FF80134A525A5E32FF22FE90F64
:101BF000F11DE90FF11D259134912F3FFFEF3F07B4
:101C000011F41DA22DC039ABF601EE0FFF1FE85CE9
:101C1000FC4F3327220F331F05A0F6A1E02DE20F62
:101C2000F31FA590B490811117C00E94A30CF80176
:101C3000B3AAA2AAF601EE0FFF1FE05CFC4F16A2AA
:101C400015A281E0F70185A389E08BAF1EAEFE01EE
:101C50007B9615A2329615A229968DA18F5F8DA332
:101C6000DF91CF911F910F91FF90EF90DF90CF9078
:101C7000BF90AF90089570E0DB01AA0FBB1FA25D7B
:101C8000BC4FD4962C91D497D5969C91D597E22FA2
:101C9000F92FE80FF11DE80FF11D259134915F96A2
:101CA00096963C932E939597F901859194919091F6
:101CB0005703989F802D1124625D7C4FFB01B196E4
:101CC00085A3F901A591B4914B2F50E0E82FF0E0E6
:101CD0004E175F0720F4F90125913491832FFB0102
:101CE000B296899F802D112485A30895AF92BF924B
:101CF000CF92DF92EF92FF920F931F93CF93DF93D8
:101D0000182F062FC1E0D3E08AEFD82E9EEFE92EE0
:101D1000842F8470C82E842F8270B82E842F8870F0
:101D2000A82E4170F42E8C2F880F8F5FE80ECC20E8
:101D300081F04D2F400F6C2F610F8CE793E00E94D4
:101D4000B3054C2F400F6D2F610F8CE793E00E947D
:101D5000B305BB2081F0402F4D1B6C2F610F8CE72A
:101D600093E00E94B305402F4C1B6D2F610F8CE751
:101D700093E00E94B305AA2081F04C2F400F612F01
:101D80006D1B8CE793E00E94B3054D2F400F612F30
:101D90006C1B8CE793E00E94B305FF2081F0402F7D
:101DA0004C1B612F6D1B8CE793E00E94B305402F05
:101DB0004D1B612F6C1B8CE793E00E94B305CD1780
:101DC00044F4E7FC04C0D150D394D394ED0CCF5F1E
:101DD000AACFDF91CF911F910F91FF90EF90DF90ED
:101DE000CF90BF90AF9008950F931F93CF93DF9341
:101DF000182F062FD42FC0E0CD174CF44C2F400FD6
:101E0000612F8CE793E00E94B305CF5FF5CFDF91A0
:101E1000CF911F910F9108959F92AF92BF92CF9251
:101E2000DF92EF92FF920F931F93CF93DF93F82EE1
:101E3000E62EB22E03E0020FD0E0C3E08AEFC82EF8
:101E40001EEF842F8170982EAA24A394A20E4270B4
:101E5000D42EDF5F802F8B19180F992081F04C2F23
:101E6000440F4A0D6E2D6C1B8D2F8F0D0E94F40EAA
:101E7000402F6E2D6D1B8C2F8F0D0E94F40EDD20D8
:101E800081F04C2F440F4A0D6E2D6C1B8F2D8D1B36
:101E90000E94F40E402F6E2D6D1B8F2D8C1B0E9407
:101EA000F40EDC1744F417FD04C0C150C394C3946E
:101EB0001C0D0E5FCECFDF91CF911F910F91FF9040
:101EC000EF90DF90CF90BF90AF909F9008958F924A
:101ED0009F92AF92BF920F931F93CF93DF93CDB793
:101EE000DEB7A1970FB6F894DEBF0FBECDBF19A223
:101EF000423008F44AE08E010F5D1F4F842E912C72
:101F0000A12CB12CA50194010E942B13E62FB9013D
:101F1000CA0101501109EA3014F4E05D01C0E95C26
:101F2000D801EC93232B242B252B61F7C8010E94A9
:101F3000760CA1960FB6F894DEBF0FBECDBFDF9131
:101F4000CF911F910F91BF90AF909F908F90089568
:101F5000E0917C03F0917D030190F081E02D682FEA
:101F60008CE793E0099480914A0390914B03892B6D
:101F7000B1F1809152038F7169F584E10E945C0395
:101F8000BC01990F880B990B0E948D1326EE3FE33D
:101F90004EEC50E40E94F1130E945C139B0170937D
:101FA000490360934803672B91F084E080934703D3
:101FB000EAE4F3E080E0419151912417350718F4E9
:101FC0008093470308958F5F8430A9F703C08FEF94
:101FD00080934703809152038F5F8093520308954B
:101FE000789484B5826084BD84B5816084BD85B5F4
:101FF000826085BD85B5816085BD80916E00816000
:1020000080936E00109281008091810082608093A5
:1020100081008091810081608093810080918000A7
:102020008160809380008091B10084608093B100D2
:102030008091B00081608093B00080917A008460CC
:1020400080937A0080917A00826080937A008091F8
:102050007A00816080937A0080917A008068809312
:102060007A001092C10082E38093AD0381E090E09A
:10207000A0E0B0E08093A9039093AA03A093AB03E0
:10208000B093AC038FEF80939E03E0E8F7E72591D0
:1020900034912130304C09F049C0E6E9F7E7E4918A
:1020A000E0938703E7E9F7E7E491E0933203E8E997
:1020B000F7E7E491E0933303E9E9F7E78591949139
:1020C0009093350380933403EBE9F7E7859194917E
:1020D000909337038093360387E080935903EEE9AA
:1020E000F7E7E491E0935803EFE9F7E7E491E09331
:1020F0009E03E0EAF7E78591949190934B038093D8
:102100004A03E2EAF7E78591949190934D03809317
:102110004C03E4EAF7E78591949190934F03809301
:102120004E03E6EAF7E7859194912CC09CE39093E7
:102130008703109232038093330380E293E09093FD
:1021400035038093340384ED93E0909337038093B9
:10215000360387E080935903809358038CEA9DE00F
:1021600090934B0380934A038EED9DE090934D0333
:1021700080934C0384E79EE090934F0380934E033B
:102180008CE39FE09093510380935003C1E0C09390
:102190002E036FEF70E085E00E94FD0288E08093DF
:1021A000380389E08093390387E080933A0386E01F
:1021B00080933B0314E010933C0382E080933D0343
:1021C00081E180933E030E94BA0C8CE39FE09093E0
:1021D00049038093480310934703C09352038BE055
:1021E00080938A038DE08093890380E180938B0341
:1021F0008EE080938D038FE080938C03C0938403E3
:10220000C0939C0310929D03C0938303EFEEF1E013
:10221000E491EF5FE0938003E0EFF1E0E491EF5FA2
:10222000E093810381EF91E090939B0380939A0365
:10223000CFB7F89480912001811127C0E6EEF3E03A
:102240008491EAEFF3E09491E82FF0E0EE0FFF1FA6
:10225000EC58FF4FA591B491EC91E92321F461E092
:102260008AE00E94910261E08AE00E94C1028CB57E
:1022700080618CBD8CB580648CBD61E08DE00E9476
:10228000C10261E08BE00E94C102809120018F5F5A
:1022900080932001CFBF8CB58F7D8CBD8CB58C7F9A
:1022A00081608CBD8DB581608DBD8CB58C608CBD21
:1022B00061E080918A030E94C10261E080918903FC
:1022C0000E94C10261E080918B030E94C102809153
:1022D0008D0318161CF461E00E94C10280918C03EA
:1022E00018161CF461E00E94C10280918D0318163B
:1022F00074F460E00E9491026AE070E080E090E097
:102300000E94980361E080918D030E949102809168
:102310008903082E000C990BFC01E452FC4FE49158
:10232000F0E0EE0FFF1FE258FF4F259134913093FC
:10233000910320939003FC01E051FC4FE491E09362
:10234000970380918A03082E000C990BFC01E4523C
:10235000FC4FE491F0E0EE0FFF1FE258FF4F259194
:10236000349130938F0320938E03FC01E051FC4F96
:10237000E491E093960380918C03082E000C990B56
:10238000FC01E452FC4FE491F0E0EE0FFF1FE25835
:10239000FF4F259134913093930320939203FC01D6
:1023A000E051FC4FE491E093980380918B03082E59
:1023B000000C990BFC01E452FC4FE491F0E0EE0FAD
:1023C000FF1FE258FF4F25913491309395032093DE
:1023D0009403FC01E051FC4FE491E093990381E206
:1023E0000E940E0D84E10E940E0D8091870387FFED
:1023F00003C08FE7809387038091870380680E94E2
:102400000E0D80E20E940E0D8CE00E940E0D0E94C7
:102410002D0DC1E0C093570384E080937B0380E7D8
:1024200090E0909363038093620360E080E00E94F9
:102430003B0E61E070E083E00E94FD028091B100FC
:10244000887F81608093B100F89410928000109290
:102450008100109285001092840088E191E09093B1
:10246000890080938800809181008860809381003A
:102470008091810081608093810080916F008260F3
:1024800080936F0078940E94B30F80914403813051
:1024900019F4109258031CC0809147038823C9F394
:1024A00080E00E94A30C88E890E090936103809301
:1024B00060031092660310926503C093540389E091
:1024C0008093690310926C0310926E031092700354
:1024D00080919E03882321F086E990E00E946E0B94
:1024E00000E010E08AEFE82EFF24FA9499EFC92E5D
:1024F000DD24DA942CE2A22EB12C88248394912C32
:102500000E940E07882329F080914303813061F4F3
:102510005DC080912101909122018A3F9F4F24F458
:10252000F0922201E09221018091210190912201FB
:102530000196909322018093210120910101309115
:102540000201820F931F8D3291052CF490930201AA
:10255000809301010CC0B0920201A092010110927F
:102560002201109221019092240180922301409136
:102570000101455122ED30E064E08CE793E00E94D8
:10258000710428EB30E044E168E28CE793E00E94BC
:102590007104C0E04EE16C2F8CE793E00E94B3051C
:1025A000CF5FC535B9F780914503813041F4809103
:1025B0009E03882321F087EA90E00E946E0B0115AC
:1025C000110509F49DCF0E9400009ACF809123014C
:1025D00090912401019709F0A7CFD0922201C092D7
:1025E000210110922401109223019ECF10927F03AB
:1025F00010927E0387E091E090937D0380937C03AB
:102600000895052E97FB1EF400940E94181357FDA1
:1026100007D00E942B1307FC03D04EF40C94181320
:1026200050954095309521953F4F4F4F5F4F0895FE
:1026300090958095709561957F4F8F4F9F4F08952E
:102640000E944D13A59F900DB49F900DA49F800DE7
:10265000911D11240895A1E21A2EAA1BBB1BFD0196
:102660000DC0AA1FBB1FEE1FFF1FA217B307E40771
:10267000F50720F0A21BB30BE40BF50B661F771FC9
:10268000881F991F1A9469F76095709580959095A9
:102690009B01AC01BD01CF010895A29FB001B39F82
:1026A000C001A39F700D811D1124911DB29F700D5B
:1026B000811D1124911D08950E94D01388F09F5709
:1026C00098F0B92F9927B751B0F0E1F0660F771F56
:1026D000881F991F1AF0BA95C9F714C0B13091F04C
:1026E0000E94EA13B1E008950C94EA13672F782F43
:1026F0008827B85F39F0B93FCCF386957795679511
:10270000B395D9F73EF490958095709561957F4F7C
:102710008F4F9F4F0895E89409C097FB3EF4909522
:102720008095709561957F4F8F4F9F4F9923A9F0AA
:10273000F92F96E9BB279395F69587957795679539
:10274000B795F111F8CFFAF4BB0F11F460FF1BC07D
:102750006F5F7F4F8F4F9F4F16C0882311F096E910
:1027600011C0772321F09EE8872F762F05C06623BE
:1027700071F096E8862F70E060E02AF09A95660F77
:10278000771F881FDAF7880F9695879597F9089530
:1027900057FD9058440F551F59F05F3F71F0479512
:1027A000880F97FB991F61F09F3F79F087950895F7
:1027B000121613061406551FF2CF4695F1DF08C016
:1027C000161617061806991FF1CF86957105610533
:1027D00008940895E894BB2766277727CB0197F9DB
:1027E00008950E9404140C9475140E94671438F024
:1027F0000E946E1420F0952311F00C945E140C943A
:10280000641411240C94EB130E94C81370F3959F69
:10281000C1F3950F50E0551F629FF001729FBB27D7
:10282000F00DB11D639FAA27F00DB11DAA1F649F73
:102830006627B00DA11D661F829F2227B00DA11D26
:10284000621F739FB00DA11D621F839FA00D611DAC
:10285000221F749F3327A00D611D231F849F600DCD
:10286000211D822F762F6A2F11249F5750409AF0F6
:10287000F1F088234AF0EE0FFF1FBB1F661F771F82
:10288000881F91505040A9F79E3F510580F00C944D
:102890005E140C94EB135F3FE4F3983ED4F38695FB
:1028A00077956795B795F795E7959F5FC1F7FE2BED
:1028B000880F911D9695879597F9089597F99F67C9
:1028C00080E870E060E008959FEF80EC08950024B8
:1028D0000A941616170618060906089500240A9485
:1028E00012161306140605060895092E0394000C0B
:1028F00011F4882352F0BB0F40F4BF2B11F460FF9A
:1029000004C06F5F7F4F8F4F9F4F0895DB018F9300
:102910009F930E942013BF91AF91A29F800D911DA4
:10292000A39F900DB29F900D11240895991B79E0FB
:1029300004C0991F961708F0961B881F7A95C9F74F
:102940008095089597FB072E16F4009407D077FD25
:1029500009D00E94B61407FC05D03EF490958195ED
:102960009F4F0895709561957F4F0895AA1BBB1BDB
:1029700051E107C0AA1FBB1FA617B70710F0A61B7F
:10298000B70B881F991F5A95A9F780959095BC01A0
:10299000CD010895EE0FFF1F0590F491E02D0994ED
:0E29A00081E090E0F8940C94D514F894FFCFE9
:1029AE00012C000000000042063702630262020D95
:0A29BE000A004C4F4144455200004E
:00000001FF
