:100000000C947E020C94A6020C94A6020C94A602F8
:100010000C94A6020C94A6020C94A6020C94A602C0
:100020000C94A6020C94A6020C94A6020C949D05B6
:100030000C94A6020C94A6020C94A6020C94A602A0
:100040000C9417050C94A6020C94A6020C94A6021C
:100050000C94A6020C94A6020C94A6020C94A60280
:100060000C94A6020C94A6020101FF030101F70300
:100070004500680100006C006800000000002400DA
:1000800027002A0000000000250028002B000500A2
:1000900089300802380249786814000044692D6EDE
:1000A0006F2D636F6E6E656374696F6E0018160056
:1000B0001FE0003FF00037F0003FF0003FF0003F4E
:1000C000F0003E00003FC0807C0081FC00C3FF00C8
:1000D000E7FD00FFFC00FFFC007FF8003FF8001F79
:1000E000F0000FE00007600006200004200006304A
:1000F000001816001FE0003FF00037F0003FF0004E
:100100003FF0003FF0003E00003FC0807C0081FCDB
:1001100000C3FF00E7FD00FFFC00FFFC007FF800CC
:100120003FF8001FF0000FE0000460000620000010
:1001300020000030004869006E65772068692D73E3
:10014000636F72652121001816001FE00031F00076
:1001500035F00031F0003FF0003FF0003E00003F7E
:10016000C0807C0081FC00C3FF00E7FD00FFFC00B5
:10017000FFFC007FF8003FF8001FF0000FE00007D1
:10018000600006200004200006300044692D6E6FD8
:100190002D636F6E6E656374696F6E0008111818B9
:1001A000181B1BDBDBDBDED878181818181818189A
:1001B00016001FE0003FF00037F0003FF0003FF076
:1001C000003FF0003E00003FC0807C0081FC00C387
:1001D000FF00E7FD00FFFC00FFFC007FF8003FF898
:1001E000001FF0000FE000072000063000040000B0
:1001F000060000F6E8DBCFC3B8AEA49B928A827BF0
:10020000746E68625C57524E4945413E3A3734310C
:100210002E2C29272523210A0A153A49676E6F7269
:1002200065006D560A0A504C4541534520545552BD
:100230004E204F464620004C4F57204241545445D3
:10024000525921200003053F213F1208120A100ACB
:100250000E1C0E0C1E0C141A14161F161E131E1E36
:100260001B1E1E1F1E3F213F3A2F3A173D173F21ED
:100270003F181F02040A041F0E04040E1F0A1F0A5F
:100280000E0E1F04110E2E252E2F2A2E262929028E
:100290001F02081F08150E04040E150E15151B1558
:1002A0001B040604040C04000000001700030003F4
:1002B0001F0A1F16371A1904130A153A0003000003
:1002C0000E11110E000A040A040E0400300004048A
:1002D000040010001804031F111F121F101D151712
:1002E00011151F07041F17151D1F151D01011F1FC5
:1002F000151F17151F000A00003200040A110A0A10
:100300000A110A040115020E11171E051E1F150AF7
:100310000E110A1F110E1F15111F05010E111D1FB1
:10032000041F111F1108100F1F041B1F10101F06A0
:100330001F1E040F0E110E1F09060E112E1F051A87
:10034000121509011F011F101F0F180F1F0C1F1B73
:10035000041B031C03191513001F11030418111F9C
:10036000000201022020200001020C121E1F120CAC
:100370000C12120C121F0C1A14041E05242A1E1F24
:10038000021C141D1020201D1F0814111F101E0414
:100390001E1E021C0C120C3E0A040C123E1E04020D
:1003A00014160A020F120E101E0E100E1E081E1238
:1003B0000C1226281E322A26041E21001F00211E90
:1003C000040102013F213F172B152010204C4F4103
:1003D00044455200172B16201314000A4E6F205369
:1003E000442063617264206F720A6E6F204C4F412B
:1003F0004445522E4845580A0A153A457869740012
:100400001D20466C617368696E670A20206C6F61FD
:100410006465722E2E2E0A0A444F4E2754205455DE
:10042000524E204F464621000000000023002600C7
:100430002900040404040404040402020202020267
:100440000303030303030102040810204080010298
:100450000408102001020408102000000008000217
:100460000100000304070000000000000000050078
:100470003801680100001753440016137800161362
:1004800014001510200015201000540A03E1818685
:100490007F3E186D830F0F0E0183866033186DC386
:1004A000198F1803C38E6033186DE330CF1803C360
:1004B0009E603630CDE360CF3006C79E7E3E30CDA5
:1004C000B360CF300CC6F6603330D9B660CF33CFCF
:1004D000CCF66061B0DB1E60CF30D86CE6C061B096
:1004E000DB1E618F19986CC6C063B19B0E330F0F72
:1004F000B078C6FF7E1F1B061E0F701611241FBE8C
:10050000CFEFD8E0DEBFCDBF11E0A0E0B1E0ECED71
:10051000F1E302C005900D92A831B107D9F723E0AD
:10052000A8E1B1E001C01D92AB3DB207E1F712E0D6
:10053000CEE7D2E004C02197FE010E94E118CD373A
:10054000D107C9F70E94DC100C94EC180C94000041
:10055000CF92DF92EF92FF920F931F93CF93DF938F
:100560006C017A018B01C0E0D0E0CE15DF0589F087
:10057000D8016D918D01D601ED91FC910190F08132
:10058000E02DC6010995892B11F47E0102C0219648
:10059000ECCFC701DF91CF911F910F91FF90EF90AA
:1005A000DF90CF900895E3E3F1E08EE290E0918751
:1005B000808788E090E09383828340E050E068E3A6
:1005C00072E4448755876687778728E130E0358372
:1005D000248326E130E037832683148A158A168A1D
:1005E000178A40E050E060EA70E4408B518B628BE8
:1005F000738B1182138612861082E5E2F1E024E506
:1006000030E0318320832EE130E0338322839583F1
:10061000848381E190E09783868382E090E09187F4
:10062000808786E696E6A6EABFE380932F01909343
:100630003001A0933101B09332010895089580E014
:1006400090E008950E94E718DC01ED91FC91019083
:10065000F081E02D0994EF92FF920F931F93CF93B7
:10066000DF938C017B01C0E0D0E0F701EC0FFD1FB0
:100670006491662361F0D801ED91FC910190F081C5
:10068000E02DC8010995892B11F02196EECFCE01FE
:10069000DF91CF911F910F91FF90EF900895611519
:1006A000710579F0FB0101900020E9F73197AF0166
:1006B000461B570BDC01ED91FC910280F381E02D8C
:1006C000099480E090E008954F925F926F927F923C
:1006D000EF92FF920F931F93CF93DF93CDB7DEB7C7
:1006E000A1970FB6F894DEBF0FBECDBF7C01FA0113
:1006F000CB0119A2223008F42AE08E010F5D1F4FB2
:10070000422E512C612C712CBF01A30192010E9439
:10071000A516F901CA01015011096A3014F4605D8F
:1007200001C0695CD8016C93232B242B252B61F726
:10073000B801C7010E944F03A1960FB6F894DEBF1F
:100740000FBECDBFDF91CF911F910F91FF90EF9022
:100750007F906F905F904F900895833081F028F4E0
:10076000813099F08230A1F008958730A9F0883067
:10077000B9F08430D1F4809180008F7D03C08091E6
:1007800080008F7780938000089584B58F7702C0B2
:1007900084B58F7D84BD08958091B0008F7703C0AC
:1007A0008091B0008F7D8093B00008951F93CF9308
:1007B000DF93282F30E0F901E65AFB4F8491F901CD
:1007C000EA5BFB4FD491F901EE5CFB4FC491CC2363
:1007D000C9F0162F81110E94AD03EC2FF0E0EE0F4F
:1007E000FF1FEC57FF4FA591B4918FB7F8941111EB
:1007F00005C09C91ED2FE095E92302C0EC91ED2B13
:10080000EC938FBFDF91CF911F910895CF93DF932A
:1008100090E0FC01EA5BFB4F2491FC01EE5CFB4F96
:100820008491882361F190E0880F991FFC01E658BC
:10083000FF4FC591D491FC01EC57FF4FA591B491A6
:10084000611109C09FB7F89488812095822388831D
:10085000EC912E230BC0623061F49FB7F89438817D
:10086000822F809583238883EC912E2B2C939FBF1E
:1008700006C08FB7F894E8812E2B28838FBFDF91B5
:10088000CF9108951F93CF93DF93182FEB0161E071
:100890000E940604209711F460E004C0CF3FD10508
:1008A00039F461E0812FDF91CF911F910C94D60331
:1008B000E12FF0E0E65AFB4FE491E330F9F048F421
:1008C000E130B9F0E230A1F584B5806284BDC8BDE5
:1008D00034C0E730E9F0E83019F1E43049F58091AF
:1008E0008000806280938000D0938B00C0938A0048
:1008F00024C084B5806884BDC7BD1FC080918000BE
:10090000806880938000D0938900C093880015C0D0
:100910008091B00080688093B000C093B3000DC098
:100920008091B00080628093B000C093B40005C095
:10093000C038D1050CF0B5CFAFCFDF91CF911F916B
:1009400008958E3008F08E508770806480937C000C
:1009500080917A00806480937A0080917A0086FD8D
:10096000FCCF809178002091790090E0922B08953F
:100970003FB7F89480911A0190911B01A0911C013E
:10098000B0911D0126B5A89B05C02F3F19F0019617
:10099000A11DB11D3FBFBA2FA92F982F8827820F05
:1009A000911DA11DB11DBC01CD0142E0660F771F55
:1009B000881F991F4A95D1F708958F929F92AF9201
:1009C000BF92CF92DF92EF92FF926B017C010E9467
:1009D000B8044B015C01C114D104E104F104F1F04D
:1009E0000E94B804DC01CB0188199909AA09BB0946
:1009F000883E9340A105B10570F321E0C21AD108E9
:100A0000E108F10888EE880E83E0981EA11CB11C55
:100A1000C114D104E104F10419F7DDCFFF90EF9088
:100A2000DF90CF90BF90AF909F908F9008951F92CE
:100A30000F920FB60F9211242F933F938F939F9392
:100A4000AF93BF938091500190915101A0915201B9
:100A5000B09153013091190123E0230F2D3720F479
:100A60000196A11DB11D05C026E8230F0296A11D08
:100A7000B11D209319018093500190935101A093CF
:100A80005201B093530180911A0190911B01A091E2
:100A90001C01B0911D010196A11DB11D80931A0189
:100AA00090931B01A0931C01B0931D01BF91AF91C6
:100AB0009F918F913F912F910F900FBE0F901F909C
:100AC000189580914B01882319F080914C0101C049
:100AD00080E08093B4000895CF93DF93EC011F8AE8
:100AE0001D8A1CA21BA2188E10924C0110924D015F
:100AF00010924B010E94610580E790E09E878D87F0
:100B00001B8A1A8A81E0898389E08E8B198E1B8E5D
:100B10001D8EDF91CF910895FC0161110DC0178AE0
:100B2000158A14A213A2108E10924C0110924D013E
:100B300010924B010C94610508951F920F920FB60D
:100B40000F9211242F933F934F935F936F937F9353
:100B50008F939F93AF93BF93EF93FF9360914D015A
:100B6000662321F1809118018F5F80931801909185
:100B70004E018917D8F090914B0181E0892780932D
:100B80004B011092180180914F01882369F08091E8
:100B9000000193E4899F802D1124895B80930001DB
:100BA0000E94AD1890934C010E946105FF91EF9156
:100BB000BF91AF919F918F917F916F915F914F9175
:100BC0003F912F910F900FBE0F901F9018954F924D
:100BD0005F926F927F928F929F92AF92BF92CF92CD
:100BE000DF92EF92FF920F931F93CF93DF93F90160
:100BF000C49031965491EC0108A164350CF018C1F1
:100C00000C2C000CDD08A62F062E000CBB0B7D0162
:100C1000EC0CFD1C1E141F040CF00AC140330CF038
:100C200007C1A52E842E042E000C9908F401E50FAF
:100C3000F11D57FDFA951E161F060CF0F9C02E5F28
:100C40003F4FE6012796D7FD279673E0D595C795C8
:100C50007A95E1F747FF0AC0A52EA40EC89DA00112
:100C6000C99D500D1124241B350B40E0EA2D0A2CA0
:100C7000000CFF0BE40FF11D47FDFA95F1971CF0F6
:100C800050E3A52EA41A67FD60E0F701E535F105F4
:100C900014F0E4E5F0E07E2FFC01D484D426862F06
:100CA000062E000C990BFC01EA1BFB0BDF017F01F8
:100CB000F7E0EF22FF24E0E8F0E002C0F595E795C9
:100CC000EA94E2F71E2FB7FD179653E0B595A79566
:100CD0005A95E1F72A0F3B1FE42FE77051E001C05E
:100CE000550FEA95EAF7459545954595B4E54B02CC
:100CF000800D911D11248C5A9E4FC12C0A2C000C82
:100D0000BB08992493942E015524EC2DF0E0EA15AC
:100D1000FB050CF08DC0F90144910130E1F47C0138
:100D2000A12F862E881AB82DBE0DB71708F077C0F0
:100D3000B42FBA2321F0E701B881B52BB883B0E016
:100D4000B595A795109719F431964491A0E8DFEF77
:100D5000ED1AFD0AE8CF01111FC0752E70947C01B9
:100D6000A12FF901862E881AB82DBE0DB71708F0ED
:100D700056C0B42FBA2321F0E701B881B721B88358
:100D8000B0E0B595A795109719F431964491A0E875
:100D9000DFEFED1AFD0AE8CF033031F07C01A12F1F
:100DA000F901862E881A37C0752E7094862E7C0124
:100DB000A12FF9018716D8F4B42FBA2359F0E7010F
:100DC000B881682C6D2460FE02C0B52B02C0B7212B
:100DD000E701B883B0E0B595A795109719F431965F
:100DE0004491A0E88394DFEFED1AFD0AE3CFD92404
:100DF00016C0B42FBA2321F0E701B881B527B88314
:100E0000B0E0B595A795109719F431964491A0E8F4
:100E1000DFEFED1AFD0AB82DBE0DB71750F3550FD1
:100E200019F48C5A9F4F51E0C394240D351D6DCF9A
:100E3000DF91CF911F910F91FF90EF90DF90CF90B6
:100E4000BF90AF909F908F907F906F905F904F90EA
:100E50000895FC01643508F053C0403308F050C0D9
:100E600090A1742F759575957595262F062E000CFB
:100E7000330B542F57709230A1F4F901EC5AFE4F06
:100E800084E57802E00DF11D1124808190E0052EAB
:100E900002C0959587950A94E2F78095982F9170F6
:100EA0000AC0933041F48485817046274095417093
:100EB000841303C014C0911112C084E57802200D80
:100EC000311D1124F901EC5AFE4F81E090E001C080
:100ED000880F5A95EAF780959081892310C084E5A0
:100EE0007802200D311D1124F901EC5AFE4F81E0EA
:100EF00090E001C0880F5A95EAF79081892B808392
:100F00000895BF92CF92DF92EF92FF920F931F93BB
:100F1000CF93DF931F92CDB7DEB77C01D62EC42EC0
:100F2000002E000C110B040F111D47FD1A954C2DBE
:100F30000C2C000C550B401751077CF4B12CB21649
:100F400054F46B2D6D0D4C2DC70129830E94290788
:100F5000B3942981F4CFC394EACF0F90DF91CF915E
:100F60001F910F91FF90EF90DF90CF90BF90089569
:100F70006F927F928F929F92AF92BF92CF92DF92A9
:100F8000EF92FF920F931F93CF93DF93EC016A30A0
:100F900019F42D819885A1C06D3009F4A4C018857D
:100FA000BA84D98488A083E58D150CF47FC08FE2C4
:100FB0008B150CF47BC08C8190E00197189F9001F9
:100FC000199F300D1124C9018D0D911DD7FC9A95E3
:100FD000181619060CF06AC08D81819FC00111247A
:100FE0008B0D911DB7FC9A95181619060CF05EC072
:100FF0009D2CCD2CE62EF12CEC2DED190E2E000C97
:10100000FF0B8C8190E0E817F9070CF04EC00197B8
:10101000E817F90779F0E89E9001E99E300DF89EF7
:10102000300D1124E20FF31F8E8D9F8DE80FF91FF5
:10103000749001C0712C6B2CAB2C2A2D2B19022E15
:10104000000C330B8D8190E0281739075CF570FE9A
:1010500010C0113031F44A2D6C2DCE010E942907A9
:101060001DC0012F212F462D692DCE010E94810721
:1010700015C089A198A1891789F088A3113031F48E
:101080004A2D6C2DCE010E94290707C0012F212F68
:10109000462D692DCE010E94810788A27694A394E3
:1010A000610ECBCFC394910EA7CF88A228853C8137
:1010B0008985329F800D112489879F81992399F01A
:1010C000082E000C990B44E550E0239F401951096C
:1010D0001124481759073CF49D818A85299F800D6A
:1010E00011248A87198681E090E0DF91CF911F91CA
:1010F0000F91FF90EF90DF90CF90BF90AF909F90B7
:101100008F907F906F9008954F925F926F927F9231
:101110008F929F92AF92BF92CF92DF92EF92FF9207
:101120000F931F93CF93DF9300D000D01F92CDB7C2
:10113000DEB74091D4035091D5036091D6037091EE
:10114000D7032FB7F8948091500190915101A0914D
:101150005201B09153012FBF481B590B6A0B7B0BF7
:101160008091D30390E0A0E0B0E00091CF03109114
:10117000D0032091D1033091D20384179507A6079D
:10118000B70730F4011511052105310509F03BC3FE
:10119000012B022B032B09F034C380916B03815088
:1011A0008E3F18F580916A03813021F580917E038E
:1011B0008F5F60917F0387FD09C0082E000C990B9B
:1011C00070E06F5F7F4F0E94B918682F60937E03B5
:1011D00084ED93E09093D9038093D80388E48093BF
:1011E000DA0389E793E00E946C0580916B038150DC
:1011F0008E3F70F480916903813009F0B0C387ECB1
:1012000093E09093D9038093D80388E48093DA0322
:1012100080E00E94E20D80917A03882309F4ADC03A
:1012200080918E038111A9C08091860390918703DC
:10123000E0918B03F0918C03EE0FFF1FE80FF91F75
:10124000459154914115510501F520918A032223BE
:1012500031F010928C0310928B03FC0114C0109299
:101260007A0380917903882341F080E00E94E20DA7
:10127000E0918B03F0918C032FC060E089E793E04D
:101280000E948C057AC0459154919A013695279514
:101290003695279540FF51C0CA0116E0969587956F
:1012A0001A95E1F78F71952F969596959695905191
:1012B0002F70223071F1F8F4211117C08B3008F033
:1012C0008AE080938F03E0918B03F0918C03319639
:1012D000F0938C03E0938B03EE0FFF1F8091860346
:1012E00090918703E80FF91FCECF213061F760E0BE
:1012F0000E944F0EE8CF2330B1F0243021F7209127
:101300007D03829F802D11248093960390939703F1
:10131000DACF20917D03829F802D11248093920348
:1013200090939303D0CF20917D03829F802D112431
:101330008093940390939503C6CF2F7320938D03CE
:1013400080917D03859F802D112480938E031092C0
:101350009E0310929D0310929C0381E08093900362
:1013600080934B011092910380918B0390918C0399
:10137000019690938C0380938B0380919003882334
:1013800009F4F3C080918E03811106C060E089E703
:1013900093E00E948C05E9C0815080938E03809178
:1013A0009E03811148C020919C0330919D032F5FC3
:1013B0003F4FC901880F991FE0919803F09199035D
:1013C000E80FF91F65917491862F877080939F03B2
:1013D000AB01E3E056954795EA95E1F7CA0196958A
:1013E0008795972F969596959093A0038F739091DC
:1013F0007D03899F802D112480939E03417040932B
:101400004F0130939D0320939C0380919A0390E0B9
:101410002817390780F020919B03222339F0821B83
:10142000910990939D0380939C0305C060E089E738
:1014300093E00E948C0580919E03815080939E03CF
:101440008091910321E0280F2093910340918D0317
:101450003091A003340F80918503380F30937B03C4
:1014600060919403662371F070E0822F022E000CCD
:10147000990B0E94B91880919503869F300D112415
:1014800030937B0380917B0390E0849664E270E06C
:101490000E94B91880937B0330918F0330937C03B3
:1014A00060919203662381F0062E000C770B822F49
:1014B000022E000C990B0E94B91880919303869F0D
:1014C000300D112430937C03609196036623A1F0C4
:1014D000822F220F990B70E00E94B918CB0162E0B5
:1014E00070E00E94B9182091970390917C03289F87
:1014F000900D112490937C0380917C034F3341F035
:101500008A300CF089E087FD80E080937C0302C084
:1015100010927C03F894E0917B03F0E0ED50FE4FD5
:10152000E491E0934E0130917C032091A1033203BA
:101530009001112440919F034203C001439F900DED
:10154000112400907E0302C0880F991F0A94E2F7CD
:1015500097FF02C081589F4F880F892F881F990BD2
:1015600080934D0180934C0178948091DA03882315
:1015700009F48FC08C3020F49CE0E92EE81A01C0F9
:10158000E12CFF24F394F092AA031092C20310926C
:10159000C3033091A7034DE2D42E1D2D131B1E0D46
:1015A00003E0030F2EE4412F63E082EA93E03D83E2
:1015B0000E9481073D810CEF030F1D5F202F41E04A
:1015C000612F80E50E94200F202F42E0612F83E0F1
:1015D0000E94200FF092C203F092C3030091A70370
:1015E00013E0100FD01ADE0C23E04D2D622F82EA9B
:1015F00093E02D830E9429072D812F5F2135A9F7C4
:101600001D0DFF24FA94F10E23E04F2D622F82EA84
:1016100093E02D830E9429072D812F5F2135A9F7A3
:10162000035033E0D30E402F6D2D80E00E94080F51
:10163000402F6D2D83E50E94080F41E06D2D83E062
:101640000E948A0E42E06D2D80E50E948A0E1450A1
:1016500044E0612F80E50E948A0E48E0612F83E01C
:101660000E948A0E84E08093AB038091A703E81A5E
:101670008E2D815D8093AC036091D8037091D90366
:1016800082EA93E00E942B038091DA0381508093D9
:10169000DA038091700390917103892B09F489C05A
:1016A00011E01093C2031092C3039091A60385E545
:1016B000891B8093AB031092AC0360916D03613082
:1016C00009F458C030F080916C03653008F06AC0AE
:1016D00065C060E089E793E00E948C0510927A0370
:1016E0001093AA03E5E4F2E0E491EF5FE093A60330
:1016F000E6E4F2E0E491EF5FE093A70387E492E091
:101700009093C1038093C0031092710310927003F1
:101710001092A80318EA0E9484088823E1F367E383
:1017200072E082EA93E00E942B0340916E03509195
:101730006F0360E070E02AE082EA93E00E946403B5
:1017400062E272E082EA93E00E942B03612F6295CD
:101750006F7070E082EA93E00E947B0F67E172E0B5
:1017600082EA93E00E942B0380916903813009F0A3
:10177000FCC01FC08091C5039091C603A091C70310
:10178000B091C8038F709927AA27BB270897A10596
:10179000B10510F467E009C068E707C0882349F085
:1017A0006B5F03C0882329F06FE282EA93E00E9416
:1017B00024030E94580D8091A80381110EC088EF68
:1017C00091E0E4E5F1E0DF019C011D922150304001
:1017D000E1F71092AB031092AC030E94B80460933F
:1017E000CF037093D0038093D1039093D2032091C1
:1017F000CB033091CC03621B730B7093CA036093CD
:10180000C90380E0CCC02FB7F8948091500190912B
:101810005101A0915201B09153012FBF2091D303E8
:10182000820F911DA11DB11D8093D4039093D50308
:10183000A093D603B093D7038091C5039091C603BC
:10184000A091C703B091C8030196A11DB11D80935B
:10185000C5039093C603A093C703B093C803109227
:10186000CF031092D0031092D1031092D2030E94A2
:10187000B8046093CB037093CC038093CD03909313
:10188000CE0380915503909156032FE0289F80014D
:10189000299F100D112485E10E94A104800F911F42
:1018A00024E0969587952A95E1F7909356038093C7
:1018B000550320915403222309F44BC0609158032F
:1018C000262F30E040E050E029833A834B835C834D
:1018D000C0905903D12CE12CF12C40915C03509124
:1018E0005D034A01A12CB12C20915A0330915B0376
:1018F0002901612C712C8217930728F09C0148174D
:10190000590708F49A01C901A0E0B0E09C01AD01BB
:10191000241935094609570969817A818B819C818F
:101920006C197D098E099F090E949D18A5019401DB
:1019300024193509460957090E947B16C20ED31E89
:10194000E41EF51EC09257036C2D70E085E00E94E6
:1019500042040E94E50C0E94B10F81E020C0893250
:1019600009F056CC0E94AB0D53CC115009F0D3CEE8
:1019700060E070E085E00E94420483B7817F84606C
:1019800083BF83B7816083BF83B7816083BF88953E
:1019900083B78E7F83BF83B78E7F83BFBCCE0F900C
:1019A0000F900F900F900F90DF91CF911F910F919B
:1019B000FF90EF90DF90CF90BF90AF909F908F906F
:1019C0007F906F905F904F900895CF92DF92EF924B
:1019D000FF920F931F93CF93DF93CEE5D3E005E6FD
:1019E00013E0FF24FA9497E0E92EE00E62E088818C
:1019F0000E940604288130E0F901E65AFB4F8491E9
:101A0000F901EA5BFB4FC490F901EE5CFB4FD49007
:101A1000DD2071F081110E94AD03ED2DF0E0EE0F9D
:101A2000FF1FE85DFB4FA591B491EC91EC21B1F45F
:101A3000F80180818F5F808360E088810E940604C6
:101A400021960F5F1F4FE012D1CFDF91CF911F91F1
:101A50000F91FF90EF90DF90CF900895F801808173
:101A6000882371F3F8018F3F11F41082E5CFF082E3
:101A7000E3CFCF93C82FF89460E08091B1030E9428
:101A8000D6038091B20318161CF460E00E94D603BE
:101A9000CEBD00000DB407FEFDCF8EB58091B20320
:101AA00018161CF461E00E94D6037894CF91089533
:101AB0000F931F93CF938091AE038F5F8093AE03FC
:101AC00004E511E0C0E08C2F80640E94390D80E8AD
:101AD0000E94390D61E08091B1030E94D60380918C
:101AE000B20318161CF460E00E94D60380E090E078
:101AF000F801E80FF91F20812EBD00000DB407FE8C
:101B0000FDCF2EB501968435910591F78091B203F2
:101B100018161CF461E00E94D603CF5F0C5A1F4FC9
:101B2000C63089F680E4CF911F910F910C94390D46
:101B3000CF93DF93BC0182EA93E00E942B03EC0178
:101B40006DE071E082EA93E00E944F038C0F9D1FCD
:101B5000DF91CF91089588EF91E0E4E5F1E0DF01B6
:101B60009C011D9221503040E1F71092AB0310927E
:101B7000AC0360E074E082EA93E00E942B030E94D1
:101B8000580D8CB583608CBD8DB58E7F8DBD80E189
:101B900091E0EEEFFFE309951092A8038BED93E03F
:101BA0000E94980D0E94580D0E94E50C80916903D7
:101BB000813039F062E370E080E090E00E94DD0463
:101BC000F3CF0895AF92BF92CF92DF92EF92FF9240
:101BD0000F931F93CF93DF93C82ED12CE601CC5ADD
:101BE000DC4F9DA1992309F44FC07E019FEFE91AB4
:101BF000F90AF70195A1911147C09EA58601000F32
:101C0000111F0C5A1C4FF80134A525A5E32FF22F04
:101C1000E90FF11DE90FF11D259134912F3FFFEFE1
:101C20003F0711F41DA230C039ABF601EE0FFF1FC4
:101C3000E25AFC4F3327220F331F05A0F6A1E02DF7
:101C4000E20FF31FA590B49081111AC060E089E7FC
:101C500093E00E948C05F801B3AAA2AAF601EE0F48
:101C6000FF1FEA59FC4F16A215A281E0F70185A3D8
:101C700089E08BAF1EAEFE017B9615A2329615A2AF
:101C800029968DA18F5F8DA3DF91CF911F910F9129
:101C9000FF90EF90DF90CF90BF90AF90089570E0ED
:101CA000DB01AA0FBB1FAC5ABC4FD4962C91D49722
:101CB000D5969C91D597E22FF92FE80FF11DE80FEB
:101CC000F11D259134915F9696963C932E939597AE
:101CD000F9018591949190917D03989F802D112415
:101CE0006C5A7C4FFB01B19685A3F901A591B49183
:101CF0004B2F50E0E82FF0E04E175F0720F4F9017A
:101D000025913491832FFB01B296899F802D112458
:101D100085A30895AF92BF92CF92DF92EF92FF9288
:101D20000F931F93CF93DF93182F062FC1E0D3E0BB
:101D30008AEFD82E9EEFE92E842F8470C82E842F30
:101D40008270B82E842F8870A82E4170F42E8C2FAC
:101D5000880F8F5FE80ECC2081F04D2F400F6C2F45
:101D6000610F82EA93E00E9429074C2F400F6D2FEC
:101D7000610F82EA93E00E942907BB2081F0402F87
:101D80004D1B6C2F610F82EA93E00E942907402FC0
:101D90004C1B6D2F610F82EA93E00E942907AA2055
:101DA00081F04C2F400F612F6D1B82EA93E00E945F
:101DB00029074D2F400F612F6C1B82EA93E00E9490
:101DC0002907FF2081F0402F4C1B612F6D1B82EAF9
:101DD00093E00E942907402F4D1B612F6C1B82EA64
:101DE00093E00E942907CD1744F4E7FC04C0D150CA
:101DF000D394D394ED0CCF5FAACFDF91CF911F91F5
:101E00000F91FF90EF90DF90CF90BF90AF9008952B
:101E10000F931F93CF93DF93182F062FD42FC0E07B
:101E2000CD174CF44C2F400F612F82EA93E00E94B3
:101E30002907CF5FF5CFDF91CF911F910F910895C3
:101E40009F92AF92BF92CF92DF92EF92FF920F9349
:101E50001F93CF93DF93F82EE62EB22E03E0020FEE
:101E6000D0E0C3E08AEFC82E1EEF842F8170982E39
:101E7000AA24A394A20E4270D42EDF5F802F8B1968
:101E8000180F992081F04C2F440F4A0D6E2D6C1BBA
:101E90008D2F8F0D0E94080F402F6E2D6D1B8C2FE4
:101EA0008F0D0E94080FDD2081F04C2F440F4A0D4A
:101EB0006E2D6C1B8F2D8D1B0E94080F402F6E2DD9
:101EC0006D1B8F2D8C1B0E94080FDC1744F417FD2F
:101ED00004C0C150C394C3941C0D0E5FCECFDF91DC
:101EE000CF911F910F91FF90EF90DF90CF90BF9017
:101EF000AF909F900895CF92DF92EF92FF920F9351
:101F00001F93CF93DF936B01770FEE08FF08F7FE67
:101F10001BC0EC016DE20E9424038C01442755276D
:101F2000BA014C195D096E097F092AE0CE010E94B1
:101F30006403800F911FDF91CF911F910F91FF904C
:101F4000EF90DF90CF9008952AE0B701A601DF91CE
:101F5000CF911F910F91FF90EF90DF90CF900C9455
:101F600064038091700390917103892BB1F180918A
:101F700078038F7169F584E10E94A104BC01990F77
:101F8000880B990B0E947B1726EE3FE34EEC50E442
:101F90000E940C180E944A179B0170936F03609374
:101FA0006E03672B91F084E080936D03E0E7F3E02C
:101FB00080E0419151912417350718F480936D0307
:101FC00008958F5F8430A9F703C08FEF80936D036E
:101FD000809178038F5F809378030895CF92DF928A
:101FE000EF92FF921F93CF93DF93EC0181E08093F8
:101FF000AA031092A9031092A80310926C03809375
:10200000C2038093C3031CE00E9484088823E1F389
:10201000FE0184912AE834E040E060E082EA93E047
:102020000E94E7051092AB031093AC03BE0182EA55
:1020300093E00E942B038091A603982F990F890F9C
:1020400081958D5A8093AB038091A703982F990FA8
:10205000890F8195835D8093AC038091C50384FFD4
:1020600003C086E894E002C082E894E00E94980DE4
:102070008091A603982F990F890F81958D5A80938F
:10208000AB038091AC038F5F8093AC0380917E03A0
:10209000882319F08EE794E002C08AE794E00E945A
:1020A000980D9091A603892F880F980F91959D5AAE
:1020B0009093AB038091AC038F5F8093AC0386E772
:1020C00094E00E94980D80916A038130C1F42091C0
:1020D0007E032F5F90917F0327FD0BC0022E000C23
:1020E000330B692F70E06F5F7F4FC9010E94B918F1
:1020F000982F90937E0389E793E00E946C0580916E
:1021000069038130A9F08091C403482F50E060E05A
:1021100070E0C090C503D090C603E090C703F09074
:10212000C803C416D506E606F706F0F18F3FE1F1C5
:102130008FEF8093C40360E089E793E00E948C05F1
:1021400010927A031092900310928E0310929D03C6
:1021500010929C031092910310924C0110924D0129
:1021600010924B010E9461058EE694E090938703E4
:102170008093860310928C0310928B0381E08093EE
:102180007A0399E090938F03109292031092940334
:102190001092960380936C03DF91CF911F91FF9073
:1021A000EF90DF90CF90089580916B03813009F01C
:1021B0002BCF0E94AB0D28CFCF93DF9300D000D060
:1021C00000D0CDB7DEB7789484B5826084BD84B585
:1021D000816084BD85B5826085BD85B5816085BD22
:1021E00080916E00816080936E00109281008091DA
:1021F0008100826080938100809181008160809362
:102200008100809180008160809380008091B10086
:1022100084608093B1008091B00081608093B000B1
:1022200080917A00846080937A0080917A00826045
:1022300080937A0080917A00816080937A00809107
:102240007A00806880937A001092C1000E94D302C5
:1022500082E38093D30381E090E0A0E0B0E080933C
:10226000CF039093D003A093D103B093D2038FEF09
:102270008093C403E0E8F7E7259134912130304C96
:1022800009F049C0E6E9F7E7E491E093AD03E7E937
:10229000F7E7E491E0935803E8E9F7E7E491E09386
:1022A0005903E9E9F7E78591949190935B03809353
:1022B0005A03EBE9F7E78591949190935D0380933E
:1022C0005C0387E080937F03EEE9F7E7E491E09316
:1022D0007E03EFE9F7E7E491E093C403E0EAF7E770
:1022E000859194919093710380937003E2EAF7E7EC
:1022F000859194919093730380937203E4EAF7E7D6
:10230000859194919093750380937403E6EAF7E7BF
:10231000859194912CC09CE39093AD031092580347
:102320008093590380E293E090935B0380935A0378
:1023300084ED93E090935D0380935C0387E080934A
:102340007F0380937E038CEA9DE0909371038093DA
:1023500070038EED9DE0909373038093720384E786
:102360009EE090937503809374038CE39FE09093B9
:1023700077038093760311E0109354036FEF70E0BE
:1023800085E00E94420488E080935E0389E08093A8
:102390005F0387E08093600386E08093610304E03D
:1023A0000093620382E08093630381E1809364037E
:1023B0000E94E50C8CE39FE090936F0380936E0383
:1023C00000936D03109378038BE08093B0038DE04E
:1023D0008093AF0380E18093B1038EE08093B303D9
:1023E0008FE08093B2031093AA031093C20310925C
:1023F000C3031093A903E5E4F2E0E491EF5FE093F7
:10240000A603E6E4F2E0E491EF5FE093A70387E43C
:1024100092E09093C1038093C0031FB7F89480911A
:102420001E01811127C0ECE3F4E08491E0E5F4E0C3
:102430009491E82FF0E0EE0FFF1FE658FF4FA591B3
:10244000B491EC91E92321F461E08AE00E94D60383
:1024500061E08AE00E9406048CB580618CBD8CB579
:1024600080648CBD61E08DE00E94060461E08BE039
:102470000E94060480911E018F5F80931E011FBF82
:102480008CB58F7D8CBD8CB58C7F81608CBD8DB5FE
:1024900081608DBD8CB58C608CBD61E08091B00396
:1024A0000E94060461E08091AF030E94060461E08F
:1024B0008091B1030E9406048091B30318161CF4A6
:1024C00061E00E9406048091B20318161CF461E0DA
:1024D0000E9406048091B303181674F460E00E9411
:1024E000D6036AE070E080E090E00E94DD0461E0E5
:1024F0008091B3030E94D6038091AF03082E000C95
:10250000990BFC01EE5CFB4FE491F0E0EE0FFF1F36
:10251000EC57FF4F259134913093B7032093B603C6
:10252000FC01EA5BFB4FE491E093BD038091B003B3
:10253000082E000C990BFC01EE5CFB4FE491F0E0DF
:10254000EE0FFF1FEC57FF4F259134913093B503E9
:102550002093B403FC01EA5BFB4FE491E093BC03DE
:102560008091B203082E000C990BFC01EE5CFB4F2E
:10257000E491F0E0EE0FFF1FEC57FF4F25913491EF
:102580003093B9032093B803FC01EA5BFB4FE4915D
:10259000E093BE038091B103082E000C990BFC015F
:1025A000EE5CFB4FE491F0E0EE0FFF1FEC57FF4FA6
:1025B000259134913093BB032093BA03FC01EA5B6D
:1025C000FB4FE491E093BF0381E20E94390D84E167
:1025D0000E94390D8091AD0387FF03C08FE7809380
:1025E000AD038091AD0380680E94390D80E20E94A6
:1025F000390D8CE00E94390D0E94580D11E01093A6
:102600007D0384E08093A10386E790E090938903A3
:102610008093880360E080E00E944F0E61E070E0EC
:1026200083E00E9442048091B100887F81608093A2
:10263000B100F894109280001092810010928500F1
:102640001092840088E191E0909389008093880043
:1026500080918100886080938100809181008160F9
:102660008093810080916F00826080936F007894E6
:102670000E94B10F80916A03813019F410927E0399
:102680001EC080916D038823C9F360E089E793E061
:102690000E948C058EE890E09093870380938603D8
:1026A00010928C0310928B0310937A0389E080932D
:1026B0008F0310929203109294031092960384E673
:1026C0008093D30381E080937D038091C4038823AA
:1026D00021F08CE990E00E94EE0F10926C0310E85C
:1026E000212E312C0E948408882309F4E8C28091AD
:1026F0003301811167C180913D0190913E010196A6
:1027000090933E0180933D0120912F013091300143
:10271000409131015091320160914701709148011F
:102720008091490190914A010E94D7166093470118
:10273000709348018093490190934A0120913F0191
:102740003091400140914101509142010E94D716C1
:102750004B015C0160933F01709340018093410104
:1027600090934201809125019091260120912D01A5
:1027700030912E01821B930B9C01275F3F4F2E351A
:10278000310510F084E590E09093260180932501B7
:1027900060913B0170913C01072E000C880B990B56
:1027A0000E947B176B017C019B01AC01C501B40148
:1027B0000E94071818169CF4C0923F01D092400165
:1027C000E0924101F09242011092470110924801BB
:1027D0001092490110924A0191E0909334010091C6
:1027E000270110912801E0902501F09026014090EA
:1027F0003F01509040016090410170904201609112
:10280000390170913A01E0913501F0913601FC8374
:10281000EB83EFEAF1E08491882E912CE0EBF1E07C
:10282000F491F983ECE9F1E08491EDE9F1E0F491C0
:10283000FA83AB80BC80A80CB91CEA14FB040CF032
:10284000C1C06701C80ED11C4B815C814C155D0570
:102850000CF0B8C0072E000C880B990B0E947B1758
:102860009B01AC01C301B2010E94D6160E9443171E
:102870009B015981452E512CF201E60FF71FFE8373
:10288000ED830E171F070CF09DC0D801FA81AF0F22
:10289000B11D6A177B070CF095C04B815C814E150A
:1028A0005F050CF01AC2A701EB81FC814E1B5F0B88
:1028B000201731070CF00AC23801661A770AAC14E7
:1028C000BD042CF04601EB81FC818E1A9F0AED813C
:1028D000FE81EA17FB071CF02D01461A570A862DC8
:1028E0005B815E19201BE82EF12CE414F5040CF03A
:1028F00069C0942FC22EC80ED12CA92FB0E0A81504
:10290000B9050CF0E8C1EFEAF1E00491FD01A3E0A4
:10291000F595E795AA95E1F710E0095F1F4FB3E041
:1029200015950795BA95E1F7E09ED001E19EB00DAF
:10293000F09EB00D1124EA0FFB1FEF54FE4FE491FF
:10294000F0E0392F3770D10102C0B595A7953A95BF
:10295000E2F7EA23FB23EF2B09F4BBC1ECE9F1E03A
:102960000491352F390FE32FF0E063E0F595E795FB
:102970006A95E1F710E0095F1F4F73E01595079521
:102980007A95E1F7C09ED001C19EB00DD09EB00DEA
:102990001124EA0FFB1FE256FE4FE491F0E037707E
:1029A000D10102C0B595A7953A95E2F7EA23FB233A
:1029B000EF2B09F48EC189E793E00E946C0551E08A
:1029C0005093330180916A038D7F813019F5809196
:1029D0003301882319F00E94D3021CC08091340176
:1029E0008823C1F01092340120E030E040E251E44D
:1029F00060914701709148018091490190914A018D
:102A00000E94D61660934701709348018093490154
:102A100090934A0180916B03813041F48091C4030B
:102A2000882321F08BE891E00E94EE0F80916603ED
:102A3000813051F5C0904301D0904401E0904501B0
:102A4000F090460120E030E0A901C701B6010E94E4
:102A50000718181684F420E030E040E85FE3C7016F
:102A6000B6010E94D616609343017093440180938F
:102A700045019093460180912D0190912E01019680
:102A800090932E0180932D01809133018823D9F1F9
:102A90006091390170913A01072E000C880B990B57
:102AA0000E947B179B01AC0160913F017091400136
:102AB00080914101909142010E94D6160E944317D5
:102AC000462F27E431E06091350182EA93E00E94CD
:102AD000E70580913D0190913E01209123013091C5
:102AE0002401281739070CF0B6C090932401809375
:102AF000230148E351E05093D9034093D80350E2B7
:102B00005093DA03A8C080913401882309F482C06D
:102B1000C0904301D0904401E0904501F0904601FF
:102B20006091210170912201072E000C880B990BF6
:102B30000E947B179B01AC01C701B6010E940718D8
:102B400087FD19C080911F0190912001019682306C
:102B500091052CF49093200180931F0104C01092E2
:102B6000200110921F01C701B6010E944317709304
:102B700022016093210180911F0190912001009713
:102B8000E1F46091390170913A01072E000C880B35
:102B9000990B0E947B179B01AC0160913F017091E2
:102BA000400180914101909142010E94D6160E94FD
:102BB0004317462F21EF30E01DC0019709F56091C2
:102BC000390170913A01072E000C880B990B0E9475
:102BD0007B179B01AC0160913F0170914001809196
:102BE0004101909142010E94D6160E944317462F40
:102BF0002FEA31E06091350182EA93E00E94E70517
:102C0000809121019091220101979093220180935C
:102C1000210121C06091390170913A01072E000C09
:102C2000880B990B0E947B179B01AC0160913F01BF
:102C30007091400180914101909142010E94D6160D
:102C40000E944317462F2DEA30E06091350182EA59
:102C500093E00E94E7052CE931E040912701609163
:102C6000250182EA93E00E94E70510E04AE2612F25
:102C700082EA93E00E9429071F5F1535B9F780911A
:102C80002301909124011816190674F465E371E08C
:102C900082EA93E00E942B0360912301709124014A
:102CA00082EA93E00E947B0F8CE38093AB036091F8
:102CB0003D0170913E0182EA93E00E947B0FE0E0CB
:102CC000F0E0309709F40ECD09950CCD612C712CF4
:102CD000F6CD9F5F12CE8F5F06CE40E050E0E8CD8C
:102CE0001092A5031092A40385E091E09093A303B2
:102CF0008093A2030895052E97FB1EF400940E9472
:102D0000921657FD07D00E94A51607FC03D04EF47B
:102D10000C94921650954095309521953F4F4F4F0A
:102D20005F4F089590958095709561957F4F8F4F77
:102D30009F4F08950E94C716A59F900DB49F900DB8
:102D4000A49F800D911D11240895A1E21A2EAA1BA3
:102D5000BB1BFD010DC0AA1FBB1FEE1FFF1FA2174B
:102D6000B307E407F50720F0A21BB30BE40BF50B48
:102D7000661F771F881F991F1A9469F760957095D1
:102D8000809590959B01AC01BD01CF010895A29F54
:102D9000B001B39FC001A39F700D811D1124911D2F
:102DA000B29F700D811D1124911D08955058BB27AD
:102DB000AA270E94EE160C94CD170E94BF1738F078
:102DC0000E94C61720F039F49F3F19F426F40C94A2
:102DD000BC170EF4E095E7FB0C94B617E92F0E94A0
:102DE000DE1758F3BA17620773078407950720F0B8
:102DF00079F4A6F50C9400180EF4E0950B2EBA2F7A
:102E0000A02D0B01B90190010C01CA01A0011124F0
:102E1000FF27591B99F0593F50F4503E68F11A169C
:102E2000F040A22F232F342F4427585FF3CF46952D
:102E300037952795A795F0405395C9F77EF41F164F
:102E4000BA0B620B730B840BBAF09150A1F0FF0F19
:102E5000BB1F661F771F881FC2F70EC0BA0F621F05
:102E6000731F841F48F4879577956795B795F795F5
:102E70009E3F08F0B0CF9395880F08F09927EE0F8A
:102E80009795879508950E944A176894B1110C94FC
:102E9000011808950E94E61788F09F5798F0B92FFF
:102EA0009927B751B0F0E1F0660F771F881F991F7F
:102EB0001AF0BA95C9F714C0B13091F00E94001809
:102EC000B1E008950C940018672F782F8827B85F19
:102ED00039F0B93FCCF3869577956795B395D9F7D7
:102EE0003EF490958095709561957F4F8F4F9F4FE1
:102EF0000895E89409C097FB3EF4909580957095ED
:102F000061957F4F8F4F9F4F9923A9F0F92F96E935
:102F1000BB279395F695879577956795B795F111AA
:102F2000F8CFFAF4BB0F11F460FF1BC06F5F7F4F47
:102F30008F4F9F4F16C0882311F096E911C0772359
:102F400021F09EE8872F762F05C0662371F096E862
:102F5000862F70E060E02AF09A95660F771F881F31
:102F6000DAF7880F9695879597F9089597F99F67EF
:102F700080E870E060E008959FEF80EC0895002401
:102F80000A941616170618060906089500240A94CE
:102F900012161306140605060895092E0394000C54
:102FA00011F4882352F0BB0F40F4BF2B11F460FFE3
:102FB00004C06F5F7F4F8F4F9F4F089557FD90580C
:102FC000440F551F59F05F3F71F04795880F97FBED
:102FD000991F61F09F3F79F08795089512161306A7
:102FE0001406551FF2CF4695F1DF08C016161706D6
:102FF0001806991FF1CF869571056105089408950B
:10300000E894BB2766277727CB0197F908950E949C
:10301000791808F48FEF08950E941F180C94CD17AB
:103020000E94BF1738F00E94C61720F0952311F0B8
:103030000C94B6170C94BC1711240C9401180E9420
:10304000DE1770F3959FC1F3950F50E0551F629FF7
:10305000F001729FBB27F00DB11D639FAA27F00DF1
:10306000B11DAA1F649F6627B00DA11D661F829F18
:103070002227B00DA11D621F739FB00DA11D621FFD
:10308000839FA00D611D221F749F3327A00D611D1A
:10309000231F849F600D211D822F762F6A2F1124FC
:1030A0009F5750409AF0F1F088234AF0EE0FFF1F2F
:1030B000BB1F661F771F881F91505040A9F79E3F86
:1030C000510580F00C94B6170C9401185F3FE4F39F
:1030D000983ED4F3869577956795B795F795E795DC
:1030E0009F5FC1F7FE2B880F911D9695879597F9E5
:1030F0000895990F0008550FAA0BE0E8FEEF161689
:103100001706E807F907C0F012161306E407F507DB
:1031100098F0621B730B840B950B39F40A2661F04F
:10312000232B242B252B21F408950A2609F4A140F2
:10313000A6958FEF811D811D0895DB018F939F93CD
:103140000E949A16BF91AF91A29F800D911DA39FDF
:10315000900DB29F900D11240895991B79E004C041
:10316000991F961708F0961B881F7A95C9F78095C6
:10317000089597FB072E16F4009407D077FD09D029
:103180000E94CD1807FC05D03EF4909581959F4F85
:103190000895709561957F4F0895AA1BBB1B51E15F
:1031A00007C0AA1FBB1FA617B70710F0A61BB70BB7
:1031B000881F991F5A95A9F780959095BC01CD015C
:1031C0000895EE0FFF1F0590F491E02D099481E022
:0C31D00090E0F8940C94EC18F894FFCFF9
:1031DC000100000000B807A8021F031E030D0A001F
:0831EC004C4F41444552000024
:00000001FF
