:100000000C9475020C949D020C949D020C949D021C
:100010000C949D020C949D020C949D020C949D02E4
:100020000C949D020C949D020C949D020C946E0500
:100030000C949D020C949D020C949D020C949D02C4
:100040000C94E8040C949D020C949D020C949D0267
:100050000C949D020C949D020C949D020C949D02A4
:100060000C949D020C949D020101FF030101F70312
:100070001816001FE0003FF00037F0003FF0003F8F
:10008000F0003FF0003E00003FC0807C0081FC009B
:10009000C3FF00E7FD00FFFC00FFFC007FF8003F0E
:1000A000F8001FF0000FE0000760000620000420A9
:1000B000000630001816001FE00031F00035F00097
:1000C00031F0003FF0003FF0003E00003FC0807C78
:1000D0000081FC00C3FF00E7FD00FFFC00FFFC0007
:1000E0007FF8003FF8001FF0000FE00007600006F7
:1000F00020000420000630001816001FE0003FF02A
:100100000037F0003FF0003FF0003FF0003E0000FD
:100110003FC0807C0081FC00C3FF00E7FD00FFFCC6
:1001200000FFFC007FF8003FF8001FF0000FE00028
:100130000720000630000400000600001816001F0B
:10014000E0003FF00037F0003FF0003FF0003FF0EC
:10015000003E00003FC0807C0081FC00C3FF00E740
:10016000FD00FFFC00FFFC007FF8003FF8001FF0DF
:10017000000FE000046000062000002000003000B6
:1001800008111818181B1BDBDBDBDED878181818D1
:100190001818184500680100006C00680000000095
:1001A00000240027002A0000000000250028002B62
:1001B00000050089300802380249786814000044BC
:1001C000692D6E6F2D636F6E6E656374696F6E005F
:1001D00044692D6E6F2D636F6E6E656374696F6E0B
:1001E00000F6E8DBCFC3B8AEA49B928A827B746E24
:1001F00068625C57524E4945413E3A3734312E2CA5
:1002000029272523210A0A153A49676E6F7265006E
:100210006D560A0A504C45415345205455524E20C4
:100220004F464620004C4F572042415454455259A6
:1002300021200003053F213F1208120A100A0E1C5C
:100240000E0C1E0C141A14161F161E131E1E1B1E37
:100250001E1F1E3F213F3A2F3A173D173F213F18DF
:100260001F02040A041F0E04040E1F0A1F0A0E0EAA
:100270001F04110E2E252E2F2A2E262929021F0299
:10028000081F08150E04040E150E15151B151B046A
:100290000604040C040000000017000300031F0AFA
:1002A0001F16371A1904130A153A000300000E111D
:1002B000110E000A040A040E0400300004040400B5
:1002C00010001804031F111F121F101D1517111500
:1002D0001F07041F17151D1F151D01011F1F151FC7
:1002E00017151F000A00003200040A110A0A0A1139
:1002F0000A040115020E11171E051E1F150A0E1104
:100300000A1F110E1F15111F05010E111D1F041FBD
:10031000111F1108100F1F041B1F10101F061F1E96
:10032000040F0E110E1F09060E112E1F051A1215AD
:1003300009011F011F101F0F180F1F0C1F1B041B8B
:10034000031C03191513001F11030418111F0002C9
:1003500001022020200001020C121E1F120C0C12A0
:10036000120C121F0C1A14041E05242A1E1F021C34
:10037000141D1020201D1F0814111F101E041E1E06
:10038000021C0C120C3E0A040C123E1E040214162F
:100390000A020F120E101E0E100E1E081E120C1254
:1003A00026281E322A26041E21001F00211E0401B9
:1003B00002013F213F172B152010204C4F4144458F
:1003C0005200172B16201314000A4E6F205344209E
:1003D00063617264206F720A6E6F204C4F41444516
:1003E000522E4845580A0A153A45786974001D206E
:1003F000466C617368696E670A20206C6F61646582
:10040000722E2E2E0A0A444F4E2754205455524E17
:10041000204F46462100000000002300260029004E
:10042000040404040404040402020202020203039A
:1004300003030303010204081020408001020408A2
:100440001020010204081020000000080002010032
:100450000003040700000000000000000500380150
:100460006801000017534400161378001613140097
:100470001510200015201000540A03E181867F3EEC
:10048000186D830F0F0E0183866033186DC3198FAB
:100490001803C38E6033186DE330CF1803C39E601A
:1004A0003630CDE360CF3006C79E7E3E30CDB360A0
:1004B000CF300CC6F6603330D9B660CF33CFCCF630
:1004C0006061B0DB1E60CF30D86CE6C061B0DB1E6F
:1004D000618F19986CC6C063B19B0E330F0FB07853
:1004E000C6FF7E1F1B061E0F931511241FBECFEFE4
:1004F000D8E0DEBFCDBF11E0A0E0B1E0E2E2F0E382
:1005000002C005900D92A032B107D9F723E0A0E216
:10051000B1E001C01D92AF3DB207E1F712E0C5E7BF
:10052000D2E004C02197FE010E940418C437D1070D
:10053000C9F70E948A100C940F180C940000CF92F7
:10054000DF92EF92FF920F931F93CF93DF936C0193
:100550007A018B01C0E0D0E0CE15DF0589F0D8012B
:100560006D918D01D601ED91FC910190F081E02D0E
:10057000C6010995892B11F47E0102C02196ECCFAA
:10058000C701DF91CF911F910F91FF90EF90DF9006
:10059000CF900895E9E3F1E08CE290E097878687B9
:1005A00088E090E09183808340E050E060E372E473
:1005B000428353836483758328E130E03783268345
:1005C00026E130E03187208712861386148615864F
:1005D00021E030E0318B208B138A128AEBE2F1E0CC
:1005E00024E530E0318320832CE130E03383228323
:1005F0009583848381E190E09783868382E090E015
:100600009187808786E696E6A6EABFE38093350168
:1006100090933601A0933701B093380110924E01A8
:1006200010924D010895089580E090E008950E9491
:100630000A18DC01ED91FC910190F081E02D099404
:100640006115710579F0FB0101900020E9F7319700
:10065000AF01461B570BDC01ED91FC910280F38149
:10066000E02D099480E090E008954F925F926F92A0
:100670007F92EF92FF920F931F93CF93DF93CDB7AB
:10068000DEB7A1970FB6F894DEBF0FBECDBF7C01D9
:10069000FA01CB0119A2223008F42AE08E010F5D85
:1006A0001F4F422E512C612C712CBF01A3019201CE
:1006B0000E94C815F901CA01015011096A3014F4E9
:1006C000605D01C0695CD8016C93232B242B252B22
:1006D00061F7B801C7010E942003A1960FB6F894F4
:1006E000DEBF0FBECDBFDF91CF911F910F91FF9065
:1006F000EF907F906F905F904F900895833081F0DE
:1007000028F4813099F08230A1F008958730A9F063
:100710008830B9F08430D1F4809180008F7D03C09F
:10072000809180008F7780938000089584B58F77C3
:1007300002C084B58F7D84BD08958091B0008F770D
:1007400003C08091B0008F7D8093B00008951F9307
:10075000CF93DF93282F30E0F901E85BFB4F8491C2
:10076000F901EC5CFB4FD491F901E05EFB4FC491C1
:10077000CC23C9F0162F81110E947E03EC2FF0E0EC
:10078000EE0FFF1FE955FE4FA591B4918FB7F89476
:10079000111105C09C91ED2FE095E92302C0EC9169
:1007A000ED2BEC938FBFDF91CF911F910895CF93E5
:1007B000DF9390E0FC01EC5CFB4F2491FC01E05ED8
:1007C000FB4F8491882361F190E0880F991FFC0111
:1007D000E356FE4FC591D491FC01E955FE4FA5911A
:1007E000B491611109C09FB7F89488812095822344
:1007F0008883EC912E230BC0623061F49FB7F8948C
:100800003881822F809583238883EC912E2B2C9323
:100810009FBF06C08FB7F894E8812E2B28838FBF27
:10082000DF91CF9108951F93CF93DF93182FEB01A2
:1008300061E00E94D703209711F460E004C0CF3F2D
:10084000D10539F461E0812FDF91CF911F910C9494
:10085000A703E12FF0E0E85BFB4FE491E330F9F010
:1008600048F4E130B9F0E230A1F584B5806284BD8E
:10087000C8BD34C0E730E9F0E83019F1E43049F59B
:1008800080918000806280938000D0938B00C09321
:100890008A0024C084B5806884BDC7BD1FC0809114
:1008A0008000806880938000D0938900C093880086
:1008B00015C08091B00080688093B000C093B300F1
:1008C0000DC08091B00080628093B000C093B400EE
:1008D00005C0C038D1050CF0B5CFAFCFDF91CF91B7
:1008E0001F9108958E3008F08E5087708064809339
:1008F0007C0080917A00806480937A0080917A00F5
:1009000086FDFCCF809178002091790090E0922BB9
:1009100008953FB7F8948091220190912301A0910E
:100920002401B091250126B5A89B05C02F3F19F0E1
:100930000196A11DB11D3FBFBA2FA92F982F88275F
:10094000820F911DA11DB11DBC01CD0142E0660FBA
:10095000771F881F991F4A95D1F708958F929F920C
:10096000AF92BF92CF92DF92EF92FF926B017C0128
:100970000E9489044B015C01C114D104E104F1041B
:10098000F1F00E948904DC01CB0188199909AA09B8
:10099000BB09883E9340A105B10570F321E0C21A5E
:1009A000D108E108F10888EE880E83E0981EA11CAA
:1009B000B11CC114D104E104F10419F7DDCFFF909B
:1009C000EF90DF90CF90BF90AF909F908F90089561
:1009D0001F920F920FB60F9211242F933F938F9374
:1009E0009F93AF93BF938091540190915501A09133
:1009F0005601B09157013091210123E0230F2D378B
:100A000020F40196A11DB11D05C026E8230F029612
:100A1000A11DB11D20932101809354019093550194
:100A2000A0935601B0935701809122019091230128
:100A3000A0912401B09125010196A11DB11D8093C3
:100A4000220190932301A0932401B0932501BF912B
:100A5000AF919F918F913F912F910F900FBE0F906B
:100A60001F90189580914F01882319F080915001B3
:100A700001C080E08093B4000895CF93DF93EC0130
:100A80001F8A1D8A1CA21BA2188E10925001109260
:100A9000510110924F010E94320583E991E09E8737
:100AA0008D871B8A1A8A81E0898389E08E8B198E53
:100AB0001B8E1D8EDF91CF910895FC0161110DC039
:100AC000178A158A14A213A2108E10925001109248
:100AD000510110924F010C94320508951F920F920C
:100AE0000FB60F9211242F933F934F935F936F9301
:100AF0007F938F939F93AF93BF93EF93FF936091F7
:100B00005101662321F1809120018F5F80932001A4
:100B1000909152018917D8F090914F0181E0892777
:100B200080934F011092200180915301882369F036
:100B30008091000193E4899F802D1124895B80932B
:100B400000010E94D017909350010E943205FF913E
:100B5000EF91BF91AF919F918F917F916F915F9135
:100B60004F913F912F910F900FBE0F901F901895AE
:100B70004F925F926F927F928F929F92AF92BF92AD
:100B8000CF92DF92EF92FF920F931F93CF93DF9359
:100B9000F901C49031965491EC0108A164350CF030
:100BA00018C10C2C000CDD08A62F062E000CBB0B68
:100BB0007D01EC0CFD1C1E141F040CF00AC1403317
:100BC0000CF007C1A52E842E042E000C9908F40108
:100BD000E50FF11D57FDFA951E161F060CF0F9C022
:100BE0002E5F3F4FE6012796D7FD279673E0D595F8
:100BF000C7957A95E1F747FF0AC0A52EA40EC89DB8
:100C0000A001C99D500D1124241B350B40E0EA2D95
:100C10000A2C000CFF0BE40FF11D47FDFA95F1972C
:100C20001CF050E3A52EA41A67FD60E0F701E5353E
:100C3000F10514F0E4E5F0E07E2FFC01D484D42625
:100C4000862F062E000C990BFC01EA1BFB0BDF0123
:100C50007F01F7E0EF22FF24E0E8F0E002C0F59525
:100C6000E795EA94E2F71E2FB7FD179653E0B59586
:100C7000A7955A95E1F72A0F3B1FE42FE77051E043
:100C800001C0550FEA95EAF7459545954595B4E5B8
:100C90004B02800D911D1124885A9E4FC12C0A2CA5
:100CA000000CBB08992493942E015524EC2DF0E000
:100CB000EA15FB050CF08DC0F90144910130E1F417
:100CC0007C01A12F862E881AB82DBE0DB71708F00B
:100CD00077C0B42FBA2321F0E701B881B52BB883D0
:100CE000B0E0B595A795109719F431964491A0E816
:100CF000DFEFED1AFD0AE8CF01111FC0752E7094C9
:100D00007C01A12FF901862E881AB82DBE0DB717C8
:100D100008F056C0B42FBA2321F0E701B881B721FB
:100D2000B883B0E0B595A795109719F43196449122
:100D3000A0E8DFEFED1AFD0AE8CF033031F07C01C7
:100D4000A12FF901862E881A37C0752E7094862E31
:100D50007C01A12FF9018716D8F4B42FBA2359F0DA
:100D6000E701B881682C6D2460FE02C0B52B02C07B
:100D7000B721E701B883B0E0B595A795109719F4AE
:100D800031964491A0E88394DFEFED1AFD0AE3CF9A
:100D9000D92416C0B42FBA2321F0E701B881B527B2
:100DA000B883B0E0B595A795109719F431964491A2
:100DB000A0E8DFEFED1AFD0AB82DBE0DB71750F30E
:100DC000550F19F48C5A9F4F51E0C394240D351DD3
:100DD0006DCFDF91CF911F910F91FF90EF90DF903A
:100DE000CF90BF90AF909F908F907F906F905F90CB
:100DF0004F900895FC01643508F053C0403308F06B
:100E000050C090A1742F759575957595262F062E57
:100E1000000C330B542F57709230A1F4F901E85AAB
:100E2000FE4F84E57802E00DF11D1124808190E0F1
:100E3000052E02C0959587950A94E2F78095982F24
:100E400091700AC0933041F48485817046274095A3
:100E50004170841303C014C0911112C084E578025C
:100E6000200D311D1124F901E85AFE4F81E090E078
:100E700001C0880F5A95EAF780959081892310C0A8
:100E800084E57802200D311D1124F901E85AFE4F46
:100E900081E090E001C0880F5A95EAF79081892B94
:100EA00080830895BF92CF92DF92EF92FF920F93CB
:100EB0001F93CF93DF931F92CDB7DEB77C01D62E61
:100EC000C42E002E000C110B040F111D47FD1A95A6
:100ED0004C2D0C2C000C550B401751077CF4B12CF9
:100EE000B21654F46B2D6D0D4C2DC70129830E9451
:100EF000FA06B3942981F4CFC394EACF0F90DF911F
:100F0000CF911F910F91FF90EF90DF90CF90BF9006
:100F100008956F927F928F929F92AF92BF92CF92DD
:100F2000DF92EF92FF920F931F93CF93DF93EC0129
:100F30006A3019F42D819885A1C06D3009F4A4C0E0
:100F40001885BA84D98488A083E58D150CF47FC0F8
:100F50008FE28B150CF47BC08C8190E00197189F79
:100F60009001199F300D1124C9018D0D911DD7FCE1
:100F70009A95181619060CF06AC08D81819FC001E0
:100F800011248B0D911DB7FC9A95181619060CF0BB
:100F90005EC09D2CCD2CE62EF12CEC2DED190E2EE5
:100FA000000CFF0B8C8190E0E817F9070CF04EC0A5
:100FB0000197E817F90779F0E89E9001E99E300D56
:100FC000F89E300D1124E20FF31F8E8D9F8DE80FD8
:100FD000F91F749001C0712C6B2CAB2C2A2D2B198E
:100FE000022E000C330B8D8190E0281739075CF539
:100FF00070FE10C0113031F44A2D6C2DCE010E94CC
:10100000FA061DC0012F212F462D692DCE010E9409
:10101000520715C089A198A1891789F088A31130BA
:1010200031F44A2D6C2DCE010E94FA0607C0012F23
:10103000212F462D692DCE010E94520788A2769459
:10104000A394610ECBCFC394910EA7CF88A228851D
:101050003C818985329F800D112489879F81992346
:1010600099F0082E000C990B44E550E0239F40199D
:1010700051091124481759073CF49D818A85299FFD
:10108000800D11248A87198681E090E0DF91CF914D
:101090001F910F91FF90EF90DF90CF90BF90AF9096
:1010A0009F908F907F906F9008954F925F926F9274
:1010B0007F928F929F92AF92BF92CF92DF92EF92E8
:1010C000FF920F931F93CF93DF9300D000D01F9216
:1010D000CDB7DEB74091D8035091D9036091DA03C0
:1010E0007091DB032FB7F8948091540190915501D2
:1010F000A0915601B09157012FBF481B590B6A0BA5
:101100007B0B8091D70390E0A0E0B0E00091D30387
:101110001091D4032091D5033091D60384179507FD
:10112000A607B70730F4011511052105310509F0AF
:1011300036C3012B022B032B09F02FC380916F03C1
:1011400081508E3F18F580916E03813021F580919A
:1011500082038F5F6091830387FD09C0082E000C16
:10116000990B70E06F5F7F4F0E94DC17682F6093D0
:10117000820382EC93E09093DD038093DC0388E4A8
:101180008093DE038DE793E00E943D0580916F031D
:1011900081508E3F70F480916D03813009F0ABC3B4
:1011A00085EB93E09093DD038093DC0388E48093E8
:1011B000DE0380E00E94CA0D80917E03882309F43B
:1011C000ADC0809192038111A9C080918A03909152
:1011D0008B03E0918F03F0919003EE0FFF1FE80F58
:1011E000F91F459154914115510501F520918E0348
:1011F000222331F01092900310928F03FC0114C04F
:1012000010927E0380917D03882341F080E00E944C
:10121000CA0DE0918F03F09190032FC060E08DE73D
:1012200093E00E945D057AC0459154919A013695EC
:1012300027953695279540FF51C0CA0116E096952F
:1012400087951A95E1F78F71952F969596959695B6
:1012500090512F70223071F1F8F4211117C08B30AA
:1012600008F08AE080939303E0918F03F09190035C
:101270003196F0939003E0938F03EE0FFF1F809160
:101280008A0390918B03E80FF91FCECF213061F7CD
:1012900060E00E94370EE8CF2330B1F0243021F710
:1012A00020918103829F802D112480939A03909333
:1012B0009B03DACF20918103829F802D112480939C
:1012C000960390939703D0CF20918103829F802D26
:1012D00011248093980390939903C6CF2F73209382
:1012E000910380918103859F802D11248093920327
:1012F0001092A2031092A1031092A00381E08093A8
:10130000940380934F011092950380918F039091E5
:10131000900301969093900380938F0380919403A0
:10132000882309F4F3C080919203811106C060E024
:101330008DE793E00E945D05E9C0815080939203A0
:101340008091A203811148C02091A0033091A10394
:101350002F5F3F4FC901880F991FE0919C03F091C7
:101360009D03E80FF91F65917491862F8770809314
:10137000A303AB01E3E056954795EA95E1F7CA016F
:1013800096958795972F969596959093A4038F732E
:1013900090918103899F802D11248093A203417035
:1013A000409353013093A1032093A00380919E03A7
:1013B00090E02817390780F020919F03222339F00D
:1013C000821B91099093A1038093A00305C060E064
:1013D0008DE793E00E945D058091A2038150809388
:1013E000A2038091950321E0280F2093950340915B
:1013F00091033091A403340F80918903380F309307
:101400007F0360919803662371F070E0822F022EB3
:10141000000C990B0E94DC1780919903869F300D78
:10142000112430937F0380917F0390E0849664E2DF
:1014300070E00E94DC1780937F0330919303309318
:10144000800360919603662381F0062E000C770BD3
:10145000822F022E000C990B0E94DC1780919703BB
:10146000869F300D11243093800360919A03662388
:10147000A1F0822F220F990B70E00E94DC17CB01A4
:1014800062E070E00E94DC1720919B039091800342
:10149000289F900D112490938003809180034F33F7
:1014A00041F08A300CF089E087FD80E08093800372
:1014B00002C010928003F894E0917F03F0E0EF51B6
:1014C000FE4FE491E0935201309180032091A503F7
:1014D0003203900111244091A3034203C001439FB2
:1014E000900D11240090820302C0880F991F0A9466
:1014F000E2F797FF02C081589F4F880F892F881FFE
:10150000990B809351018093500178948091DE0370
:10151000882309F48DC08C3020F49CE0E92EE81A71
:1015200001C0E12CFF24F394F092AE031092C603A5
:101530001092C7033091AB034DE2D42E1D2D131B27
:101540001E0D03E0030F2EE4412F63E086EA93E0D3
:101550003D830E9452073D810CEF030F1D5F202F3A
:1015600041E0612F80E50E94080F202F42E0612FAB
:1015700083E00E94080FF092C603F092C703009127
:10158000AB0313E0100FD01ADE0C23E04D2D622FB9
:1015900086EA93E02D830E94FA062D812F5F213584
:1015A000A9F71D0DFF24FA94F10E23E04F2D622FB1
:1015B00086EA93E02D830E94FA062D812F5F213564
:1015C000A9F7035033E0D30E402F6D2D80E00E9429
:1015D000F00E402F6D2D83E50E94F00E41E06D2D41
:1015E00083E00E94720E42E06D2D80E50E94720E33
:1015F000145044E0612F80E50E94720E48E0612F94
:1016000083E00E94720E84E08093AF038091AB036D
:10161000E81A8E2D815D8093B0038091DC03909158
:10162000DD030E94640D8091DE0381508093DE0310
:101630008091740390917503892B09F486C011E0A1
:101640001093C6031092C7039091AA0385E5891BE6
:101650008093AF031092B00360917103613009F47D
:1016600055C030F080917003653008F067C062C0EB
:1016700060E08DE793E00E945D0510927E03109379
:10168000AE03E3E3F2E0E491EF5FE093AA03E4E367
:10169000F2E0E491EF5FE093AB0385E392E0909397
:1016A000C5038093C40310927503109274031092C3
:1016B000AC0318EA0E9455088823E1F385E292E022
:1016C0000E94640D409172035091730360E070E0DA
:1016D0002AE086EA93E00E94350380E192E00E94CE
:1016E000640D412F42954F7050E060E070E02AE0B9
:1016F00086EA93E00E94350385E092E00E94640D43
:1017000080916D03813009F0FCC01FC08091C90336
:101710009091CA03A091CB03B091CC038F7099270D
:10172000AA27BB270897A105B10510F467E009C0F7
:1017300068E707C0882349F06B5F03C0882329F05E
:101740006FE286EA93E00E9419030E94240D8091C3
:10175000AC0381110EC088EF91E0E8E5F1E0DF0114
:101760009C011D9221503040E1F71092AF0310927E
:10177000B0030E9489046093D3037093D4038093D1
:10178000D5039093D6032091CF033091D003621BF1
:10179000730B7093CE036093CD0380E0CCC02FB762
:1017A000F8948091540190915501A0915601B09107
:1017B00057012FBF2091D703820F911DA11DB11D8D
:1017C0008093D8039093D903A093DA03B093DB03FB
:1017D0008091C9039091CA03A091CB03B091CC032F
:1017E0000196A11DB11D8093C9039093CA03A093D4
:1017F000CB03B093CC031092D3031092D403109276
:10180000D5031092D6030E9489046093CF0370938E
:10181000D0038093D1039093D20380915903909188
:101820005A032FE0289F8001299F100D112485E184
:101830000E947204800F911F24E0969587952A9547
:10184000E1F790935A038093590320915803222380
:1018500009F44BC060915C03262F30E040E050E07B
:1018600029833A834B835C83C0905D03D12CE12CA8
:10187000F12C40916003509161034A01A12CB12CDD
:1018800020915E0330915F032901612C712C821736
:10189000930728F09C014817590708F49A01C901D9
:1018A000A0E0B0E09C01AD012419350946095709B3
:1018B00069817A818B819C816C197D098E099F09D0
:1018C0000E94C017A501940124193509460957093A
:1018D0000E949E15C20ED31EE41EF51EC0925B032D
:1018E0006C2D70E085E00E9413040E94B10C0E94F0
:1018F000630F81E020C0893209F05BCC0E94950D16
:1019000058CC115009F0D6CE60E070E085E00E941E
:10191000130483B7817F846083BF83B7816083BFF3
:1019200083B7816083BF889583B78E7F83BF83B77A
:101930008E7F83BFBFCE0F900F900F900F900F90B0
:10194000DF91CF911F910F91FF90EF90DF90CF909B
:10195000BF90AF909F908F907F906F905F904F90CF
:101960000895CF92DF92EF92FF920F931F93CF9340
:10197000DF93C2E6D3E009E613E0FF24FA9497E090
:10198000E92EE00E62E088810E94D703288130E0D2
:10199000F901E85BFB4F8491F901EC5CFB4FC490CB
:1019A000F901E05EFB4FD490DD2071F081110E94BF
:1019B0007E03ED2DF0E0EE0FFF1FEA5EFB4FA591D9
:1019C000B491EC91EC21B1F4F80180818F5F8083B8
:1019D00060E088810E94D70321960F5F1F4FE012BD
:1019E000D1CFDF91CF911F910F91FF90EF90DF90BA
:1019F000CF900895F8018081882371F3F8018F3F1B
:101A000011F41082E5CFF082E3CFCF93C82FF89482
:101A100060E08091B5030E94A7038091B603181679
:101A20001CF460E00E94A703CEBD00000DB407FEC9
:101A3000FDCF8EB58091B60318161CF461E00E94AC
:101A4000A7037894CF9108950F931F93CF9380911C
:101A5000B2038F5F8093B20308E511E0C0E08C2FE2
:101A600080640E94050D80E80E94050D61E0809170
:101A7000B5030E94A7038091B60318161CF460E01A
:101A80000E94A70380E090E0F801E80FF91F208191
:101A90002EBD00000DB407FEFDCF2EB50196843596
:101AA000910591F78091B60318161CF461E00E942D
:101AB000A703CF5F0C5A1F4FC63089F680E4CF9141
:101AC0001F910F910C94050D0F931F93CF93DF93EC
:101AD0008C01C0E0D0E0F801EC0FFD1F649166239B
:101AE00071F0E091A603F091A7030190F081E02D41
:101AF00086EA93E00995892B11F02196ECCFCE016F
:101B0000DF91CF911F910F910895CF93DF930E94A2
:101B1000640DEC0165E171E086EA93E00E94200328
:101B20008C0F9D1FDF91CF91089588EF91E0E8E53C
:101B3000F1E0DF019C011D9221503040E1F710924D
:101B4000AF031092B0038EEE93E00E94640D0E94EA
:101B5000240D8CB583608CBD8DB58E7F8DBD88E1E5
:101B600091E0EEEFFFE309951092AC0389EC93E06E
:101B70000E94850D0E94240D0E94B10C80916D037E
:101B8000813039F062E370E080E090E00E94AE04C2
:101B9000F3CF0895AF92BF92CF92DF92EF92FF9270
:101BA0000F931F93CF93DF93C82ED12CE601C85A11
:101BB000DC4F9DA1992309F44FC07E019FEFE91AE4
:101BC000F90AF70195A1911147C09EA58601000F62
:101BD000111F085A1C4FF80134A525A5E32FF22F39
:101BE000E90FF11DE90FF11D259134912F3FFFEF12
:101BF0003F0711F41DA230C039ABF601EE0FFF1FF5
:101C0000EE59FC4F3327220F331F05A0F6A1E02D1C
:101C1000E20FF31FA590B49081111AC060E08DE728
:101C200093E00E945D05F801B3AAA2AAF601EE0FA7
:101C3000FF1FE659FC4F16A215A281E0F70185A30C
:101C400089E08BAF1EAEFE017B9615A2329615A2DF
:101C500029968DA18F5F8DA3DF91CF911F910F9159
:101C6000FF90EF90DF90CF90BF90AF90089570E01D
:101C7000DB01AA0FBB1FA85ABC4FD4962C91D49756
:101C8000D5969C91D597E22FF92FE80FF11DE80F1B
:101C9000F11D259134915F9696963C932E939597DE
:101CA000F9018591949190918103989F802D112441
:101CB000685A7C4FFB01B19685A3F901A591B491B7
:101CC0004B2F50E0E82FF0E04E175F0720F4F901AA
:101CD00025913491832FFB01B296899F802D112489
:101CE00085A30895AF92BF92CF92DF92EF92FF92B9
:101CF0000F931F93CF93DF93182F062FC1E0D3E0EC
:101D00008AEFD82E9EEFE92E842F8470C82E842F60
:101D10008270B82E842F8870A82E4170F42E8C2FDC
:101D2000880F8F5FE80ECC2081F04D2F400F6C2F75
:101D3000610F86EA93E00E94FA064C2F400F6D2F48
:101D4000610F86EA93E00E94FA06BB2081F0402FE3
:101D50004D1B6C2F610F86EA93E00E94FA06402F1C
:101D60004C1B6D2F610F86EA93E00E94FA06AA20B1
:101D700081F04C2F400F612F6D1B86EA93E00E948B
:101D8000FA064D2F400F612F6C1B86EA93E00E94EC
:101D9000FA06FF2081F0402F4C1B612F6D1B86EA55
:101DA00093E00E94FA06402F4D1B612F6C1B86EAC0
:101DB00093E00E94FA06CD1744F4E7FC04C0D1502A
:101DC000D394D394ED0CCF5FAACFDF91CF911F9125
:101DD0000F91FF90EF90DF90CF90BF90AF9008955C
:101DE0000F931F93CF93DF93182F062FD42FC0E0AC
:101DF000CD174CF44C2F400F612F86EA93E00E94E0
:101E0000FA06CF5FF5CFDF91CF911F910F91089523
:101E10009F92AF92BF92CF92DF92EF92FF920F9379
:101E20001F93CF93DF93F82EE62EB22E03E0020F1E
:101E3000D0E0C3E08AEFC82E1EEF842F8170982E69
:101E4000AA24A394A20E4270D42EDF5F802F8B1998
:101E5000180F992081F04C2F440F4A0D6E2D6C1BEA
:101E60008D2F8F0D0E94F00E402F6E2D6D1B8C2F2D
:101E70008F0D0E94F00EDD2081F04C2F440F4A0D93
:101E80006E2D6C1B8F2D8D1B0E94F00E402F6E2D22
:101E90006D1B8F2D8C1B0E94F00EDC1744F417FD78
:101EA00004C0C150C394C3941C0D0E5FCECFDF910C
:101EB000CF911F910F91FF90EF90DF90CF90BF9047
:101EC000AF909F9008958091740390917503892B32
:101ED000B1F180917C038F7169F584E10E947204F5
:101EE000BC01990F880B990B0E949E1626EE3FE3CA
:101EF0004EEC50E40E942F170E946D169B017093C8
:101F0000730360937203672B91F084E080937103F5
:101F1000E4E7F3E080E0419151912417350718F48C
:101F20008093710308958F5F8430A9F703C08FEF0A
:101F30008093710380917C038F5F80937C0308956D
:101F4000CF92DF92EF92FF921F93CF93DF93EC013A
:101F500081E08093AE031092AD031092AC03109217
:101F600070038093C6038093C7031CE00E9455084A
:101F70008823E1F3FE01849128E734E040E060E04B
:101F800086EA93E00E94B8051092AF031093B00365
:101F9000CE010E94640D8091AA03982F990F890F9A
:101FA00081958D5A8093AF038091AB03982F990F41
:101FB000890F8195835D8093B0038091C90384FF6D
:101FC00003C084E794E002C080E794E00E94850D9E
:101FD0008091AA03982F990F890F81958D5A80932C
:101FE000AF038091B0038F5F8093B0038091820331
:101FF000882319F08CE694E002C088E694E00E9401
:10200000850D9091AA03892F880F980F91959D5A5D
:102010009093AF038091B0038F5F8093B00384E609
:1020200094E00E94850D80916E038130B1F480911F
:1020300082038F5F6091830387FD09C0082E000C27
:10204000990B70E06F5F7F4F0E94DC17682F6093E1
:1020500082038DE793E00E943D0580916D038130FE
:10206000A9F08091C803482F50E060E070E0C09074
:10207000C903D090CA03E090CB03F090CC03C41600
:10208000D506E606F706F0F18F3FE1F18FEF80937A
:10209000C80360E08DE793E00E945D0510927E0327
:1020A00010929403109292031092A1031092A00335
:1020B00010929503109250011092510110924F010D
:1020C0000E9432058CE594E090938B0380938A0301
:1020D0001092900310928F0381E080937E0399E029
:1020E00090939303109296031092980310929A0380
:1020F00080937003DF91CF911F91FF90EF90DF905D
:10210000CF90089580916F03813009F02FCF0E9406
:10211000950D2CCFCF93DF9300D000D01F92CDB779
:10212000DEB7789484B5826084BD84B5816084BD57
:1021300085B5826085BD85B5816085BD80916E0065
:10214000816080936E001092810080918100826096
:1021500080938100809181008160809381008091D3
:1021600080008160809380008091B10084608093C2
:10217000B1008091B00081608093B00080917A00BE
:10218000846080937A0080917A00826080937A00E4
:1021900080917A00816080937A0080917A008068D3
:1021A00080937A001092C10088EE8093D70381E07B
:1021B000809381030E94CA0282E38093D70381E067
:1021C00090E0A0E0B0E08093D3039093D403A09379
:1021D000D503B093D6038FEF8093C803E0E8F7E709
:1021E000259134912130304C09F049C0E6E9F7E7F8
:1021F000E491E093B103E7E9F7E7E491E0935C034E
:10220000E8E9F7E7E491E0935D03E9E9F7E7859111
:10221000949190935F0380935E03EBE9F7E78591D8
:102220009491909361038093600387E0809383038C
:10223000EEE9F7E7E491E0938203EFE9F7E7E49151
:10224000E093C803E0EAF7E78591949190937503D2
:1022500080937403E2EAF7E7859194919093770372
:1022600080937603E4EAF7E785919491909379035C
:1022700080937803E6EAF7E7859194912CC09CE37C
:102280009093B10310925C0380935D0380E293E02E
:1022900090935F0380935E0384ED93E090936103DA
:1022A0008093600387E080938303809382038CEAAA
:1022B0009DE090937503809374038EED9DE0909361
:1022C00077038093760384E79EE09093790380936D
:1022D00078038CE39FE090937B0380937A0311E073
:1022E000109358036FEF70E085E00E94130488E0BC
:1022F0008093620389E08093630387E080936403A3
:1023000086E08093650304E00093660382E0809397
:10231000670381E1809368030E94B10C8CE39FE026
:1023200090937303809372030093710310937C0363
:102330008BE08093B4038DE08093B30380E18093BE
:10234000B5038EE08093B7038FE08093B6031093BC
:10235000AE031093C6031092C7031093AD03E3E3DB
:10236000F2E0E491EF5FE093AA03E4E3F2E0E491AA
:10237000EF5FE093AB0385E392E09093C503809316
:10238000C4031FB7F89480912601811127C0EAE2A7
:10239000F4E08491EEE3F4E09491E82FF0E0EE0FA6
:1023A000FF1FE356FE4FA591B491EC91E92321F470
:1023B00061E08AE00E94A70361E08AE00E94D703FF
:1023C0008CB580618CBD8CB580648CBD61E08DE086
:1023D0000E94D70361E08BE00E94D7038091260121
:1023E0008F5F809326011FBF8CB58F7D8CBD8CB510
:1023F0008C7F81608CBD8DB581608DBD8CB58C600E
:102400008CBD61E08091B4030E94D70361E08091AC
:10241000B3030E94D70361E08091B5030E94D70304
:102420008091B70318161CF461E00E94D7038091D5
:10243000B60318161CF461E00E94D7038091B7031D
:10244000181674F460E00E94A7036AE070E080E070
:1024500090E00E94AE0461E08091B7030E94A70360
:102460008091B303082E000C990BFC01E05EFB4F3A
:10247000E491F0E0EE0FFF1FE955FE4F25913491F6
:102480003093BB032093BA03FC01EC5CFB4FE49157
:10249000E093C1038091B403082E000C990BFC015A
:1024A000E05EFB4FE491F0E0EE0FFF1FE955FE4FB9
:1024B000259134913093B9032093B803FC01EC5C6F
:1024C000FB4FE491E093C0038091B603082E000C0B
:1024D000990BFC01E05EFB4FE491F0E0EE0FFF1F73
:1024E000E955FE4F259134913093BD032093BC03F1
:1024F000FC01EC5CFB4FE491E093C2038091B503D7
:10250000082E000C990BFC01E05EFB4FE491F0E01B
:10251000EE0FFF1FE955FE4F259134913093BF0315
:102520002093BE03FC01EC5CFB4FE491E093C303FA
:1025300081E20E94050D84E10E94050D8091B103A6
:1025400087FF03C08FE78093B1038091B103806858
:102550000E94050D80E20E94050D8CE00E94050D91
:102560000E94240D11E01093810384E08093A50361
:1025700089E991E090938D0380938C0360E080E083
:102580000E94370E61E070E083E00E9413048091A6
:10259000B100887F81608093B100F8941092800030
:1025A00010928100109285001092840088E191E0E1
:1025B0009093890080938800809181008860809347
:1025C00081008091810081608093810080916F0003
:1025D000826080936F0078940E94630F80916E03F5
:1025E000813019F4109282031EC0809171038823F8
:1025F000C9F360E08DE793E00E945D0581EB91E017
:1026000090938B0380938A031092900310928F0310
:1026100010937E0389E080939303109296031092A7
:10262000980310929A038091C803882321F08FEBBE
:1026300091E00E94A00F0E945508882309F461C20E
:1026400080914D0190914E01892B09F07BC18091C1
:102650004B0190914C01019690934C0180934B015A
:102660002091350130913601409137015091380168
:102670006091430170914401809145019091460120
:102680000E94FA15609343017093440180934501C1
:102690009093460120913B0130913C0140913D01D6
:1026A00050913E010E94FA152B013C0160933B01C1
:1026B00070933C0180933D0190933E0180912B01EA
:1026C00090912C012091330130913401821B930BA6
:1026D0009C01275F3F4F2E35310528F490932C0144
:1026E00080932B0106C0E4E5F0E0F0932C01E09329
:1026F0002B016091470170914801072E000C880B57
:10270000990B0E949E166B017C019B01AC01C301D9
:10271000B2010E942A171816B4F4C0923B01D0925D
:102720003C01E0923D01F0923E0110924301109273
:102730004401109245011092460121E030E03093AF
:102740004A012093490100912D0110912E01E09042
:102750002B01F0902C01E0912901F0912A01EE0F5C
:10276000FF1FE35FFE4F8080918040903B015090BF
:102770003C0160903D0170903E016091410170917B
:1027800042018091390190913A019D838C83F4013B
:102790008491282E312C3196B490E0E8F1E08491B8
:1027A000E1E8F1E0F491FB832C813D81220D331DA2
:1027B0003A832983E216F3060CF0C4C06701C80E01
:1027C000D11C8C819D818C159D050CF0BBC0072E02
:1027D000000C880B990B0E949E169B01AC01C30153
:1027E000B2010E94F9150E946616AB016B2C712C88
:1027F0005301A60EB71E0A151B050CF0A3C0D80185
:10280000EB81AE0FB11D6A177B070CF09BC0EC810A
:10281000FD81EE15FF050CF083C127012C813D8160
:10282000421A530A401751070CF073C19801261B36
:10283000370BE981FA81EC15FD052CF01601EC81CE
:10284000FD812E1A3F0AAA16BB061CF03D01661A2E
:10285000770A542D9C819E19401BE22EF12CE61420
:10286000F7040CF06FC0352F042F020F10E0C32EB9
:10287000D12CC214D3040CF051C1F401A491E3E0B3
:10288000D594C794EA95E1F7F2E0CF0ED11CB0E001
:102890001796F3E0B595A795FA95E1F7EA9EB00192
:1028A000EB9E700DFA9E700D1124F601E60FF71FD6
:1028B000E80DF91DE491F0E0632F6770A0E8CA2EDF
:1028C000D12C02C0D594C7946A95E2F7EC21FD2182
:1028D000EF2B09F421C1E0E8F1E0A491892F830FE7
:1028E000E82FF0E063E0F595E7956A95E1F7B0E051
:1028F000179673E0B595A7957A95E1F70A9FB00111
:102900000B9F700D1A9F700D1124E60FF71FEE57E5
:10291000FE4FE491F0E0877060E870E002C07595CA
:1029200067958A95E2F7E623F723EF2B09F4F4C0C5
:102930008DE793E00E943D0521E030E030934E01A9
:1029400020934D0180916E038D7F813049F58091F8
:102950004D0190914E01019719F40E94CA0220C0C6
:102960008091490190914A010197D1F410924A0156
:102970001092490120E030E040E351E460914301CE
:102980007091440180914501909146010E94F91592
:1029900060934301709344018093450190934601F5
:1029A00080916F03813041F48091C803882321F026
:1029B00080ED91E00E94A00F80914D0190914E0119
:1029C00060914101709142010197F1F4072E000CD2
:1029D000880B990B0E949E169B01AC0160913B01F4
:1029E00070913C0180913D0190913E010E94F9154A
:1029F0000E946616462F24EB30E06091390186EA8A
:102A000093E00E94B8054AC0809127019091280167
:102A10000A97ACF08091290190912A0101968230A9
:102A200091052CF490932A018093290104C01092FF
:102A30002A01109229011092280110922701E09199
:102A40002901F0912A01EE0FFF1FE35FFE4F008185
:102A50001181072E000C880B990B0E949E169B017A
:102A6000AC0160913B0170913C0180913D019091DE
:102A70003E010E94F9150E946616462F980160914A
:102A8000390186EA93E00E94B80580912701909170
:102A900028010196909328018093270120E831E0D6
:102AA00040912D0160912B0186EA93E00E94B805C8
:102AB00010E048E2612F86EA93E00E94FA061F5F69
:102AC0001535B9F7C0904B01D0904C010D2C000C7E
:102AD000EE08FF08F7FE0EC06DE286EA93E00E9462
:102AE000190344275527BA014C195D096E097F095E
:102AF0002AE003C02AE0B701A60186EA93E00E941B
:102B0000350320E030E0232B09F495CD0E9400002E
:102B100092CD20E030E08DCE3F5FA9CE2F5F9DCEDD
:102B2000412C512C7FCE1092A9031092A80385E06E
:102B300091E09093A7038093A6030895052E97FB39
:102B40001EF400940E94B51557FD07D00E94C815C9
:102B500007FC03D04EF40C94B51550954095309574
:102B600021953F4F4F4F5F4F0895909580957095F9
:102B700061957F4F8F4F9F4F08950E94EA15A59F43
:102B8000900DB49F900DA49F800D911D1124089568
:102B9000A1E21A2EAA1BBB1BFD010DC0AA1FBB1F61
:102BA000EE1FFF1FA217B307E407F50720F0A21BD3
:102BB000B30BE40BF50B661F771F881F991F1A9440
:102BC00069F760957095809590959B01AC01BD016A
:102BD000CF010895A29FB001B39FC001A39F700DC4
:102BE000811D1124911DB29F700D811D1124911D15
:102BF00008955058BB27AA270E9411160C94F0166E
:102C00000E94E21638F00E94E91620F039F49F3F46
:102C100019F426F40C94DF160EF4E095E7FB0C94FF
:102C2000D916E92F0E94011758F3BA1762077307E4
:102C30008407950720F079F4A6F50C9423170EF479
:102C4000E0950B2EBA2FA02D0B01B90190010C01BC
:102C5000CA01A0011124FF27591B99F0593F50F4D4
:102C6000503E68F11A16F040A22F232F342F44272C
:102C7000585FF3CF469537952795A795F040539524
:102C8000C9F77EF41F16BA0B620B730B840BBAF0F4
:102C90009150A1F0FF0FBB1F661F771F881FC2F75F
:102CA0000EC0BA0F621F731F841F48F48795779573
:102CB0006795B795F7959E3F08F0B0CF9395880F2D
:102CC00008F09927EE0F9795879508950E946D1645
:102CD0006894B1110C94241708950E94091788F084
:102CE0009F5798F0B92F9927B751B0F0E1F0660FD0
:102CF000771F881F991F1AF0BA95C9F714C0B13011
:102D000091F00E942317B1E008950C942317672FC8
:102D1000782F8827B85F39F0B93FCCF3869577953F
:102D20006795B395D9F73EF4909580957095619528
:102D30007F4F8F4F9F4F0895E89409C097FB3EF453
:102D400090958095709561957F4F8F4F9F4F9923F8
:102D5000A9F0F92F96E9BB279395F6958795779576
:102D60006795B795F111F8CFFAF4BB0F11F460FF36
:102D70001BC06F5F7F4F8F4F9F4F16C0882311F08E
:102D800096E911C0772321F09EE8872F762F05C0A2
:102D9000662371F096E8862F70E060E02AF09A953D
:102DA000660F771F881FDAF7880F9695879597F932
:102DB000089597F99F6780E870E060E008959FEFBD
:102DC00080EC089500240A941616170618060906C2
:102DD000089500240A941216130614060506089591
:102DE000092E0394000C11F4882352F0BB0F40F419
:102DF000BF2B11F460FF04C06F5F7F4F8F4F9F4F59
:102E0000089557FD9058440F551F59F05F3F71F0DA
:102E10004795880F97FB991F61F09F3F79F0879541
:102E20000895121613061406551FF2CF4695F1DFCA
:102E300008C0161617061806991FF1CF869571055A
:102E4000610508940895E894BB2766277727CB018E
:102E500097F908950E949C1708F48FEF08950E9437
:102E600042170C94F0160E94E21638F00E94E91600
:102E700020F0952311F00C94D9160C94DF16112430
:102E80000C9424170E94011770F3959FC1F3950FBE
:102E900050E0551F629FF001729FBB27F00DB11DDE
:102EA000639FAA27F00DB11DAA1F649F6627B00D6E
:102EB000A11D661F829F2227B00DA11D621F739F57
:102EC000B00DA11D621F839FA00D611D221F749F65
:102ED0003327A00D611D231F849F600D211D822FAC
:102EE000762F6A2F11249F5750409AF0F1F08823D3
:102EF0004AF0EE0FFF1FBB1F661F771F881F915000
:102F00005040A9F79E3F510580F00C94D9160C94BF
:102F100024175F3FE4F3983ED4F386957795679541
:102F2000B795F795E7959F5FC1F7FE2B880F911D29
:102F30009695879597F90895990F0008550FAA0B54
:102F4000E0E8FEEF16161706E807F907C0F01216BC
:102F50001306E407F50798F0621B730B840B950BBF
:102F600039F40A2661F0232B242B252B21F4089514
:102F70000A2609F4A140A6958FEF811D811D0895B1
:102F8000DB018F939F930E94BD15BF91AF91A29FCC
:102F9000800D911DA39F900DB29F900D1124089557
:102FA000991B79E004C0991F961708F0961B881F9B
:102FB0007A95C9F78095089597FB072E16F400942B
:102FC00007D077FD09D00E94F01707FC05D03EF42A
:102FD000909581959F4F0895709561957F4F0895C5
:102FE000AA1BBB1B51E107C0AA1FBB1FA617B7072F
:102FF00010F0A61BB70B881F991F5A95A9F780954B
:103000009095BC01CD010895EE0FFF1F0590F4913E
:10301000E02D099481E090E0F8940C940F18F89456
:02302000FFCFE0
:10302200010000000089079F02140313033C01F80A
:1030320000B40070000D0A004C4F4144455200009C
:00000001FF
