:100000000C9405020C942D020C942D020C942D02DC
:100010000C942D020C942D020C942D020C942D02A4
:100020000C942D020C942D020C942D020C941F04A0
:100030000C942D020C942D020C942D020C942D0284
:100040000C94CA030C942D020C942D020C942D02D6
:100050000C942D020C942D020C942D020C942D0264
:100060000C942D020C942D020101FF030101F703F2
:100070006C00680000000000240027002A00000037
:100080000000250028002B000500893008023802F6
:1000900049786814000044692D6E6F2D636F6E6E91
:1000A000656374696F6E006578616D706C65203290
:1000B0000005003801680100001818000000000069
:1000C000000007F8000DFC000FFC000FFC000FFC07
:1000D000000F80000FF0200F00203F0030FFC039DC
:1000E000FF403FFF003FFF001FFF000FFE0007FC27
:1000F0000003F80001D800018800010800018C000D
:10010000000000175344001613780016131400154E
:1001100010200015201000540A03E181867F3E184C
:100120006D830F0F0E0183866033186DC3198F180E
:1001300003C38E6033186DE330CF1803C39E60365F
:1001400030CDE360CF3006C79E7E3E30CDB360CF6A
:10015000300CC6F6603330D9B660CF33CFCCF66002
:1001600061B0DB1E60CF30D86CE6C061B0DB1E61D1
:100170008F19986CC6C063B19B0E330F0FB078C651
:10018000FF7E1F1B061E0F450068010000F6E8DB1E
:10019000CFC3B8AEA49B928A827B746E68625C57B0
:1001A000524E4945413E3A3734312E2C29272523DA
:1001B000210A0A153A49676E6F7265006D560A0A80
:1001C000504C45415345205455524E204F464620F1
:1001D000004C4F57204241545445525921200003AE
:1001E000053F213F1208120A100A0E1C0E0C1E0CAD
:1001F000141A14161F161E131E1E1B1E1E1F1E3F32
:10020000213F3A2F3A173D173F213F181F02040A9A
:10021000041F0E04040E1F0A1F0A0E0E1F04110EE7
:100220002E252E2F2A2E262929021F02081F0815E7
:100230000E04040E150E15151B151B040604040CE4
:10024000040000000017000300031F0A1F16371ADE
:100250001904130A153A000300000E11110E000ACA
:10026000040A040E04003000040404001000180402
:10027000031F111F121F101D151711151F07041F33
:1002800017151D1F151D01011F1F151F17151F0015
:100290000A00003200040A110A0A0A110A040115B0
:1002A000020E11171E051E1F150A0E110A1F110E30
:1002B0001F15111F05010E111D1F041F111F11080D
:1002C000100F1F041B1F10101F061F1E040F0E11FE
:1002D0000E1F09060E112E1F051A121509011F0106
:1002E0001F101F0F180F1F0C1F1B041B031C0319CB
:1002F0001513001F11030418111F00020102202012
:10030000200001020C121E1F120C0C12120C121FE4
:100310000C1A14041E05242A1E1F021C141D102072
:10032000201D1F0814111F101E041E1E021C0C127B
:100330000C3E0A040C123E1E040214160A020F128E
:100340000E101E0E100E1E081E120C1226281E3233
:100350002A26041E21001F00211E040102013F2144
:100360003F172B152010204C4F4144455200172BAE
:1003700016201314000A4E6F2053442063617264E8
:10038000206F720A6E6F204C4F414445522E4845F3
:10039000580A0A153A45786974001D20466C617345
:1003A00068696E670A20206C6F616465722E2E2E5C
:1003B0000A0A444F4E2754205455524E204F464669
:1003C000210000000000230026002900040404048A
:1003D00004040404020202020202030303030303EF
:1003E00001020408102040800102040810200102CC
:1003F00004081020000000080002010000030407A8
:100400000000000000000000601311241FBECFEFA9
:10041000D8E0DEBFCDBF11E0A0E0B1E0E2E8FAE253
:1004200002C005900D92AC31B107D9F723E0ACE1E1
:10043000B1E001C01D92A33BB207E1F712E0C5E0B5
:10044000D2E004C02197FE010E943415C430D107C8
:10045000C9F70E94E80F0C943F150C940000CF924E
:10046000DF92EF92FF920F931F93CF93DF936C0174
:100470007A018B01C0E0D0E0CE15DF0589F0D8010C
:100480006D918D01D601ED91FC910190F081E02DEF
:10049000C6010995892B11F47E0102C02196ECCF8B
:1004A000C701DF91CF911F910F91FF90EF90DF90E7
:1004B000CF900895089580E090E008950E943A1545
:1004C000833081F028F4813099F08230A1F00895D2
:1004D0008730A9F08830B9F08430D1F48091800061
:1004E0008F7D03C0809180008F7780938000089576
:1004F00084B58F7702C084B58F7D84BD08958091C7
:10050000B0008F7703C08091B0008F7D8093B000E2
:1005100008951F93CF93DF93282F30E0F901EC501B
:10052000FC4F8491F901E052FC4FD491F901E4535E
:10053000FC4FC491CC23C9F0162F81110E94600298
:10054000EC2FF0E0EE0FFF1FE258FF4FA591B491A2
:100550008FB7F894111105C09C91ED2FE095E92318
:1005600002C0EC91ED2BEC938FBFDF91CF911F91E7
:100570000895CF93DF9390E0FC01E052FC4F24916B
:10058000FC01E453FC4F8491882361F190E0880FD3
:10059000991FFC01EC58FF4FC591D491FC01E25822
:1005A000FF4FA591B491611109C09FB7F89488815C
:1005B000209582238883EC912E230BC0623061F456
:1005C0009FB7F8943881822F809583238883EC919C
:1005D0002E2B2C939FBF06C08FB7F894E8812E2B4B
:1005E00028838FBFDF91CF9108951F93CF93DF931F
:1005F000182FEB0161E00E94B902209711F460E02E
:1006000004C0CF3FD10539F461E0812FDF91CF9154
:100610001F910C948902E12FF0E0EC50FC4FE49123
:10062000E330F9F048F4E130B9F0E230A1F584B5F7
:10063000806284BDC8BD34C0E730E9F0E83019F10C
:10064000E43049F580918000806280938000D093EF
:100650008B00C0938A0024C084B5806884BDC7BD68
:100660001FC080918000806880938000D0938900B3
:10067000C093880015C08091B00080688093B0005E
:10068000C093B3000DC08091B00080628093B00031
:10069000C093B40005C0C038D1050CF0B5CFAFCFC2
:1006A000DF91CF911F9108958E3008F08E508770A2
:1006B000806480937C0080917A00806480937A00CB
:1006C00080917A0086FDFCCF80917800209179009E
:1006D00090E0922B08953FB7F89480911E0190917D
:1006E0001F01A0912001B091210126B5A89B05C052
:1006F0002F3F19F00196A11DB11D3FBFBA2FA92FA1
:10070000982F8827820F911DA11DB11DBC01CD011D
:1007100042E0660F771F881F991F4A95D1F7089509
:100720008F929F92AF92BF92CF92DF92EF92FF9201
:100730006B017C010E946B034B015C01C114D1046D
:10074000E104F104F1F00E946B03DC01CB01881994
:100750009909AA09BB09883E9340A105B10570F328
:1007600021E0C21AD108E108F10888EE880E83E082
:10077000981EA11CB11CC114D104E104F10419F7A5
:10078000DDCFFF90EF90DF90CF90BF90AF909F9024
:100790008F9008951F920F920FB60F9211242F93EE
:1007A0003F938F939F93AF93BF9380912501909137
:1007B0002601A0912701B091280130911D0123E06D
:1007C000230F2D3720F40196A11DB11D05C026E889
:1007D000230F0296A11DB11D20931D0180932501B9
:1007E00090932601A0932701B093280180911E01C8
:1007F00090911F01A0912001B09121010196A11DAE
:10080000B11D80931E0190931F01A0932001B0930E
:100810002101BF91AF919F918F913F912F910F90A7
:100820000FBE0F901F90189580912903882319F00F
:1008300080912B0301C080E08093B40008951F9243
:100840000F920FB60F9211242F933F934F935F9304
:100850006F937F938F939F93AF93BF93EF93FF9388
:1008600060912A03662321F180911C018F5F8093A0
:100870001C01909123018917D8F09091290381E000
:1008800089278093290310921C01809124018823D9
:1008900069F08091000193E4899F802D1124895B88
:1008A000809300010E94001590932B030E94140472
:1008B000FF91EF91BF91AF919F918F917F916F9138
:1008C0005F914F913F912F910F900FBE0F901F900E
:1008D00018954F925F926F927F928F929F92AF92F4
:1008E000BF92CF92DF92EF92FF920F931F93CF931D
:1008F000DF93F901C49031965491EC0108A164355D
:100900000CF018C10C2C000CDD08A62F062E000CD4
:10091000BB0B7D01EC0CFD1C1E141F040CF00AC166
:1009200040330CF007C1A52E842E042E000C99082C
:10093000F401E50FF11D57FDFA951E161F060CF088
:10094000F9C02E5F3F4FE6012796D7FD279673E04B
:10095000D595C7957A95E1F747FF0AC0A52EA40E55
:10096000C89DA001C99D500D1124241B350B40E0EA
:10097000EA2D0A2C000CFF0BE40FF11D47FDFA9540
:10098000F1971CF050E3A52EA41A67FD60E0F70173
:10099000E535F10514F0E4E5F0E07E2FFC01D484A8
:1009A000D426862F062E000C990BFC01EA1BFB0BAC
:1009B000DF017F01F7E0EF22FF24E0E8F0E002C072
:1009C000F595E795EA94E2F71E2FB7FD179653E0E9
:1009D000B595A7955A95E1F72A0F3B1FE42FE770CD
:1009E00051E001C0550FEA95EAF7459545954595C3
:1009F000B4E54B02800D911D1124875D9E4FC12CE3
:100A00000A2C000CBB08992493942E015524EC2D3C
:100A1000F0E0EA15FB050CF08DC0F90144910130BE
:100A2000E1F47C01A12F862E881AB82DBE0DB717D0
:100A300008F077C0B42FBA2321F0E701B881B52BB5
:100A4000B883B0E0B595A795109719F43196449105
:100A5000A0E8DFEFED1AFD0AE8CF01111FC0752EE7
:100A600070947C01A12FF901862E881AB82DBE0D35
:100A7000B71708F056C0B42FBA2321F0E701B881A8
:100A8000B721B883B0E0B595A795109719F43196C2
:100A90004491A0E8DFEFED1AFD0AE8CF033031F012
:100AA0007C01A12FF901862E881A37C0752E70940B
:100AB000862E7C01A12FF9018716D8F4B42FBA2312
:100AC00059F0E701B881682C6D2460FE02C0B52B97
:100AD00002C0B721E701B883B0E0B595A79510979C
:100AE00019F431964491A0E88394DFEFED1AFD0AE2
:100AF000E3CFD92416C0B42FBA2321F0E701B8817F
:100B0000B527B883B0E0B595A795109719F431963D
:100B10004491A0E8DFEFED1AFD0AB82DBE0DB7171E
:100B200050F3550F19F48C5A9F4F51E0C394240D84
:100B3000351D6DCFDF91CF911F910F91FF90EF90F9
:100B4000DF90CF90BF90AF909F908F907F906F90ED
:100B50005F904F900895FC01643508F053C0403316
:100B600008F050C090A1742F759575957595262F36
:100B7000062E000C330B542F57709230A1F4F9015C
:100B8000E75DFE4F84E57802E00DF11D11248081C0
:100B900090E0052E02C0959587950A94E2F780951E
:100BA000982F91700AC0933041F484858170462754
:100BB00040954170841303C014C0911112C084E5A4
:100BC0007802200D311D1124F901E75DFE4F81E00F
:100BD00090E001C0880F5A95EAF7809590818923AB
:100BE00010C084E57802200D311D1124F901E75D64
:100BF000FE4F81E090E001C0880F5A95EAF790819E
:100C0000892B80830895BF92CF92DF92EF92FF925B
:100C10000F931F93CF93DF931F92CDB7DEB77C0165
:100C2000D62EC42E002E000C110B040F111D47FDF3
:100C30001A954C2D0C2C000C550B401751077CF4C9
:100C4000B12CB21654F46B2D6D0D4C2DC7012983B8
:100C50000E94AB05B3942981F4CFC394EACF0F90DF
:100C6000DF91CF911F910F91FF90EF90DF90CF9088
:100C7000BF9008956F927F928F929F92AF92BF9292
:100C8000CF92DF92EF92FF920F931F93CF93DF9358
:100C9000EC016A3019F42D819885A1C06D3009F4FA
:100CA000A4C01885BA84D98488A083E58D150CF476
:100CB0007FC08FE28B150CF47BC08C8190E0019794
:100CC000189F9001199F300D1124C9018D0D911DA0
:100CD000D7FC9A95181619060CF06AC08D81819F71
:100CE000C00111248B0D911DB7FC9A951816190699
:100CF0000CF05EC09D2CCD2CE62EF12CEC2DED19C8
:100D00000E2E000CFF0B8C8190E0E817F9070CF019
:100D10004EC00197E817F90779F0E89E9001E99E27
:100D2000300DF89E300D1124E20FF31F8E8D9F8D34
:100D3000E80FF91F749001C0712C6B2CAB2C2A2D7D
:100D40002B19022E000C330B8D8190E028173907E8
:100D50005CF570FE10C0113031F44A2D6C2DCE01BF
:100D60000E94AB051DC0012F212F462D692DCE01FC
:100D70000E94030615C089A198A1891789F088A34C
:100D8000113031F44A2D6C2DCE010E94AB0507C005
:100D9000012F212F462D692DCE010E94030688A226
:100DA0007694A394610ECBCFC394910EA7CF88A263
:100DB00028853C818985329F800D112489879F81F8
:100DC000992399F0082E000C990B44E550E0239FDD
:100DD000401951091124481759073CF49D818A850F
:100DE000299F800D11248A87198681E090E0DF9188
:100DF000CF911F910F91FF90EF90DF90CF90BF9018
:100E0000AF909F908F907F906F9008954F925F92D8
:100E10006F927F928F929F92AF92BF92CF92DF920A
:100E2000EF92FF920F931F93CF93DF9300D000D0E8
:100E30001F92CDB7DEB74091AC035091AD036091E6
:100E4000AE037091AF032FB7F89480912501909174
:100E50002601A0912701B09128012FBF481B590BF3
:100E60006A0B7B0B8091AB0390E0A0E0B0E00091B7
:100E7000A7031091A8032091A9033091AA03841716
:100E80009507A607B70730F40115110521053105AF
:100E900009F03AC3012B022B032B09F033C38091D5
:100EA000430381508E3FC0F5809142038130C9F5E4
:100EB000809156038F5F6091570387FD09C0082E0C
:100EC000000C990B70E06F5F7F4F0E940C15682F2C
:100ED000609356038EE693E09093B1038093B00342
:100EE00088E48093B20380E00E949B0C87E891E045
:100EF00090935F0380935E031092640310926303E8
:100F000081E08093520389E08093670310926A0323
:100F100010926C0310926E038091430381508E3FB8
:100F200070F480914103813009F09AC381E693E027
:100F30009093B1038093B00388E48093B20380E080
:100F40000E94C90D80915203882309F4ABC080919F
:100F500066038111A7C080915E0390915F03E091C9
:100F60006303F0916403EE0FFF1FE80FF91F459133
:100F7000549141155105F1F420916203222331F07F
:100F80001092640310926303FC0112C0109252038A
:100F900080915103882341F080E00E94C90DE091C7
:100FA0006303F09164032DC080E00E94860C7AC038
:100FB000459154919A01369527953695279540FF8E
:100FC00051C0CA0116E0969587951A95E1F78F7181
:100FD000952F96959695969590512F70223071F198
:100FE000F8F4211117C08B3008F08AE08093670372
:100FF000E0916303F09164033196F0936403E0930E
:101000006303EE0FFF1F80915E0390915F03E80F73
:10101000F91FCECF213061F760E00E94330EE8CF98
:101020002330B1F0243021F720915503829F802D89
:10103000112480936E0390936F03DACF20915503B0
:10104000829F802D112480936A0390936B03D0CFED
:1010500020915503829F802D112480936C039093DF
:101060006D03C6CF2F732093650380915503859F31
:10107000802D1124809366031092760310927503DD
:101080001092740381E08093680380932903109287
:1010900069038091630390916403019690936403C4
:1010A0008093630380916803882309F4EEC08091E4
:1010B0006603811103C00E94860CE7C081508093B3
:1010C000660380917603811146C0209174033091AC
:1010D00075032F5F3F4FC901880F991FE09170037F
:1010E000F0917103E80FF91F65917491862F877055
:1010F00080937703AB01E3E056954795EA95E1F7D6
:10110000CA0196958795972F969596959093780313
:101110008F7390915503899F802D112480937603BE
:1011200041704093240130937503209374038091A0
:10113000720390E02817390770F02091730322237F
:1011400039F0821B9109909375038093740303C057
:1011500080E00E94860C8091760381508093760314
:101160008091690321E0280F209369034091650372
:1011700030917803340F80915D03380F309353031F
:1011800060916C03662371F070E0822F022E000CD8
:10119000990B0E940C1580916D03869F300D1124D0
:1011A000309353038091530390E0849664E270E09F
:1011B0000E940C15809353033091670330935403BE
:1011C00060916A03662381F0062E000C770B822F54
:1011D000022E000C990B0E940C1580916B03869FC8
:1011E000300D11243093540360916E036623A1F0F7
:1011F000822F220F990B70E00E940C15CB0162E048
:1012000070E00E940C1520916F0390915403289F69
:10121000900D112490935403809154034F3341F067
:101220008A300CF089E087FD80E08093540302C08F
:1012300010925403F894E0915303F0E0E357FE4F0B
:10124000E491E09323013091540320917903320318
:1012500090011124409177034203C001439F900DF8
:1012600011240090560302C0880F991F0A94E2F7D8
:1012700097FF02C081589F4F880F892F881F990BB5
:1012800080932A0380932B0378948091B203882360
:1012900009F48DC08C3020F49CE0E92EE81A01C0DE
:1012A000E12CFF24F394F092820310929A0310929F
:1012B0009B0330917F034DE2D42E1D2D131B1E0D79
:1012C00003E0030F2EE4412F63E08AE793E03D83C0
:1012D0000E9403063D810CEF030F1D5F202F41E0AC
:1012E000612F80E50E94040F202F42E0612F83E0F0
:1012F0000E94040FF0929A03F0929B0300917F03E7
:1013000013E0100FD01ADE0C23E04D2D622F8AE778
:1013100093E02D830E94AB052D812F5F2135A9F726
:101320001D0DFF24FA94F10E23E04F2D622F8AE762
:1013300093E02D830E94AB052D812F5F2135A9F706
:10134000035033E0D30E402F6D2D80E00E94EC0E51
:10135000402F6D2D83E50E94EC0E41E06D2D83E062
:101360000E946E0E42E06D2D80E50E946E0E1450BC
:1013700044E0612F80E50E946E0E48E0612F83E01B
:101380000E946E0E84E08093830380917F03E81AAD
:101390008E2D815D809384038091B0039091B10381
:1013A0000E94650D8091B20381508093B2038091B9
:1013B000480390914903892B09F47CC011E01093F4
:1013C0009A0310929B0390917E0385E5891B80937D
:1013D00083031092840380914503813009F44DC04A
:1013E00030F090914403853008F05FC05AC080E02F
:1013F0000E949B0C10938203EFEDF1E0E491EF5F0C
:10140000E0937E03E0EEF1E0E491EF5FE0937F0391
:1014100081EE91E090939903809398031092490391
:10142000109248031092800318EA0E94060788234E
:10143000E1F381ED91E00E94650D609146037091AA
:10144000470380E090E04AE00E945F0F8CEB91E060
:101450000E94650D612F62956F7070E080E090E0F2
:101460004AE00E945F0F81EB91E00E94650D809140
:101470004103813009F0FAC01DC080919D03909115
:101480009E03A0919F03B091A0038F709927AA2774
:10149000BB270897A105B10510F487E009C088E7CC
:1014A00007C0992339F08B5F03C0992319F08FE2AD
:1014B0000E94A00F0E94250D8091800381110EC013
:1014C00088EF91E0E9E2F1E0DF019C011D922150FB
:1014D0003040E1F710928303109284030E946B0363
:1014E0006093A7037093A8038093A9039093AA0322
:1014F0002091A3033091A403621B730B7093A2038A
:101500006093A10380E0CCC02FB7F89480912501AF
:1015100090912601A0912701B09128012FBF209121
:10152000AB03820F911DA11DB11D8093AC0390935D
:10153000AD03A093AE03B093AF0380919D03909150
:101540009E03A0919F03B091A0030196A11DB11D20
:1015500080939D0390939E03A0939F03B093A00359
:101560001092A7031092A8031092A9031092AA0345
:101570000E946B036093A3037093A4038093A5035D
:101580009093A60380912D0390912E032FE0289F26
:101590008001299F100D112485E10E945403800FC2
:1015A000911F24E0969587952A95E1F790932E0355
:1015B00080932D0320912C03222309F44BC06091CA
:1015C0003003262F30E040E050E029833A834B83FC
:1015D0005C83C0903103D12CE12CF12C4091340379
:1015E000509135034A01A12CB12C20913203309146
:1015F00033032901612C712C8217930728F09C0179
:101600004817590708F49A01C901A0E0B0E09C010D
:10161000AD01241935094609570969817A818B8101
:101620009C816C197D098E099F090E94F014A50107
:10163000940124193509460957090E946B13C20EFB
:10164000D31EE41EF51EC0922F036C2D70E085E0C2
:101650000E94F5020E94B20C0E94AB0F81E020C0F4
:10166000893209F06CCC0E94940D69CC115009F0BC
:10167000DCCE60E070E085E00E94F50283B7817FF8
:10168000846083BF83B7816083BF83B7816083BF7A
:10169000889583B78E7F83BF83B78E7F83BFC5CE88
:1016A0000F900F900F900F900F90DF91CF911F919F
:1016B0000F91FF90EF90DF90CF90BF90AF909F90F1
:1016C0008F907F906F905F904F9008958F929F9230
:1016D000AF92BF92CF92DF92EF92FF920F931F9340
:1016E000CF93DF93EC0181E080938203109281031A
:1016F000109280031092440380939A0380939B037B
:101700008CE0F82E07E811E0EE24E39499E0D92E5E
:101710000E9406078823E1F3FE018491882319F0D3
:10172000C0907F0301C0C12C27E131E040E060E0C0
:101730008AE793E00E9469044CE04C0D29EB30E00D
:1017400060E08AE793E00E94690410928303F092BC
:101750008403CE010E94650D80917E03982F990F1E
:10176000890F81958D5A8093830380917F03982FF1
:10177000990F890F8195835D8093840380919D03E8
:1017800084FF03C083E191E002C08FE091E00E94FA
:10179000860D80917E03982F990F890F81958D5A20
:1017A00080938303809184038F5F8093840380916F
:1017B0005603882319F08BE091E002C087E091E0A6
:1017C0000E94860D80917E03982F990F890F819535
:1017D0008D5A80938303809184038F5F8093840369
:1017E00083E091E00E94860D80914203813039F5BB
:1017F000809156038F5F6091570387FD09C0082EC3
:10180000000C990B70E06F5F7F4F0E940C15682FE2
:101810006093560380E00E949B0C10935F0300933B
:101820005E031092640310926303E0925203D0921D
:10183000670310926A0310926C0310926E038091FA
:1018400041038130A9F080919C03482F50E060E073
:1018500070E080909D0390909E03A0909F03B090B5
:10186000A00384169506A606B70680F18F3F71F196
:101870008FEF80939C0380E00E949B0C80E00E948D
:101880009B0C81EB90E090935F0380935E0310923A
:1018900064031092630381E08093520399E0909374
:1018A000670310926A0310926C0310926E03809388
:1018B0004403DF91CF911F910F91FF90EF90DF9044
:1018C000CF90BF90AF909F908F90089580914303E9
:1018D000813009F01DCF0E94940D1ACFBC010097F2
:1018E00091F0FC0101900020E9F73197AF01481B0E
:1018F000590BE0917A03F0917B030280F381E02D94
:101900008AE793E0099480E090E00895811112C085
:10191000109268031092660310927503109274037C
:101920001092690310922B0310922A03109229033C
:101930000C9414040895811114C01092680310923D
:10194000660310927503109274031092690310924B
:101950002B0310922A03109229030E941404109260
:1019600052030895CF92DF92EF92FF920F931F934D
:10197000CF93DF93C6E3D3E00DE313E0FF24FA94A3
:1019800097E0E92EE00E62E088810E94B90228818A
:1019900030E0F901EC50FC4F8491F901E052FC4F2A
:1019A000C490F901E453FC4FD490DD2071F0811113
:1019B0000E946002ED2DF0E0EE0FFF1FEE53FC4F92
:1019C000A591B491EC91EC21B1F4F80180818F5F85
:1019D000808360E088810E94B90221960F5F1F4FCB
:1019E000E012D1CFDF91CF911F910F91FF90EF9037
:1019F000DF90CF900895F8018081882371F3F8017A
:101A00008F3F11F41082E5CFF082E3CFCF93C82F40
:101A1000F89460E0809189030E94890280918A0392
:101A200018161CF460E00E948902CEBD00000DB4BF
:101A300007FEFDCF8EB580918A0318161CF461E075
:101A40000E9489027894CF9108950F931F93CF93AA
:101A5000809186038F5F8093860309E211E0C0E0E6
:101A60008C2F80640E94060D80E80E94060D61E0C4
:101A7000809189030E94890280918A0318161CF4C0
:101A800060E00E94890280E090E0F801E80FF91F11
:101A900020812EBD00000DB407FEFDCF2EB50196AE
:101AA0008435910591F780918A0318161CF461E042
:101AB0000E948902CF5F0C5A1F4FC63089F680E41E
:101AC000CF911F910F910C94060D0F931F93CF93FD
:101AD000DF938C01C0E0D0E0F801EC0FFD1F6491B2
:101AE000662371F0E0917A03F0917B030190F0811D
:101AF000E02D8AE793E00995892B11F02196ECCF30
:101B0000CE01DF91CF911F910F910895CF93DF9375
:101B10000E94650DEC0181E191E00E946E0C8C0F3A
:101B20009D1FDF91CF91089588EF91E0E9E2F1E008
:101B3000DF019C011D9221503040E1F71092830398
:101B4000109284038AE993E00E94650D0E94250D9E
:101B50008CB583608CBD8DB58E7F8DBD84E191E0A9
:101B6000EEEFFFE309951092800385E793E00E9472
:101B7000860D0E94250D0E94B20C80914103813098
:101B800039F062E370E080E090E00E949003F3CFD0
:101B90000895AF92BF92CF92DF92EF92FF920F9390
:101BA0001F93CF93DF93C82ED12CE601C45DDC4F89
:101BB0009DA1992309F44CC07E019FEFE91AF90A0F
:101BC000F70195A1911144C09EA58601000F111F38
:101BD000045D1C4FF80134A525A5E32FF22FE90F72
:101BE000F11DE90FF11D259134912F3FFFEF3F07C4
:101BF00011F41DA22DC039ABF601EE0FFF1FEA5CF8
:101C0000FC4F3327220F331F05A0F6A1E02DE20F72
:101C1000F31FA590B490811117C00E949B0CF8018E
:101C2000B3AAA2AAF601EE0FFF1FE25CFC4F16A2B8
:101C300015A281E0F70185A389E08BAF1EAEFE01FE
:101C40007B9615A2329615A229968DA18F5F8DA342
:101C5000DF91CF911F910F91FF90EF90DF90CF9088
:101C6000BF90AF90089570E0DB01AA0FBB1FA45D89
:101C7000BC4FD4962C91D497D5969C91D597E22FB2
:101C8000F92FE80FF11DE80FF11D259134915F96B2
:101C900096963C932E939597F90185919491909106
:101CA0005503989F802D1124645D7C4FFB01B196F4
:101CB00085A3F901A591B4914B2F50E0E82FF0E0F6
:101CC0004E175F0720F4F90125913491832FFB0112
:101CD000B296899F802D112485A30895AF92BF925B
:101CE000CF92DF92EF92FF920F931F93CF93DF93E8
:101CF000182F062FC1E0D3E08AEFD82E9EEFE92EF1
:101D0000842F8470C82E842F8270B82E842F887000
:101D1000A82E4170F42E8C2F880F8F5FE80ECC20F8
:101D200081F04D2F400F6C2F610F8AE793E00E94E6
:101D3000AB054C2F400F6D2F610F8AE793E00E9497
:101D4000AB05BB2081F0402F4D1B6C2F610F8AE744
:101D500093E00E94AB05402F4C1B6D2F610F8AE76B
:101D600093E00E94AB05AA2081F04C2F400F612F19
:101D70006D1B8AE793E00E94AB054D2F400F612F4A
:101D80006C1B8AE793E00E94AB05FF2081F0402F97
:101D90004C1B612F6D1B8AE793E00E94AB05402F1F
:101DA0004D1B612F6C1B8AE793E00E94AB05CD179A
:101DB00044F4E7FC04C0D150D394D394ED0CCF5F2E
:101DC000AACFDF91CF911F910F91FF90EF90DF90FD
:101DD000CF90BF90AF9008950F931F93CF93DF9351
:101DE000182F062FD42FC0E0CD174CF44C2F400FE6
:101DF000612F8AE793E00E94AB05CF5FF5CFDF91BB
:101E0000CF911F910F9108959F92AF92BF92CF9261
:101E1000DF92EF92FF920F931F93CF93DF93F82EF1
:101E2000E62EB22E03E0020FD0E0C3E08AEFC82E08
:101E30001EEF842F8170982EAA24A394A20E4270C4
:101E4000D42EDF5F802F8B19180F992081F04C2F33
:101E5000440F4A0D6E2D6C1B8D2F8F0D0E94EC0EC2
:101E6000402F6E2D6D1B8C2F8F0D0E94EC0EDD20F0
:101E700081F04C2F440F4A0D6E2D6C1B8F2D8D1B46
:101E80000E94EC0E402F6E2D6D1B8F2D8C1B0E941F
:101E9000EC0EDC1744F417FD04C0C150C394C39486
:101EA0001C0D0E5FCECFDF91CF911F910F91FF9050
:101EB000EF90DF90CF90BF90AF909F9008958F925A
:101EC0009F92AF92BF920F931F93CF93DF93CDB7A3
:101ED000DEB7A1970FB6F894DEBF0FBECDBF19A233
:101EE000423008F44AE08E010F5D1F4F842E912C82
:101EF000A12CB12CA50194010E949513E62FB901E4
:101F0000CA0101501109EA3014F4E05D01C0E95C36
:101F1000D801EC93232B242B252B61F7C8010E94B9
:101F20006E0CA1960FB6F894DEBF0FBECDBFDF9149
:101F3000CF911F910F91BF90AF909F908F90089578
:101F4000E0917A03F0917B030190F081E02D682FFE
:101F50008AE793E009948091480390914903892B83
:101F6000B1F1809150038F7169F584E10E945403AF
:101F7000BC01990F880B990B0E94F71326EE3FE3E3
:101F80004EEC50E40E945B140E94C6139B017093B8
:101F9000470360934603672B91F084E080934503E9
:101FA000E8E4F3E080E0419151912417350718F4FB
:101FB0008093450308958F5F8430A9F703C08FEFA6
:101FC00080934503809150038F5F80935003089561
:101FD000CF93DF9300D000D01F92CDB7DEB77894B7
:101FE00084B5826084BD84B5816084BD85B582601E
:101FF00085BD85B5816085BD80916E0081608093CF
:102000006E00109281008091810082608093810037
:102010008091810081608093810080918000816047
:10202000809380008091B10084608093B1008091A2
:10203000B00081608093B00080917A0084608093CA
:102040007A0080917A00826080937A0080917A0091
:10205000816080937A0080917A00806880937A0012
:102060001092C10082E38093AB0381E090E0A0E096
:10207000B0E08093A7039093A803A093A903B09323
:10208000AA038FEF80939C03E0E8F7E72591349152
:102090002130304C09F049C0E6E9F7E7E491E093DC
:1020A0008503E7E9F7E7E491E0933003E8E9F7E730
:1020B000E491E0933103E9E9F7E7859194919093F6
:1020C000330380933203EBE9F7E785919491909382
:1020D00035038093340387E080935703EEE9F7E7F5
:1020E000E491E0935603EFE9F7E7E491E0939C0372
:1020F000E0EAF7E785919491909349038093480330
:10210000E2EAF7E78591949190934B0380934A0319
:10211000E4EAF7E78591949190934D0380934C0303
:10212000E6EAF7E7859194912CC09CE390938503B0
:10213000109230038093310380E293E09093330355
:102140008093320384ED93E09093350380933403BE
:1021500087E080935703809356038CEA9DE0909329
:102160004903809348038EED9DE090934B03809349
:102170004A0384E79EE090934D0380934C038CE3E5
:102180009FE090934F0380934E0311E010932C0334
:102190006FEF70E085E00E94F50288E080933603DF
:1021A00089E08093370387E08093380386E080934B
:1021B000390304E000933A0382E080933B0381E11A
:1021C00080933C030E94B20C8CE39FE09093470302
:1021D0008093460300934503109350038BE0809354
:1021E00088038DE08093870380E1809389038EE0EC
:1021F00080938B038FE080938A0310938203109364
:102200009A0310929B0310938103EFEDF1E0E491A8
:10221000EF5FE0937E03E0EEF1E0E491EF5FE093A7
:102220007F0381EE91E090939903809398031FB709
:10223000F89480912201811127C0E6EDF3E08491AA
:10224000EAEEF3E09491E82FF0E0EE0FFF1FEC5878
:10225000FF4FA591B491EC91E92321F461E08AE06C
:102260000E94890261E08AE00E94B9028CB5806117
:102270008CBD8CB580648CBD61E08DE00E94B9029C
:1022800061E08BE00E94B902809122018F5F809310
:1022900022011FBF8CB58F7D8CBD8CB58C7F81607A
:1022A0008CBD8DB581608DBD8CB58C608CBD61E0C1
:1022B000809188030E94B90261E0809187030E94A7
:1022C000B90261E0809189030E94B90280918B0379
:1022D00018161CF461E00E94B90280918A03181656
:1022E0001CF461E00E94B90280918B03181674F40B
:1022F00060E00E9489026AE070E080E090E00E9465
:10230000900361E080918B030E9489028091870392
:10231000082E000C990BFC01E453FC4FE491F0E013
:10232000EE0FFF1FE258FF4F2591349130938F033A
:1023300020938E03FC01E052FC4FE491E09395035F
:1023400080918803082E000C990BFC01E453FC4F8C
:10235000E491F0E0EE0FFF1FE258FF4F259134911A
:1023600030938D0320938C03FC01E052FC4FE491E9
:10237000E093940380918A03082E000C990BFC01D2
:10238000E453FC4FE491F0E0EE0FFF1FE258FF4FE3
:10239000259134913093910320939003FC01E052F6
:1023A000FC4FE491E093960380918903082E000C82
:1023B000990BFC01E453FC4FE491F0E0EE0FFF1F9A
:1023C000E258FF4F25913491309393032093920369
:1023D000FC01E052FC4FE491E093970381E20E94FC
:1023E000060D84E10E94060D8091850387FF03C0DE
:1023F0008FE7809385038091850380680E94060D96
:1024000080E20E94060D8CE00E94060D0E94250DC0
:1024100011E01093550384E08093790380E790E006
:10242000909361038093600360E080E00E94330E2C
:1024300061E070E083E00E94F5028091B100887F46
:1024400081608093B100F894109280001092810016
:10245000109285001092840088E191E090938900A9
:1024600080938800809181008860809381008091B2
:10247000810081608093810080916F0082608093F1
:102480006F0078940E94AB0F80914203813019F461
:10249000109256031CC0809145038823C9F380E045
:1024A0000E949B0C88E890E090935F0380935E030A
:1024B00010926403109263031093520389E0809397
:1024C000670310926A0310926C0310926E0380915E
:1024D0009C03882321F086E990E00E94660B2AEB9A
:1024E000422E20E0522E30E8A32EB12C40E0842E64
:1024F00040E0942E0E940607882309F4BCC0809116
:102500003F03813009F06BC030910301309001012D
:10251000E9EBF0E08491F2010491C82ED12C760110
:10252000F7E0EF0EF11C93E0F594E7949A95E1F74C
:1025300020E010E03A94380E822F022E000C990B06
:102540008C159D050CF05AC0922F27FF02C097E012
:10255000920F959595959595822F877887FF03C063
:102560008150886F8F5F350102C0759467948A959A
:10257000E2F7212C892F990F990BAC014E5F5F4F29
:102580005D834C83532D521B822D022C000C990B22
:102590008017910714F58E9DF0018F9DF00D9E9D83
:1025A000F00D11248C819D81E80FF91FE754FF4F36
:1025B000E491F0E0E621F721EF2B69F0422D430F83
:1025C000652F8AE793E029833A835B830E94AB05FA
:1025D0005B813A8129812394D7CF2F5FADCF809142
:1025E0003D03813009F490CF29EB30E040910301A5
:1025F000609101018AE793E00E94690480914103A0
:1026000081508E3F60F4809103019091040118166F
:1026100019062CF401979093040180930301809193
:102620003E0381508E3F60F480910301909104013C
:10263000181619062CF40197909304018093030156
:102640008091400381508E3FE8F080913D0381509E
:102650008E3F10F180913F0381508E3F38F1809181
:102660004303813041F480919C03882321F087EA61
:1026700090E00E94660B8114910409F43BCF0E9404
:10268000000038CF8091030190910401019690934E
:10269000040180930301D9CF80910101909102013F
:1026A00001979093020180930101D4CF80910101A1
:1026B0009091020101969093020180930101CFCF86
:1026C00010927D0310927C0389E091E090937B034C
:1026D00080937A030895052E97FB1EF400940E94C0
:1026E000821357FD07D00E94951307FC03D04EF4C8
:1026F0000C94821350954095309521953F4F4F4F44
:102700005F4F089590958095709561957F4F8F4F9D
:102710009F4F08950E94B713A59F900DB49F900DF1
:10272000A49F800D911D11240895A1E21A2EAA1BC9
:10273000BB1BFD010DC0AA1FBB1FEE1FFF1FA21771
:10274000B307E407F50720F0A21BB30BE40BF50B6E
:10275000661F771F881F991F1A9469F760957095F7
:10276000809590959B01AC01BD01CF010895A29F7A
:10277000B001B39FC001A39F700D811D1124911D55
:10278000B29F700D811D1124911D08950E943A146D
:1027900088F09F5798F0B92F9927B751B0F0E1F022
:1027A000660F771F881F991F1AF0BA95C9F714C0D2
:1027B000B13091F00E945414B1E008950C94541477
:1027C000672F782F8827B85F39F0B93FCCF386950B
:1027D00077956795B395D9F73EF490958095709568
:1027E00061957F4F8F4F9F4F0895E89409C097FBE5
:1027F0003EF490958095709561957F4F8F4F9F4FD8
:102800009923A9F0F92F96E9BB279395F69587951B
:1028100077956795B795F111F8CFFAF4BB0F11F4DE
:1028200060FF1BC06F5F7F4F8F4F9F4F16C0882385
:1028300011F096E911C0772321F09EE8872F762FBB
:1028400005C0662371F096E8862F70E060E02AF0FC
:102850009A95660F771F881FDAF7880F96958795E8
:1028600097F9089557FD9058440F551F59F05F3F51
:1028700071F04795880F97FB991F61F09F3F79F0A2
:1028800087950895121613061406551FF2CF469524
:10289000F1DF08C0161617061806991FF1CF8695A6
:1028A0007105610508940895E894BB27662777278A
:1028B000CB0197F908950E946E140C94DF140E94C6
:1028C000D11438F00E94D81420F0952311F00C9404
:1028D000C8140C94CE1411240C9455140E94321474
:1028E00070F3959FC1F3950F50E0551F629FF00163
:1028F000729FBB27F00DB11D639FAA27F00DB11D7C
:10290000AA1F649F6627B00DA11D661F829F222704
:10291000B00DA11D621F739FB00DA11D621F839F8B
:10292000A00D611D221F749F3327A00D611D231F61
:10293000849F600D211D822F762F6A2F11249F57AF
:1029400050409AF0F1F088234AF0EE0FFF1FBB1FB2
:10295000661F771F881F91505040A9F79E3F510571
:1029600080F00C94C8140C9455145F3FE4F3983E27
:10297000D4F3869577956795B795F795E7959F5F1B
:10298000C1F7FE2B880F911D9695879597F90895AD
:1029900097F99F6780E870E060E008959FEF80EC12
:1029A000089500240A9416161706180609060895B5
:1029B00000240A9412161306140605060895092E1B
:1029C0000394000C11F4882352F0BB0F40F4BF2B8A
:1029D00011F460FF04C06F5F7F4F8F4F9F4F0895CA
:1029E000DB018F939F930E948A13BF91AF91A29FA7
:1029F000800D911DA39F900DB29F900D11240895FD
:102A0000991B79E004C0991F961708F0961B881F40
:102A10007A95C9F78095089597FB072E16F40094D0
:102A200007D077FD09D00E94201507FC05D03EF4A1
:102A3000909581959F4F0895709561957F4F08956A
:102A4000AA1BBB1B51E107C0AA1FBB1FA617B707D4
:102A500010F0A61BB70B881F991F5A95A9F78095F0
:102A60009095BC01CD010895EE0FFF1F0590F491E4
:102A7000E02D099481E090E0F8940C943F15F894CF
:022A8000FFCF86
:102A82000106002300000000003A062F025B025AF2
:0C2A9200020D0A004C4F41444552000068
:00000001FF
