:100000000C94C5020C94ED020C94ED020C94ED02DC
:100010000C94ED020C94ED020C94ED020C94ED02A4
:100020000C94ED020C94ED020C94ED020C94FA0980
:100030000C94ED020C94ED020C94ED020C94ED0284
:100040000C9474090C94ED020C94ED020C94ED02E6
:100050000C94ED020C94ED020C94ED020C94ED0264
:100060000C94ED020C94ED020101FF030101F70372
:100070001816001FE0003FF00037F0003FF0003F8F
:10008000F0003FF0003E00003FC0807C0081FC009B
:10009000C3FF00E7FD00FFFC00FFFC007FF8003F0E
:1000A000F8001FF0000FE0000760000620000420A9
:1000B000000630001816001FE0003FF00037F00087
:1000C0003FF0003FF0003FF0003E00003FC0807C6A
:1000D0000081FC00C3FF00E7FD00FFFC00FFFC0007
:1000E0007FF8003FF8001FF0000FE0000720000637
:1000F00030000400000600001816001FE0003FF06A
:100100000037F0003FF0003FF0003FF0003E0000FD
:100110003FC0807C0081FC00C3FF00E7FD00FFFCC6
:1001200000FFFC007FF8003FF8001FF0000FE00028
:10013000046000062000002000003000201118009C
:100140000000180000C0180300C01B0300D81B03E8
:1001500000D8DB1B06D8DB1B06D8DB1B66D8DE1BF2
:1001600066F0D81B66C0780F63C0180360C0180320
:10017000C0C0180300C0180300C018030000180313
:10018000000018111800001800001803001B0300DD
:100190001B0300DB1B00DB1B00DB1B60DE1B60D8CE
:1001A0001B60780F601803601803C0180300180361
:1001B0000018030018030008111818181B1BDBDBBC
:1001C000DBDED8781818181818186C0068000000C2
:1001D0000000240027002A0000000000250028005D
:1001E0002B000500893008023802497868140000A5
:1001F0000500380168010000175344001613780009
:10020000161314001510200015201000540A03E1E5
:1002100081867F3E186D830F0F0E01838660331831
:100220006DC3198F1803C38E6033186DE330CF1878
:1002300003C39E603630CDE360CF3006C79E7E3E5E
:1002400030CDB360CF300CC6F6603330D9B660CF56
:1002500033CFCCF66061B0DB1E60CF30D86CE6C027
:1002600061B0DB1E618F19986CC6C063B19B0E3301
:100270000F0FB078C6FF7E1F1B061E0F44692D6E40
:100280006F2D636F6E6E656374696F6E006E657758
:100290002068692D73636F72652121001816001F95
:1002A000E00031F00035F00031F0003FF0003FF0A9
:1002B000003E00003FC0807C0081FC00C3FF00E7DF
:1002C000FD00FFFC00FFFC007FF8003FF8001FF07E
:1002D000000FE00007600006200004200006300048
:1002E00047616D6520506175736564001807001ED5
:1002F000000021000040C00181301E080C60000297
:1003000087FFFE486900F6E8DBCFC3B8AEA49B9236
:100310008A827B746E68625C57524E4945413E3A10
:100320003734312E2C29272523210A0A153A49670B
:100330006E6F7265006D560A0A504C454153452058
:100340005455524E204F464620004C4F57204241B4
:10035000545445525921200003053F213F120812F1
:100360000A100A0E1C0E0C1E0C141A14161F161E50
:10037000131E1E1B1E1E1F1E3F213F3A2F3A173D04
:10038000173F213F181F02040A041F0E04040E1F0A
:100390000A1F0A0E0E1F04110E2E252E2F2A2E269E
:1003A0002929021F02081F08150E04040E150E1538
:1003B000151B151B040604040C04000000001700A4
:1003C0000300031F0A1F16371A1904130A153A00EF
:1003D0000300000E11110E000A040A040E0400307E
:1003E000000404040010001804031F111F121F1042
:1003F0001D151711151F07041F17151D1F151D01AA
:10040000011F1F151F17151F000A00003200040AE4
:10041000110A0A0A110A040115020E11171E051EFF
:100420001F150A0E110A1F110E1F15111F05010EAF
:10043000111D1F041F111F1108100F1F041B1F1077
:10044000101F061F1E040F0E110E1F09060E112E7F
:100450001F051A121509011F011F101F0F180F1F6A
:100460000C1F1B041B031C03191513001F1103048D
:1004700018111F000201022020200001020C121E90
:100480001F120C0C12120C121F0C1A14041E05243D
:100490002A1E1F021C141D1020201D1F0814111FCE
:1004A000101E041E1E021C0C120C3E0A040C123EEE
:1004B0001E040214160A020F120E101E0E100E1E3B
:1004C000081E120C1226281E322A26041E21001F86
:1004D00000211E040102013F213F172B152010208F
:1004E0004C4F4144455200172B1620131400450071
:1004F000680100000A4E6F2053442063617264203B
:100500006F720A6E6F204C4F414445522E48455839
:100510000A0A153A45786974001D20466C617368B3
:10052000696E670A20206C6F616465722E2E2E0A38
:100530000A444F4E2754205455524E204F464621D0
:100540000000000000230026002900040404040425
:100550000404040202020202020303030303030170
:100560000204081020408001020408102001020447
:10057000081020000000080002010000030407002A
:100580000000000000000000671711241FBECFEF1D
:10059000D8E0DEBFCDBF11E0A0E0B1E0ECE9F4E3CC
:1005A00002C005900D92A433B107D9F723E0A4E36C
:1005B000B1E001C01D92AB3FB207E1F712E0C5EC1C
:1005C000D2E004C02197FE010E94411AC43CD10729
:1005D000C9F70E9446100C944C1A0C9400004F92DC
:1005E0005F926F927F928F929F92AF92BF92CF92C3
:1005F000DF92EF92FF920F931F93CF93DF9300D080
:1006000000D01F92CDB7DEB74091F4035091F503AF
:100610006091F6037091F7032FB7F89480916A0107
:1006200090916B01A0916C01B0916D012FBF481B9F
:10063000590B6A0B7B0B8091F30390E0A0E0B0E0D4
:100640000091EF031091F0032091F1033091F20338
:1006500084179507A607B70730F401151105210582
:10066000310509F03BC3012B022B032B09F034C3E6
:1006700080918B0381508E3F18F580918A038130E1
:1006800021F580919E038F5F60919F0387FD09C0D4
:10069000082E000C990B70E06F5F7F4F0E94191AB3
:1006A000682F60939E0387EE94E09093F903809304
:1006B000F80388E48093FA0389E993E00E94C9096A
:1006C00080918B0381508E3F70F48091890381303B
:1006D00009F0B0C38AED94E09093F9038093F80396
:1006E00088E48093FA0380E00E943A0E80919A0396
:1006F000882309F4ADC08091AE038111A9C0809117
:10070000A6039091A703E091AB03F091AC03EE0F29
:10071000FF1FE80FF91F459154914115510501F54F
:100720002091AA03222331F01092AC031092AB0364
:10073000FC0114C010929A0380919903882341F020
:1007400080E00E943A0EE091AB03F091AC032FC021
:1007500060E089E993E00E94E9097AC045915491EB
:100760009A01369527953695279540FF51C0CA01C5
:1007700016E0969587951A95E1F78F71952F9695C6
:100780009695969590512F70223071F1F8F42111C1
:1007900017C08B3008F08AE08093AF03E091AB0381
:1007A000F091AC033196F093AC03E093AB03EE0F02
:1007B000FF1F8091A6039091A703E80FF91FCECFEA
:1007C000213061F760E00E94A70EE8CF2330B1F03E
:1007D000243021F720919D03829F802D1124809346
:1007E000B6039093B703DACF20919D03829F802DAB
:1007F00011248093B2039093B303D0CF20919D0333
:10080000829F802D11248093B4039093B503C6CFAB
:100810002F732093AD0380919D03859F802D11241C
:100820008093AE031092BE031092BD031092BC03DE
:1008300081E08093B003809365011092B1038091B1
:10084000AB039091AC0301969093AC038093AB0300
:100850008091B003882309F4F3C08091AE03811125
:1008600006C060E089E993E00E94E909E9C081508F
:100870008093AE038091BE03811148C02091BC03D8
:100880003091BD032F5F3F4FC901880F991FE09141
:10089000B803F091B903E80FF91F65917491862FA1
:1008A00087708093BF03AB01E3E056954795EA95C7
:1008B000E1F7CA0196958795972F9695969590930F
:1008C000C0038F7390919D03899F802D1124809385
:1008D000BE034170409369013093BD032093BC0374
:1008E0008091BA0390E02817390780F02091BB036C
:1008F000222339F0821B91099093BD038093BC039E
:1009000005C060E089E993E00E94E9098091BE0397
:1009100081508093BE038091B10321E0280F209382
:10092000B1034091AD033091C003340F8091A50312
:10093000380F30939B036091B403662371F070E02D
:10094000822F022E000C990B0E94191A8091B50378
:10095000869F300D112430939B0380919B0390E080
:10096000849664E270E00E94191A80939B03309190
:10097000AF0330939C036091B203662381F0062E8F
:10098000000C770B822F022E000C990B0E94191A73
:100990008091B303869F300D112430939C036091A6
:1009A000B6036623A1F0822F220F990B70E00E94FC
:1009B000191ACB0162E070E00E94191A2091B70366
:1009C00090919C03289F900D112490939C038091FB
:1009D0009C034F3341F08A300CF089E087FD80E0C2
:1009E00080939C0302C010929C03F894E0919B03B7
:1009F000F0E0EA5FFC4FE491E093680130919C03E2
:100A00002091C1033203900111244091BF0342039E
:100A1000C001439F900D112400909E0302C0880FD7
:100A2000991F0A94E2F797FF02C081589F4F880FE1
:100A3000892F881F990B80936701809366017894B2
:100A40008091FA03882309F48FC08C3020F49CE055
:100A5000E92EE81A01C0E12CFF24F394F092CA03B6
:100A60001092E2031092E3033091C7034DE2D42EBB
:100A70001D2D131B1E0D03E0030F2EE4412F63E019
:100A800082EC93E03D830E94DE0B3D810CEF030F6F
:100A90001D5F202F41E0612F80E50E94780F202FFD
:100AA00042E0612F83E00E94780FF092E203F0921F
:100AB000E3030091C70313E0100FD01ADE0C23E00C
:100AC0004D2D622F82EC93E02D830E94860B2D81A9
:100AD0002F5F2135A9F71D0DFF24FA94F10E23E0B5
:100AE0004F2D622F82EC93E02D830E94860B2D8187
:100AF0002F5F2135A9F7035033E0D30E402F6D2D22
:100B000080E00E94600F402F6D2D83E50E94600FF2
:100B100041E06D2D83E00E94E20E42E06D2D80E504
:100B20000E94E20E145044E0612F80E50E94E20E24
:100B300048E0612F83E00E94E20E84E08093CB03C3
:100B40008091C703E81A8E2D815D8093CC0360915C
:100B5000F8037091F90382EC93E00E94880780917A
:100B6000FA0381508093FA0380919003909191034E
:100B7000892B09F489C011E01093E2031092E3037A
:100B80009091C60385E5891B8093CB031092CC031B
:100B900060918D03613009F458C030F080918C036E
:100BA000653008F06AC065C060E089E993E00E94A2
:100BB000E90910929A031093CA03E8E5F3E0E4917F
:100BC000EF5FE093C603E9E5F3E0E491EF5FE093C4
:100BD000C7038AE593E09093E1038093E0031092CA
:100BE0009103109290031092C80318EA0E94EF023A
:100BF0008823E1F36AE473E082EC93E00E948807C3
:100C000040918E0350918F0360E070E02AE082EC07
:100C100093E00E94C10765E373E082EC93E00E94D9
:100C20008807612F62956F7070E082EC93E00E94FC
:100C3000D30F6AE273E082EC93E00E948807809110
:100C40008903813009F0FCC01FC08091E5039091B9
:100C5000E603A091E703B091E8038F709927AA27D4
:100C6000BB270897A105B10510F467E009C068E744
:100C700007C0882349F06B5F03C0882329F06FE227
:100C800082EC93E00E9481070E94B00D8091C8031E
:100C900081110EC088EF91E0E4E7F1E0DF019C01F3
:100CA0001D9221503040E1F71092CB031092CC03FB
:100CB0000E9415096093EF037093F0038093F10392
:100CC0009093F2032091EB033091EC03621B730BC2
:100CD0007093EA036093E90380E0CCC02FB7F894E7
:100CE00080916A0190916B01A0916C01B0916D01AE
:100CF0002FBF2091F303820F911DA11DB11D809381
:100D0000F4039093F503A093F603B093F703809157
:100D1000E5039091E603A091E703B091E803019603
:100D2000A11DB11D8093E5039093E603A093E70313
:100D3000B093E8031092EF031092F0031092F103C6
:100D40001092F2030E9415096093EB037093EC0379
:100D50008093ED039093EE03809175039091760359
:100D60002FE0289F8001299F100D112485E10E940A
:100D7000FE08800F911F24E0969587952A95E1F74C
:100D8000909376038093750320917403222309F4D2
:100D90004BC060917803262F30E040E050E029837B
:100DA0003A834B835C83C0907903D12CE12CF12CE6
:100DB00040917C0350917D034A01A12CB12C2091DC
:100DC0007A0330917B032901612C712C82179307E0
:100DD00028F09C014817590708F49A01C901A0E0BE
:100DE000B0E09C01AD012419350946095709698114
:100DF0007A818B819C816C197D098E099F090E94E3
:100E0000FD19A501940124193509460957090E94C5
:100E1000CE17C20ED31EE41EF51EC09277036C2DB2
:100E200070E085E00E949F080E943D0D0E9409101D
:100E300081E020C0893209F056CC0E94030E53CCC9
:100E4000115009F0D3CE60E070E085E00E949F0869
:100E500083B7817F846083BF83B7816083BF83B79B
:100E6000816083BF889583B78E7F83BF83B78E7F72
:100E700083BFBCCE0F900F900F900F900F90DF911B
:100E8000CF911F910F91FF90EF90DF90CF90BF9087
:100E9000AF909F908F907F906F905F904F9008954C
:100EA000CF92DF92EF92FF920F931F93CF93DF9336
:100EB0006C017A018B01C0E0D0E0CE15DF0589F02E
:100EC000D8016D918D01D601ED91FC910190F081D9
:100ED000E02DC6010995892B11F47E0102C02196EF
:100EE000ECCFC701DF91CF911F910F91FF90EF9051
:100EF000DF90CF900895089580E090E008950E94DB
:100F0000471ADC01ED91FC910190F081E02D0994EC
:100F1000EF92FF920F931F93CF93DF938C017B018E
:100F2000C0E0D0E0F701EC0FFD1F6491662361F093
:100F3000D801ED91FC910190F081E02DC801099557
:100F4000892B11F02196EECFCE01DF91CF911F9129
:100F50000F91FF90EF9008956115710579F0FB01F5
:100F600001900020E9F73197AF01461B570BDC01D8
:100F7000ED91FC910280F381E02D099480E090E0F6
:100F800008954F925F926F927F92EF92FF920F932C
:100F90001F93CF93DF93CDB7DEB7A1970FB6F89429
:100FA000DEBF0FBECDBF7C01FA01CB0119A22230FA
:100FB00008F42AE08E010F5D1F4F422E512C612C48
:100FC000712CBF01A30192010E940018F901CA010E
:100FD000015011096A3014F4605D01C0695CD801E8
:100FE0006C93232B242B252B61F7B801C7010E949A
:100FF000AC07A1960FB6F894DEBF0FBECDBFDF9150
:10100000CF911F910F91FF90EF907F906F905F9025
:101010004F900895833081F028F4813099F0823028
:10102000A1F008958730A9F08830B9F08430D1F468
:10103000809180008F7D03C0809180008F778093A6
:101040008000089584B58F7702C084B58F7D84BDFC
:1010500008958091B0008F7703C08091B0008F7D9C
:101060008093B00008951F93CF93DF93282F30E033
:10107000F901ED58FA4F8491F901E15AFA4FD491F0
:10108000F901E55BFA4FC491CC23C9F0162F811109
:101090000E940A08EC2FF0E0EE0FFF1FE852FE4F0F
:1010A000A591B4918FB7F894111105C09C91ED2FC3
:1010B000E095E92302C0EC91ED2BEC938FBFDF911B
:1010C000CF911F910895CF93DF9390E0FC01E15AF7
:1010D000FA4F2491FC01E55BFA4F8491882361F17A
:1010E00090E0880F991FFC01E253FE4FC591D49107
:1010F000FC01E852FE4FA591B491611109C09FB760
:10110000F8948881209582238883EC912E230BC04C
:10111000623061F49FB7F8943881822F80958323E1
:101120008883EC912E2B2C939FBF06C08FB7F89429
:10113000E8812E2B28838FBFDF91CF9108951F93D5
:10114000CF93DF93182FEB0161E00E946308209793
:1011500011F460E004C0CF3FD10539F461E0812F84
:10116000DF91CF911F910C943308E12FF0E0ED58FF
:10117000FA4FE491E330F9F048F4E130B9F0E230AD
:10118000A1F584B5806284BDC8BD34C0E730E9F004
:10119000E83019F1E43049F5809180008062809355
:1011A0008000D0938B00C0938A0024C084B58068EF
:1011B00084BDC7BD1FC0809180008068809380007F
:1011C000D0938900C093880015C08091B0008068DA
:1011D0008093B000C093B3000DC08091B0008062D6
:1011E0008093B000C093B40005C0C038D1050CF0A6
:1011F000B5CFAFCFDF91CF911F9108958E3008F01A
:101200008E508770806480937C0080917A00806427
:1012100080937A0080917A0086FDFCCF80917800DF
:101220002091790090E0922B08953FB7F894809137
:10123000700190917101A0917201B091730126B576
:10124000A89B05C02F3F19F00196A11DB11D3FBFFE
:10125000BA2FA92F982F8827820F911DA11DB11D8C
:10126000BC01CD0142E0660F771F881F991F4A9588
:10127000D1F708958F929F92AF92BF92CF92DF9253
:10128000EF92FF926B017C010E9415094B015C01FA
:10129000C114D104E104F104F1F00E941509DC014C
:1012A000CB0188199909AA09BB09883E9340A10579
:1012B000B10570F321E0C21AD108E108F10888EE07
:1012C000880E83E0981EA11CB11CC114D104E10456
:1012D000F10419F7DDCFFF90EF90DF90CF90BF9032
:1012E000AF909F908F9008951F920F920FB60F921C
:1012F00011242F933F938F939F93AF93BF9380912C
:101300006A0190916B01A0916C01B0916D013091D7
:101310006F0123E0230F2D3720F40196A11DB11D8D
:1013200005C026E8230F0296A11DB11D20936F0171
:1013300080936A0190936B01A0936C01B0936D014F
:101340008091700190917101A0917201B09173012F
:101350000196A11DB11D8093700190937101A0931E
:101360007201B0937301BF91AF919F918F913F91A3
:101370002F910F900FBE0F901F90189580916501CF
:10138000882319F08091660101C080E08093B40049
:101390000895CF93DF93EC011F8A1D8A1CA21BA224
:1013A000188E1092660110926701109265010E94DA
:1013B000BE098EEE94E09E878D871B8A1A8A81E093
:1013C000898389E08E8B198E1B8E1D8EDF91CF91C4
:1013D0000895FC0161110DC0178A158A14A213A289
:1013E000108E1092660110926701109265010C94A4
:1013F000BE0908951F920F920FB60F9211242F93DA
:101400003F934F935F936F937F938F939F93AF938C
:10141000BF93EF93FF9360916701662321F1809161
:101420006E018F5F80936E01909168018917D8F0EB
:101430009091650181E089278093650110926E018A
:1014400080916901882369F08091000193E4899F6C
:10145000802D1124895B809300010E940D1A9093C6
:1014600066010E94BE09FF91EF91BF91AF919F91DC
:101470008F917F916F915F914F913F912F910F903D
:101480000FBE0F901F9018954F925F926F927F92B0
:101490008F929F92AF92BF92CF92DF92EF92FF9284
:1014A0000F931F93CF93DF93F901C490319654911A
:1014B000EC0108A164350CF018C10C2C000CDD08FF
:1014C000A62F062E000CBB0B7D01EC0CFD1C1E1480
:1014D0001F040CF00AC140330CF007C1A52E842E66
:1014E000042E000C9908F401E50FF11D57FDFA9543
:1014F0001E161F060CF0F9C02E5F3F4FE60127961F
:10150000D7FD279673E0D595C7957A95E1F747FF04
:101510000AC0A52EA40EC89DA001C99D500D11247E
:10152000241B350B40E0EA2D0A2C000CFF0BE40FC6
:10153000F11D47FDFA95F1971CF050E3A52EA41A72
:1015400067FD60E0F701E535F10514F0E4E5F0E052
:101550007E2FFC01D484D426862F062E000C990BF6
:10156000FC01EA1BFB0BDF017F01F7E0EF22FF2408
:10157000E0E8F0E002C0F595E795EA94E2F71E2F67
:10158000B7FD179653E0B595A7955A95E1F72A0F41
:101590003B1FE42FE77051E001C0550FEA95EAF7D1
:1015A000459545954595B4E54B02800D911D112457
:1015B0008C589E4FC12C0A2C000CBB089924939484
:1015C0002E015524EC2DF0E0EA15FB050CF08DC042
:1015D000F90144910130E1F47C01A12F862E881A93
:1015E000B82DBE0DB71708F077C0B42FBA2321F07D
:1015F000E701B881B52BB883B0E0B595A7951097F2
:1016000019F431964491A0E8DFEFED1AFD0AE8CF16
:1016100001111FC0752E70947C01A12FF901862E37
:10162000881AB82DBE0DB71708F056C0B42FBA23CC
:1016300021F0E701B881B721B883B0E0B595A7954F
:10164000109719F431964491A0E8DFEFED1AFD0AE6
:10165000E8CF033031F07C01A12FF901862E881AE2
:1016600037C0752E7094862E7C01A12FF901871644
:10167000D8F4B42FBA2359F0E701B881682C6D244F
:1016800060FE02C0B52B02C0B721E701B883B0E00D
:10169000B595A795109719F431964491A0E88394D5
:1016A000DFEFED1AFD0AE3CFD92416C0B42FBA2319
:1016B00021F0E701B881B527B883B0E0B595A795CB
:1016C000109719F431964491A0E8DFEFED1AFD0A66
:1016D000B82DBE0DB71750F3550F19F48C5A9F4F04
:1016E00051E0C394240D351D6DCFDF91CF911F9133
:1016F0000F91FF90EF90DF90CF90BF90AF909F90B1
:101700008F907F906F905F904F900895FC016435AB
:1017100008F053C0403308F050C090A1742F759565
:1017200075957595262F062E000C330B542F577088
:101730009230A1F4F901EC58FE4F84E57802E00DF7
:10174000F11D1124808190E0052E02C095958795AA
:101750000A94E2F78095982F91700AC0933041F473
:1017600084858170462740954170841303C014C05E
:10177000911112C084E57802200D311D1124F90168
:10178000EC58FE4F81E090E001C0880F5A95EAF7CF
:1017900080959081892310C084E57802200D311D49
:1017A0001124F901EC58FE4F81E090E001C0880F50
:1017B0005A95EAF79081892B80830895BF92CF9242
:1017C000DF92EF92FF920F931F93CF93DF931F92BD
:1017D000CDB7DEB77C01D62EC42E002E000C110B27
:1017E000040F111D47FD1A954C2D0C2C000C550BA8
:1017F000401751077CF4B12CB21654F46B2D6D0DCB
:101800004C2DC70129830E94860BB3942981F4CF04
:10181000C394EACF0F90DF91CF911F910F91FF906A
:10182000EF90DF90CF90BF9008956F927F928F924C
:101830009F92AF92BF92CF92DF92EF92FF920F935F
:101840001F93CF93DF93EC016A3019F42D819885B3
:10185000A1C06D3009F4A4C01885BA84D98488A0C9
:1018600083E58D150CF47FC08FE28B150CF47BC0E3
:101870008C8190E00197189F9001199F300D1124E1
:10188000C9018D0D911DD7FC9A95181619060CF0FB
:101890006AC08D81819FC00111248B0D911DB7FC01
:1018A0009A95181619060CF05EC09D2CCD2CE62ECC
:1018B000F12CEC2DED190E2E000CFF0B8C8190E01D
:1018C000E817F9070CF04EC00197E817F90779F00F
:1018D000E89E9001E99E300DF89E300D1124E20F34
:1018E000F31F8E8D9F8DE80FF91F749001C0712C2E
:1018F0006B2CAB2C2A2D2B19022E000C330B8D8157
:1019000090E0281739075CF570FE10C0113031F4F3
:101910004A2D6C2DCE010E94860B1DC0012F212F58
:10192000462D692DCE010E94DE0B15C089A198A11C
:10193000891789F088A3113031F44A2D6C2DCE011E
:101940000E94860B07C0012F212F462D692DCE0145
:101950000E94DE0B88A27694A394610ECBCFC39431
:10196000910EA7CF88A228853C818985329F800D62
:10197000112489879F81992399F0082E000C990BD7
:1019800044E550E0239F4019510911244817590795
:101990003CF49D818A85299F800D11248A871986B0
:1019A00081E090E0DF91CF911F910F91FF90EF9038
:1019B000DF90CF90BF90AF909F908F907F906F906F
:1019C0000895E0E4F1E080E3848388E0818340E0EF
:1019D00050E060E472E4478350876187728798E142
:1019E000928396E19383148615861686178695E072
:1019F0009387108216821582E0E5F1E044E550E01D
:101A000060E070E040835183628373839EE194833E
:101A1000858381E1868380E090E0A0E8B0E487835D
:101A20009087A187B2871486138686E696E6A6EA93
:101A3000BFE38093340190933501A0933601B093B6
:101A4000370180E090E0A0EFB2E480933C019093F6
:101A50003D01A0933E01B0933F0180E090E0A0E003
:101A6000B0E48093380190933901A0933A01B09388
:101A70003B0181E080935D010895CF92DF92EF9268
:101A8000FF920F931F93CF93DF93CEE7D3E005E848
:101A900013E0FF24FA9497E0E92EE00E62E08881DB
:101AA0000E946308288130E0F901ED58FA4F8491D3
:101AB000F901E15AFA4FC490F901E55BFA4FD4906D
:101AC000DD2071F081110E940A08ED2DF0E0EE0F8B
:101AD000FF1FEF5BFA4FA591B491EC91EC21B1F4AB
:101AE000F80180818F5F808360E088810E946308B5
:101AF00021960F5F1F4FE012D1CFDF91CF911F9141
:101B00000F91FF90EF90DF90CF900895F8018081C2
:101B1000882371F3F8018F3F11F41082E5CFF08232
:101B2000E3CFCF93C82FF89460E08091D1030E9457
:101B300033088091D20318161CF460E00E94330829
:101B4000CEBD00000DB407FEFDCF8EB58091D2034F
:101B500018161CF461E00E9433087894CF91089520
:101B60000F931F93CF938091CE038F5F8093CE030B
:101B700004E711E0C0E08C2F80640E94910D80E8A2
:101B80000E94910D61E08091D1030E943308809101
:101B9000D20318161CF460E00E94330880E090E045
:101BA000F801E80FF91F20812EBD00000DB407FEDB
:101BB000FDCF2EB501968435910591F78091D20322
:101BC00018161CF461E00E943308CF5F0C5A1F4FB7
:101BD000C63089F680E4CF911F910F910C94910D3E
:101BE000CF93DF93BC0182EC93E00E948807EC0165
:101BF00069E271E082EC93E00E94AC078C0F9D1FBC
:101C0000DF91CF91089588EF91E0E4E7F1E0DF0103
:101C10009C011D9221503040E1F71092CB031092AD
:101C2000CC0369E175E082EC93E00E9488070E9492
:101C3000B00D8CB583608CBD8DB58E7F8DBD8CE273
:101C400091E0EEEFFFE309951092C80384EF94E072
:101C50000E94F00D0E94B00D0E943D0D80918903FD
:101C6000813039F062E370E080E090E00E943A0950
:101C7000F3CF0895AF92BF92CF92DF92EF92FF928F
:101C80000F931F93CF93DF93C82ED12CE601CC582E
:101C9000DC4F9DA1992309F44FC07E019FEFE91A03
:101CA000F90AF70195A1911147C09EA58601000F81
:101CB000111F0C581C4FF80134A525A5E32FF22F56
:101CC000E90FF11DE90FF11D259134912F3FFFEF31
:101CD0003F0711F41DA230C039ABF601EE0FFF1F14
:101CE000E258FC4F3327220F331F05A0F6A1E02D49
:101CF000E20FF31FA590B49081111AC060E089E94A
:101D000093E00E94E909F801B3AAA2AAF601EE0F36
:101D1000FF1FEA57FC4F16A215A281E0F70185A329
:101D200089E08BAF1EAEFE017B9615A2329615A2FE
:101D300029968DA18F5F8DA3DF91CF911F910F9178
:101D4000FF90EF90DF90CF90BF90AF90089570E03C
:101D5000DB01AA0FBB1FAC58BC4FD4962C91D49773
:101D6000D5969C91D597E22FF92FE80FF11DE80F3A
:101D7000F11D259134915F9696963C932E939597FD
:101D8000F9018591949190919D03989F802D112444
:101D90006C587C4FFB01B19685A3F901A591B491D4
:101DA0004B2F50E0E82FF0E04E175F0720F4F901C9
:101DB00025913491832FFB01B296899F802D1124A8
:101DC00085A30895AF92BF92CF92DF92EF92FF92D8
:101DD0000F931F93CF93DF93182F062FC1E0D3E00B
:101DE0008AEFD82E9EEFE92E842F8470C82E842F80
:101DF0008270B82E842F8870A82E4170F42E8C2FFC
:101E0000880F8F5FE80ECC2081F04D2F400F6C2F94
:101E1000610F82EC93E00E94860B4C2F400F6D2FD8
:101E2000610F82EC93E00E94860BBB2081F0402F73
:101E30004D1B6C2F610F82EC93E00E94860B402FAC
:101E40004C1B6D2F610F82EC93E00E94860BAA2041
:101E500081F04C2F400F612F6D1B82EC93E00E94AC
:101E6000860B4D2F400F612F6C1B82EC93E00E947C
:101E7000860BFF2081F0402F4C1B612F6D1B82ECE5
:101E800093E00E94860B402F4D1B612F6C1B82EC50
:101E900093E00E94860BCD1744F4E7FC04C0D150B8
:101EA000D394D394ED0CCF5FAACFDF91CF911F9144
:101EB0000F91FF90EF90DF90CF90BF90AF9008957B
:101EC0000F931F93CF93DF93182F062FD42FC0E0CB
:101ED000CD174CF44C2F400F612F82EC93E00E9401
:101EE000860BCF5FF5CFDF91CF911F910F910895B2
:101EF0009F92AF92BF92CF92DF92EF92FF920F9399
:101F00001F93CF93DF93F82EE62EB22E03E0020F3D
:101F1000D0E0C3E08AEFC82E1EEF842F8170982E88
:101F2000AA24A394A20E4270D42EDF5F802F8B19B7
:101F3000180F992081F04C2F440F4A0D6E2D6C1B09
:101F40008D2F8F0D0E94600F402F6E2D6D1B8C2FDB
:101F50008F0D0E94600FDD2081F04C2F440F4A0D41
:101F60006E2D6C1B8F2D8D1B0E94600F402F6E2DD0
:101F70006D1B8F2D8C1B0E94600FDC1744F417FD26
:101F800004C0C150C394C3941C0D0E5FCECFDF912B
:101F9000CF911F910F91FF90EF90DF90CF90BF9066
:101FA000AF909F900895CF92DF92EF92FF920F93A0
:101FB0001F93CF93DF936B01770FEE08FF08F7FEB7
:101FC0001BC0EC016DE20E9481078C01442755275C
:101FD000BA014C195D096E097F092AE0CE010E9401
:101FE000C107800F911FDF91CF911F910F91FF903B
:101FF000EF90DF90CF9008952AE0B701A601DF911E
:10200000CF911F910F91FF90EF90DF90CF900C94A4
:10201000C1078091900390919103892BB1F1809138
:1020200098038F7169F584E10E94FE08BC01990F45
:10203000880B990B0E94DB1826EE3FE34EEC50E430
:102040000E9490190E94AA189B0170938F036093BD
:102050008E03672B91F084E080938D03E0E9F3E039
:1020600080E0419151912417350718F480938D0336
:1020700008958F5F8430A9F703C08FEF80938D039D
:10208000809198038F5F809398030895CF93DF9397
:10209000CDB7DEB72C970FB6F894DEBF0FBECDBF1D
:1020A000789484B5826084BD84B5816084BD85B533
:1020B000826085BD85B5816085BD80916E0081603F
:1020C00080936E00109281008091810082608093E5
:1020D00081008091810081608093810080918000E7
:1020E0008160809380008091B10084608093B10012
:1020F0008091B00081608093B00080917A0084600C
:1021000080937A0080917A00826080937A00809137
:102110007A00816080937A0080917A008068809351
:102120007A001092C10082E38093F30381E090E093
:10213000A0E0B0E08093EF039093F003A093F1034D
:10214000B093F2038FEF8093E403E0E8F7E7259183
:1021500034912130304C09F049C0E6E9F7E7E491C9
:10216000E093CD03E7E9F7E7E491E0937803E8E94A
:10217000F7E7E491E0937903E9E9F7E78591949132
:1021800090937B0380937A03EBE9F7E78591949131
:1021900090937D0380937C0387E080939F03EEE917
:1021A000F7E7E491E0939E03EFE9F7E7E491E0932A
:1021B000E403E0EAF7E7859194919093910380938B
:1021C0009003E2EAF7E785919491909393038093CB
:1021D0009203E4EAF7E785919491909395038093B5
:1021E0009403E6EAF7E7859194912CC09CE39093E1
:1021F000CD03109278038093790380E293E090936B
:102200007B0380937A0384ED93E090937D03809326
:102210007C0387E080939F0380939E038CEA9DE07C
:1022200090939103809390038EED9DE090939303A0
:102230008093920384E79EE09093950380939403A8
:102240008CE39FE0909397038093960311E01093A3
:1022500074036FEF70E085E00E949F0888E0809330
:102260007E0389E080937F0387E08093800386E08C
:102270008093810304E00093820382E080938303D0
:1022800081E1809384030E943D0D8CE39FE0909355
:102290008F0380938E0300938D03109398038BE03C
:1022A0008093D0038DE08093CF0380E18093D103AE
:1022B0008EE08093D3038FE08093D2031093CA0300
:1022C0001093E2031092E3031093C903E8E5F3E0EF
:1022D000E491EF5FE093C603E9E5F3E0E491EF5F9B
:1022E000E093C7038AE593E09093E1038093E003D2
:1022F0001FB7F89480915E01811127C0E5E5F5E0F4
:102300008491E9E6F5E09491E82FF0E0EE0FFF1FED
:10231000E253FE4FA591B491EC91E92321F461E0E1
:102320008AE00E94330861E08AE00E9463088CB56D
:1023300080618CBD8CB580648CBD61E08DE00E94B5
:10234000630861E08BE00E94630880915E018F5F0B
:1023500080935E011FBF8CB58F7D8CBD8CB58C7F4B
:1023600081608CBD8DB581608DBD8CB58C608CBD60
:1023700061E08091D0030E94630861E08091CF0307
:102380000E94630861E08091D1030E9463088091FC
:10239000D30318161CF461E00E9463088091D203F5
:1023A00018161CF461E00E9463088091D30318168C
:1023B00074F460E00E9433086AE070E080E090E02E
:1023C0000E943A0961E08091D3030E943308809112
:1023D000CF03082E000C990BFC01E55BFA4FE4914A
:1023E000F0E0EE0FFF1FE852FE4F2591349130933D
:1023F000D7032093D603FC01E15AFA4FE491E0930E
:10240000DD038091D003082E000C990BFC01E55BE5
:10241000FA4FE491F0E0EE0FFF1FE852FE4F2591D6
:1024200034913093D5032093D403FC01E15AFA4F41
:10243000E491E093DC038091D203082E000C990B09
:10244000FC01E55BFA4FE491F0E0EE0FFF1FE8526C
:10245000FE4F259134913093D9032093D803FC018A
:10246000E15AFA4FE491E093DE038091D103082E04
:10247000000C990BFC01E55BFA4FE491F0E0EE0FE4
:10248000FF1FE852FE4F259134913093DB032093D8
:10249000DA03FC01E15AFA4FE491E093DF0381E2B1
:1024A0000E94910D84E10E94910D8091CD0387FFE0
:1024B00003C08FE78093CD038091CD0380680E9495
:1024C000910D80E20E94910D8CE00E94910D0E947E
:1024D000B00D11E010939D0384E08093C1038AEC5A
:1024E00091E09093A9038093A80360E080E00E94AC
:1024F000A70E61E070E083E00E949F088091B10028
:10250000887F81608093B100F894109280001092CF
:102510008100109285001092840088E191E09093F0
:102520008900809388008091810088608093810079
:102530008091810081608093810080916F00826032
:1025400080936F0078940E94091080918A038130F3
:1025500019F410929E031EC080918D038823C9F345
:1025600060E089E993E00E94E90982EE91E09093AE
:10257000A7038093A6031092AC031092AB031093B1
:102580009A0389E08093AF031092B2031092B403D0
:102590001092B60384E68093F30381E080939D0359
:1025A00082E10E94FE08BC01990F880B990B61150E
:1025B00071058105910511F00E94C5178091E40312
:1025C000882309F4D9C081E08093CA031092C9031B
:1025D0001092C80310928C038093E2038093E3036C
:1025E0007CE7A72E72E0B72E1CE00E94EF02882342
:1025F000E1F3F50184912CE032E040E060E082EC10
:1026000093E00E94440A1092CB031093CC036CE732
:1026100072E082EC93E00E9488078091C603982FB5
:10262000990F890F81958D5A8093CB038091C703B1
:10263000982F990F890F8195835D8093CC038091AA
:10264000E50384FF03C088E092E002C084E092E0EA
:102650000E94F00D8091C603982F990F890F8195E4
:102660008D5A8093CB038091CC038F5F8093CC03F2
:1026700080919E03882319F080E092E002C08CEFE5
:1026800091E00E94F00D8091C603982F990F890F59
:1026900081958D5A8093CB038091CC038F5F80937B
:1026A000CC0388EF91E00E94F00D80918A03813085
:1026B000B1F480919E038F5F60919F0387FD09C0F5
:1026C000082E000C990B70E06F5F7F4F0E94191A63
:1026D000682F60939E0389E993E00E94C909809165
:1026E00089038130B9F08091E403482F50E060E025
:1026F00070E0C090E503D090E603E090E703F0902F
:10270000E803C416D506E606F70608F4B6C38F3FFD
:1027100009F4B3C38FEF8093E40360E089E993E0A9
:102720000E94E90910929A031092B0031092AE032E
:102730001092BD031092BC031092B1031092660177
:1027400010926701109265010E94BE0980EF91E02E
:102750009093A7038093A6031092AC031092AB034F
:1027600081E080939A0389E08093AF031092B203D3
:102770001092B4031092B60310928C030E94E10CE5
:102780000E94EF02882309F470C3E0915B01F0918D
:102790005C01EE0FFF1FE95EFE4F20813181409109
:1027A00054016091500182EC93E00E94440A10E0D1
:1027B0004AE2612F82EC93E00E94860B1F5F153581
:1027C000B9F7609145017091460182EC93E00E9457
:1027D000D30FFCE3F093CB0363E073E082EC93E070
:1027E0000E948807609163017091640182EC93E01C
:1027F0000E94D30F2AE939E949E95EE360913C017F
:1028000070913D0180913E0190913F010E943118ED
:1028100060933C0170933D0180933E0190933F0192
:1028200020E030E040EA51EC0E949E1887FF28C06B
:102830000E94C01726E430E040E050E00E94CE172E
:10284000665A7F4F8F4F9F4F0E94DB1860933C0169
:1028500070933D0180933E0190933F010E94C01709
:102860002EE130E040E050E00E94CE170E94DB18DD
:10287000609338017093390180933A0190933B0142
:10288000609138017091390180913A0190913B013A
:102890000E94A318462F60913C0170913D018091E8
:1028A0003E0190913F0149870E94A3182CEE32E02F
:1028B000498582EC93E00E94440A909162018091E4
:1028C0005D01933068F5813059F5292F30E0F90129
:1028D000EE0FFF1FE35FFE4F4081220F331FF90110
:1028E000E55FFE4F20812093AD0320919D033AEFD9
:1028F000239F202D1124249F402D11244093AE03AB
:102900001092BE031092BD031092BC038093B003DB
:10291000809365011092B1039E5F909362010FC096
:1029200010926201813059F038F0823009F44DC2C2
:10293000833009F45BC299C20E94E10C96C2809177
:10294000450190914601019690934601809345017F
:102950006091500170915101809152019091530109
:102960000E94DB1820915701309158014091590184
:1029700050915A010E9431180E94A3186B017C01EA
:1029800060935001709351018093520190935301D1
:102990008090470190904801A0904901B0904A0171
:1029A00020E030E040E551E4C501B4010E949E18EA
:1029B00087FF1FC08091610190E0A0E0B0E04091EE
:1029C000E5035091E6036091E7037091E8038417F3
:1029D0009507A607B707A8F580E090E0A0E5B1E469
:1029E0008093470190934801A0934901B0934A0115
:1029F00028C0209134013091350140913601509129
:102A0000370160914C0170914D0180914E01909180
:102A10004F010E9432189B01AC0160934C017093EE
:102A20004D0180934E0190934F01C501B4010E9466
:102A30003218609347017093480180934901909345
:102A40004A0110914401612F70E080E090E00E9403
:102A5000DB189B01AC0160914701709148018091A6
:102A6000490190914A010E948B191816CCF4612FEC
:102A700070E080E090E00E94D91860934701709365
:102A800048018093490190934A0110924C011092A1
:102A90004D0110924E0110924F0181E08093400150
:102AA000809140018823C1F090914B0180915F019A
:102AB000981760F0809160018F5F823018F48093E6
:102AC000600102C01092600190935F0180915F01EC
:102AD000815080935F0104C012E0412E409260015A
:102AE000E0916001F0E0EE0FFF1FEB5FFE4FA08072
:102AF000B1806091430170E080E090E00E94DB18BB
:102B00009B01AC016091470170914801809149019E
:102B100090914A010E9431182B013C0150914101D2
:102B200059830E94A318462F9501698182EC93E096
:102B30000E94440AE0915B01F0915C01EE0FFF1FDF
:102B4000E95EFE4F20803180209154012C83DE828B
:102B5000CD825981852E912CF5018491282F30E06A
:102B60003B832A8331963491F1010491319624916B
:102B70004A815B81480D591D58874F83C416D5067D
:102B80000CF0C4C010E00C0D1D1D801691060CF059
:102B9000BDC05C81452F50E05C874B87C301B2010B
:102BA0002A8739870E94A3183B013985A32FB0E0FB
:102BB000AD01460F571F2A854B845C844416550689
:102BC0000CF0A4C0420E511C9201641575050CF066
:102BD0009DC04D805E80841495040CF05DC1F601AB
:102BE000E819F9094B845C84641475040CF04DC138
:102BF000461A570A5E824D824F805884401651060D
:102C00002CF02801481859085B824A824217530762
:102C10001CF0D901A61BB70B7D808E2F59805C1844
:102C2000662D2C81621B072D10E00A171B070CF084
:102C30006DC0982F862E870C912C292F30E04A8169
:102C40005B81241735070CF025C1F5014491F9018A
:102C500053E0F595E7955A95E1F7329650E0495FD4
:102C60005F4F73E0559547957A95E1F7049F900182
:102C7000059F300D149F300D1124E20FF31FEA0D54
:102C8000FB1DE491F0E0292F277040E850E002C0DE
:102C9000559547952A95E2F7E423F523EF2B09F4A0
:102CA000F7C0F1014491752D790FE72FF0E023E093
:102CB000F595E7952A95E1F7329650E0495F5F4F29
:102CC00033E0559547953A95E1F7849E9001859EAE
:102CD000300D949E300D1124E20FF31FE20DF31D11
:102CE000E491F0E0777020E830E002C03595279558
:102CF0007A95E2F7E223F323EF2B09F4C9C089E9BF
:102D000093E00E94C90983E080935D01F7FE31C022
:102D1000F101849190E0919581959109092E000C23
:102D2000AA0BBB0BC816D906EA06FB0614F50E94CF
:102D3000C0172CE430E040E050E00E94CE17DC01E8
:102D4000CB018C5A9F4FAF4FBF4F80935001909350
:102D50005101A0935201B09353010E94C01723E088
:102D600030E040E050E00E94CE1770935C01609329
:102D70005B0180918A03813009F091C0809140010C
:102D80008823E9F01092400120E030E040E251E475
:102D900060914C0170914D0180914E0190914F01D5
:102DA0000E94311860934C0170934D0180934E0145
:102DB00090934F018091E503865F8093610180913C
:102DC0008B03813009F051C070C084E18093CB0344
:102DD0008093CC0360EE72E082EC93E00E9488075F
:102DE00080918B03813009F040C064C06091430141
:102DF00070E080E090E00E94DB189B01AC016091E4
:102E00004701709148018091490190914A010E94C7
:102E100031180E94A318462F2CE932E0609141013D
:102E200082EC93E00E94440A809145019091460112
:102E30002091630130916401281739077CF4909345
:102E40006401809363019DE8492E92E0592E5092CF
:102E5000F9034092F80380E28093FA0380918A0399
:102E60008D7F813071F510925D0120E030E0232BE1
:102E700009F486CC0E94000083CC80918B038130C2
:102E800009F0B3CB0E94030EB0CB1E821D82B4CEDC
:102E90009F5FD3CE7394C7CEE0E0F0E0A3CE8091E5
:102EA0008903813009F08BCF69CF82E0582E509290
:102EB0005D0102C080935D0189E993E00E94C90928
:102EC000D4CF809189038D7F813079F6CCCF109259
:102ED000C5031092C40381E291E09093C3038093F1
:102EE000C20308958F929F92AF92BF92CF92DF92CA
:102EF000EF92FF92CF93DF93EC01688179818A8111
:102F00009B81611571058105910521F464E279EDDC
:102F10008BE597E02DE133EF41E050E00E94CE17C2
:102F200049015A019B01AC01A7EAB1E40E94ED17E7
:102F30006B017C01ACEEB4EFA50194010E94FB177C
:102F4000DC01CB018C0D9D1DAE1DBF1DB7FF03C065
:102F50000197A109B04888839983AA83BB83BC01E8
:102F6000CD019F77DF91CF91FF90EF90DF90CF90D1
:102F7000BF90AF909F908F9008950E947217089510
:102F800081E091E00E9472170895609301017093AF
:102F9000020180930301909304010895052E97FB8D
:102FA0001EF400940E94E51757FD07D00E940018F8
:102FB00007FC03D04EF40C94E517509540953095DE
:102FC00021953F4F4F4F5F4F089590958095709595
:102FD00061957F4F8F4F9F4F08950E942218A59FA4
:102FE000900DB49F900DA49F800D911D1124089504
:102FF000B7FF0C94ED170E94ED17821B930B0895F9
:10300000A1E21A2EAA1BBB1BFD010DC0AA1FBB1FEC
:10301000EE1FFF1FA217B307E407F50720F0A21B5E
:10302000B30BE40BF50B661F771F881F991F1A94CB
:1030300069F760957095809590959B01AC01BD01F5
:10304000CF010895A29FB001B39FC001A39F700D4F
:10305000811D1124911DB29F700D811D1124911DA0
:1030600008955058BB27AA270E9449180C9451195B
:103070000E94431938F00E944A1920F039F49F3F0A
:1030800019F426F40C9440190EF4E095E7FB0C9427
:103090003A19E92F0E94621958F3BA1762077307A9
:1030A0008407950720F079F4A6F50C9484190EF4A2
:1030B000E0950B2EBA2FA02D0B01B90190010C0148
:1030C000CA01A0011124FF27591B99F0593F50F460
:1030D000503E68F11A16F040A22F232F342F4427B8
:1030E000585FF3CF469537952795A795F0405395B0
:1030F000C9F77EF41F16BA0B620B730B840BBAF080
:103100009150A1F0FF0FBB1F661F771F881FC2F7EA
:103110000EC0BA0F621F731F841F48F487957795FE
:103120006795B795F7959E3F08F0B0CF9395880FB8
:1031300008F09927EE0F9795879508950E94161924
:1031400008F481E008950E94AA186894B1110C94C3
:10315000851908950E946A1988F09F5798F0B92F31
:103160009927B751B0F0E1F0660F771F881F991FBC
:103170001AF0BA95C9F714C0B13091F00E948419C1
:10318000B1E008950C948419672F782F8827B85FD1
:1031900039F0B93FCCF3869577956795B395D9F714
:1031A0003EF490958095709561957F4F8F4F9F4F1E
:1031B0000895E89409C097FB3EF49095809570952A
:1031C00061957F4F8F4F9F4F9923A9F0F92F96E973
:1031D000BB279395F695879577956795B795F111E8
:1031E000F8CFFAF4BB0F11F460FF1BC06F5F7F4F85
:1031F0008F4F9F4F16C0882311F096E911C0772397
:1032000021F09EE8872F762F05C0662371F096E89F
:10321000862F70E060E02AF09A95660F771F881F6E
:10322000DAF7880F9695879597F90895990F000812
:10323000550FAA0BE0E8FEEF16161706E807F90788
:10324000C0F012161306E407F50798F0621B730B23
:10325000840B950B39F40A2661F0232B242B252BA4
:1032600021F408950A2609F4A140A6958FEF811D47
:10327000811D089597F99F6780E870E060E00895E8
:103280009FEF80EC089500240A941616170618067E
:103290000906089500240A9412161306140605065A
:1032A0000895092E0394000C11F4882352F0BB0FEB
:1032B00040F4BF2B11F460FF04C06F5F7F4F8F4F4E
:1032C0009F4F089557FD9058440F551F59F05F3F89
:1032D00071F04795880F97FB991F61F09F3F79F038
:1032E00087950895121613061406551FF2CF4695BA
:1032F000F1DF08C0161617061806991FF1CF86953C
:103300007105610508940895E894BB27662777271F
:10331000CB0197F908950E94161908F48FEF0895CC
:103320000E94A3190C9451190E94431938F00E946D
:103330004A1920F0952311F00C943A190C94401975
:1033400011240C9485190E94621970F3959FC1F3A2
:10335000950F50E0551F629FF001729FBB27F00D43
:10336000B11D639FAA27F00DB11DAA1F649F662798
:10337000B00DA11D661F829F2227B00DA11D621FE7
:10338000739FB00DA11D621F839FA00D611D221FA1
:10339000749F3327A00D611D231F849F600D211D85
:1033A000822F762F6A2F11249F5750409AF0F1F008
:1033B00088234AF0EE0FFF1FBB1F661F771F881F71
:1033C00091505040A9F79E3F510580F00C943A1956
:1033D0000C9485195F3FE4F3983ED4F38695779576
:1033E0006795B795F795E7959F5FC1F7FE2B880F17
:1033F000911D9695879597F90895DB018F939F937B
:103400000E94ED17BF91AF91A29F800D911DA39FC8
:10341000900DB29F900D11240895991B79E004C07E
:10342000991F961708F0961B881F7A95C9F7809503
:10343000089597FB072E16F4009407D077FD09D066
:103440000E942D1A07FC05D03EF4909581959F4F60
:103450000895709561957F4F0895AA1BBB1B51E19C
:1034600007C0AA1FBB1FA617B70710F0A61BB70BF4
:10347000881F991F5A95A9F780959095BC01CD0199
:103480000895EE0FFF1F0590F491E02D099481E05F
:0C34900090E0F8940C944C1AF894FFCFD4
:10349C000101000000F800B4007000150004000EDB
:1034AC0000040011000200B70182013C0100000081
:1034BC0000150C50077C077B070D0A004C4F41444C
:0434CC004552000065
:00000001FF
